:020000040800F2
:1000000088060024E1020008514A00082B4A000833
:100010004F4A0008D10A000893550008000000006C
:10002000000000000000000000000000594C000823
:100030006D0E000800000000574A00085B4C0008E5
:10004000FB020008FB020008FB020008FB0200089C
:10005000FB020008FB0200086F0E0008FB0200080C
:10006000FB020008FB020008FB020008D50A00089A
:10007000FB020008FB020008FB020008FB0200086C
:10008000FB020008FB020008FB020008FB0200085C
:10009000FB020008FB020008FB020008FB0200084C
:1000A000FB020008FB020008FB020008FB0200083C
:1000B000FB020008FB020008FB020008FB0200082C
:1000C000FB020008FB020008FB020008FB0200081C
:1000D000FB020008FB020008FB020008FB0200080C
:1000E000FB020008FB02000800000000FB02000801
:1000F000FB020008FB020008FB020008FB020008EC
:10010000FB020008FB020008FB020008FB020008DB
:10011000FB020008FB020008FB020008FB020008CB
:10012000FB020008FB020008FB020008FB020008BB
:10013000FB020008FB020008FB020008FB020008AB
:1001400000000000000000000000000000000000AF
:10015000FB020008FB020008FB020008FB0200088B
:10016000FB020008FB020008FB020008FB0200087B
:10017000FB020008FB020008FB020008FB0200086B
:10018000FB020008FB020008FB020008FB0200085B
:10019000FB020008FB020008FB020008FB0200084B
:1001A000FB020008FB020008FB0200080000000040
:1001B000FB020008FB020008FB020008FB0200082B
:1001C000FB020008FB020008000000000000000025
:1001D0000000000000000000FB020008000000001A
:1001E000000000000000000000000000000000000F
:1001F0000000000000000000FB020008FB020008F5
:10020000FB020008FB02000800000000FB020008DF
:10021000FB020008FB020008FB020008FB020008CA
:10022000FB02000800000000FB02000800000000C4
:10023000FB020008FB02000800000000FB020008AF
:10024000FB020008FB020008FB020008FB0200089A
:10025000FB020008FB020008FB020008FB0200088A
:10026000FB020008FB020008FB020008FB0200087A
:10027000FB020008FB020008FB020008000000006F
:10028000FB020008FB020008FB020008FB0200085A
:1002900000000000FB020008FB020008FB0200084F
:1002A000FB020008FB020008FB020008FB0200083A
:1002B000FB020008FB020008FB020008FB0200082A
:1002C000FB020008FB020008FB020008DFF80CD06C
:1002D00000F048FA00480047CD5500088806002481
:1002E0000648804706480047FEE7FEE7FEE7FEE7D0
:1002F000FEE7FEE7FEE7FEE7FEE7FEE7FD4C00084F
:10030000CD0200082DE9F05F0546002092469B468D
:1003100088460646814640241BE02846414647461B
:10032000224600F057F853465A46C01A914110D35E
:1003300011461846224600F03EF82D1A67EB0108D8
:100340004F4622460120002100F035F817EB000946
:100350004E41201EA4F10104DFDC484631462A4606
:100360004346BDE8F09FD2B201E000F8012B491EE0
:10037000FBD270470022F6E710B513460A46044642
:100380001946FFF7F0FF204610BD30B50B46014679
:1003900000202022012409E021FA02F59D4205D324
:1003A00003FA02F5491B04FA02F52844151EA2F1CE
:1003B0000102F1DC30BD202A04DB203A00FA02F110
:1003C000002070479140C2F1200320FA03F3194343
:1003D00090407047202A04DB203A21FA02F00021E5
:1003E000704721FA02F3D040C2F120029140084345
:1003F000194670472DE9FE4F804681EA0300C00F81
:100400000C46009021F0004123F00045B8EB0200BB
:10041000A94105D24046214690461C460B4602465D
:1004200023F00040104347D0270DC7F30A00C3F361
:100430000A510290401A019040286BDAC3F313006E
:1004400040F4801B0098924620B10023D2EB030AAF
:1004500063EB0B0B01985946C0F140025046FFF781
:10046000AAFF06460D4650465946019A00F08CF9FF
:1004700010EB08006141002487EA115284EAE77317
:100480001A4340D0009A62B3019A012A4FEA0752F8
:1004900015DC001B61EB02014FF0004202EA07523B
:1004A000CDE90042001C41F5801132462B4600F098
:1004B0008CF903B0BDE8F08F40462146F9E7001BF8
:1004C00061EB0201001C41F5801300185B4120180C
:1004D000A2F5001747EB030140EAD570B6196D414C
:1004E00011E06D084FEA360645EAC0754FEA07523B
:1004F000001B61EB0201001C41F5801149084FEA25
:1005000030000019514132462B4603B0BDE8F04F90
:1005100000F04CB90098012240000023D0EB020209
:1005200063EBE073009821464FEAE074B8EB0000FB
:1005300061EB0401E9E783F000435BE781F00041F0
:1005400058E72DE9FE4F81EA030404F0004421F04E
:10055000004100944FF0000B23F0004350EA0104E7
:100560005ED052EA03045BD0C3F30A54C1F30A55C8
:100570002C44A4F2F3340194A0FB0254C1F3130100
:1005800041F48011C3F3130343F4801301FB0244CD
:1005900000FB034E840A970A44EA815447EA8357D2
:1005A000A4FB076802958D0A05FB07854FEA932C8B
:1005B00004FB0C542705029D4FEA065847EA1637FC
:1005C000B5EB08056EEB070C870E920E47EA811714
:1005D00042EA8312A7FB0201B6EB0B0164EB0004B5
:1005E0002B0D43EA0C335E1844EB1C50DA4651469F
:1005F000E7FB0201C5F313044FEA0B3343EA14533C
:100600004FEA0432019C43EA0603A4F10C0402946D
:10061000009CCDE900B400F0D8F803B0BDE8F08F3D
:1006200000200146F9E72DE9F04D81EA030404F0CA
:10063000004B21F0004514464FF0000A23F0004122
:1006400050EA050220D054EA01021DD0C5F30A5732
:100650000246C5F31303C1F31300C1F30A5640F475
:10066000801543F48013A7EB0608101BD64608F24A
:10067000FD3873EB050002D308F1010801E0921880
:100680005B41B8F1000F03DA00200146BDE8F08DB0
:1006900000204FF48011064684460EE0171B73EBD2
:1006A000050705D3121B63EB050306434CEA010C57
:1006B00049084FEA300092185B4150EA0107EDD13A
:1006C00052EA030012D082EA040083EA05010843DB
:1006D00005D0101BAB4106D20122002306E0002208
:1006E0004FF0004302E06FF0010253101AEB0600D6
:1006F0004CEB085110EB0A0041EB0B01BDE8F04D4B
:1007000000F054B8C1F30A52C1F3130140F2FF33B1
:1007100041F480119A4202DA00200146704740F20B
:1007200033439A42A2F2334202DC5242FFF752BEF6
:10073000FFF741BE30B5041E71F1000404DB4FF039
:100740000044404264EB0101141E73F1000405DB18
:100750001C464FF00043524263EB0403994208BF2A
:10076000904230BD064C074D06E0E06840F00103C2
:1007700094E8070098471034AC42F6D3FFF7AAFD7F
:1007800088640008A8640008202A06DBCB17203AFA
:1007900041FA02F043EAE07306E041FA02F3D04086
:1007A000C2F12002914008431946704710B5141E4B
:1007B00073F1000408DA401C41F1000192185B411A
:1007C0001A4301D120F0010010BD2DE9F04D9246F1
:1007D0009B4611B1B1FA81F202E0B0FA80F2203208
:1007E0009046FFF7E8FD04460F4640EA0A0041EA5A
:1007F0000B0153465A46084313D0114653EA0100F1
:1008000019D0C8F140025046FFF7E4FD05460E46F8
:10081000504659464246FFF7CEFD084305D0012019
:1008200004E020463946BDE8F08D0020054346EA45
:10083000E0762C4337430A986305E40AA0EB0800EE
:100840000022FD0A44EA47540A3002D5002001463E
:10085000E9E7010510196941DDE908450019694119
:10086000BDE8F04DA2E7000010B50446006840F472
:1008700080702E49884214BF2E482D48006810F41D
:10088000403F0DD003F0B6F96168B1F5803F05D067
:10089000B1F5403F1FD0B1F5003F1DD1090C17E065
:1008A0004FF40020002102F0C7FA6168A1F5802210
:1008B0004FEAB2420A2A0FD8DFE802F0060606061F
:1008C00006062E30323436006FF0010202EA514142
:1008D000B0FBF1F000E080081749884205D8206895
:1008E000816821F44071816010BD1449884206D8A6
:1008F00020680122816862F30921816010BD2168AE
:100900000F4A9042886803D8022262F3092001E06E
:1009100040F44070886010BD0009DDE74009DBE766
:100920008009D9E7C009D7E7000AD5E700210240CE
:10093000082302400863025821BCBE0041787D01B3
:1009400081F0FA020146806B026E12F0500F026EC7
:1009500005D0D2060ED4806DC26C0846104742F412
:100960000071016601680A681207CA6804D4910719
:1009700013D107E000F08CBD12F4406F0DD1C968AF
:1009800089040AD4016E21F480710166016EC904E4
:1009900003D4016E41F00101016600F063BD806B7C
:1009A000016E41F040010166416E41F00401416673
:1009B00000F06EBD806B00F065BD0000B0B5016851
:1009C0000446886880078A684FF0000027D412F038
:1009D000010224D0886800F00D00012816D1886833
:1009E000384A1040023088600320086001F04EFF52
:1009F000054620688068C00712D001F047FF401B01
:100A00000328F6D320688068C007F2D0206E40F03B
:100A100010002066606E40F0010060660120B0BDED
:100A20000020B0BDF8B5044600688168C90746D10A
:100A3000244E816806F17F02114209D0206E40F0F9
:100A400010002066606E40F001006066012037E013
:100A50008168314041F00101816001F017FF1A4ABD
:100A600002F580732168194F994202F5407508BF5D
:100A70002F46914208BF2F4699420A4604BF42F2D0
:100A80000002C4F202028A420546B86818BF10F09C
:100A90001F0014D10868C00711D18868C00704D1AD
:100AA0008868304040F00100886001F0EFFE401B94
:100AB00021680328EED30868C007EBD1BEE7002009
:100AC00001B0F0BDC0FFFF7F00200240006302586C
:100AD000FEE70000014801F053B800BFEC0000241D
:100AE0000168CA4A914223D0C94A91421CBFC94AEF
:100AF00091421DD0C84A91421CBFC84A914217D0AA
:100B0000C74A91421CBFC74A914211D0C64A91427E
:100B10001CBFC64A91420BD0C54A91421CBFC54A70
:100B2000914205D0C44A91421CBFC44A91421AD195
:100B300080B56FF00F02DFF848C052FA81F2182337
:100B4000B2FBF3F340F2FF3E21EA0E015F2A03F00D
:100B500007031CF80330C36588BF0431BDE880403B
:100B6000816508467047B64A9142E1D0B64A914243
:100B7000DED0B44A9142DBD021F0FF01F0E700BFA4
:100B8000406400080268B1498A421F491CBFB04B4B
:100B90009A4205D0AF4B9A421CBFAF4B9A4213D139
:100BA000D3B2A3F108021423B2FBF3F301F18002E4
:100BB00001EB830103F01F0301664FF0010C0CFAF7
:100BC00003F1C0E919217047A44B9A42E8D0A64B23
:100BD0009A42E5D0A24B9A42E2D0A1F55B7CD3B217
:100BE0006245DED0A3F110011823B1FBF3F1084BED
:100BF00003F1AA0C9A420B4688BF0833624528BF0E
:100C00000B460249D2E700BF0058025800080240D4
:100C10000F04024001790139072988BF7047026833
:100C20008A4B9A421CBF8A4B9A4205D0894B9A4202
:100C30001CBF894B9A420BD18A000E4B4FF0010C1E
:100C40001A444033C2660CFA01F1C0E91C31704706
:100C5000824B9A42F0D0844B9A42EDD0804B9A421C
:100C6000EAD0804B9A424FEA8102E6D0004BE5E79A
:100C70000009024000590258F0B5D0F800C0634C9A
:100C8000A445D0F858E03BD0614DAC451CBF614D48
:100C9000AC4535D0604DAC451CBF604DAC452FD048
:100CA0005F4DAC451CBF5F4DAC4529D05E4DAC459A
:100CB0001CBF5E4DAC4523D05D4DAC451CBF5D4DAA
:100CC000AC451DD05C4DAC451CBF5C4DAC4517D050
:100CD0005B4DAC451CBF5B4DAC4511D05A4DAC458E
:100CE0001CBF5A4DAC450BD0594DAC451CBF594D9E
:100CF000AC4505D0584DAC451CBF584DAC456DD1E9
:100D0000C66ED0E91957002E6F6002D0D0E91C568C
:100D10006E60A44529D03E4CA4451CBF3D4CA44563
:100D200023D03D4CA4451CBF3C4CA4451DD03C4C9D
:100D3000A4451CBF3B4CA44517D03B4CA4451CBF4D
:100D40003A4CA44511D03A4CA4451CBF394CA4459B
:100D50000BD0394CA4451CBF384CA44505D0384CA9
:100D6000A4451CBF374CA4451CD1C46D3F2504F0DD
:100D70001F04806805FA04F4CEF80840DCF800701F
:100D800027F48027CCF800704028CCF8043004D138
:100D9000CCF80820CCF80C10F0BDCCF80810CCF83A
:100DA0000C20F0BD2F4CA4451CBF284CA4450BD0F3
:100DB000274CA4451CBF274CA44505D0264CA44570
:100DC0001CBF264CA44516D1C46D012504F01F0498
:100DD000806805FA04F4CEF80440D5E7204DAC4510
:100DE0003FF48EAF1F4DAC453FF48AAF1E4DAC456E
:100DF0003FF486AFD5E71A4CA445E5D01A4CA4457C
:100E0000E2D0114CA445B0D0CBE700BF10000240A7
:100E1000280002404000024058000240700002409A
:100E200088000240A0000240B800024010040240C6
:100E3000280402404004024058040240700402406A
:100E400088040240A0040240B8040240085402583A
:100E50001C540258305402584454025858540258F2
:100E60006C54025894540258805402587047012020
:100E700001F032BCEFF3108072B6FEE77CB50023C0
:100E80000193044690F85C00012801D1022039E06A
:100E9000012084F85C00204615460E46FFF78EFDC3
:100EA0000028216E02D041F0100127E041F2021229
:100EB000154B91430231216621688A681A4006F475
:100EC000803305F0804633441A4402F100428A60C0
:100ED0000E4A8B68B3F1FF3F0CDC019B0133019399
:100EE000019B9342F5D3206E40F0100020F00201E8
:100EF000012003E0216E012262F30101216600213D
:100F000084F85C1002B070BDC0FFFE3F00F8C3253E
:100F100090F85C20012A01D1022137E01CB50122A2
:100F2000244C80F85C200022019200920368A342C6
:100F300022D1D4F80831A2681A4352071CD4D1F840
:100F400000C0D4F80823BCF1000F22F440431FD0A6
:100F50004A681A43C4F80823A268D4F808311A432F
:100F6000D20724D1D4F8082340F61F7389689A4326
:100F700041EA0C01114318E0016E41F020010166C5
:100F80000121002280F85C20BDE81C400846704723
:100F9000C4F80833A168D4F808211143C90706D161
:100FA000D4F8081340F61F729143C4F808130021C7
:100FB000E7E700BF002002402DE9F843002200923D
:100FC000044690F85C00012801D1022011E20120C2
:100FD00084F85C000D4620688168490700F10182B1
:100FE000EA4A9042EA4B29689046994613D0B1F1FB
:100FF000FF3F10DD91FAA1F2B2FA82F2194208BF66
:101000008A0E02F01F02012303FA02F2C3691A4397
:10101000890EC26100E0890E6A681F27C2F30123AE
:1010200002F01F0200EB83031E6B974001F01F01CB
:1010300026EA070791403943196381688268D2081C
:1010400042EA9101C90714D12968AA6803F0EEFCAD
:101050002068464640450ED0CE49096801F07041EF
:10106000B1F1805F0DD169690E23C26803EA5202B3
:1010700013E04646F2E069690623F26803EA920249
:101080000BE0C2686969D206C3684FEA530202D412
:1010900002F00E0201E002F008022F69042F2BD1AA
:1010A000B0425AD0016E01F0F8412A68B1EB826F6C
:1010B0004FEA826103D1026E22F000420266426E64
:1010C00002F0F8428A4203D1426E22F000424266A8
:1010D000826E02F0F8428A4203D1826E22F0004210
:1010E0008266C26E02F0F8428A4240F0B780C16E5A
:1010F00021F00041C166B1E000F16003B4462E6802
:10110000604501FA02F153F8272000F0868006F0CE
:10111000F84602F000423143114343F82710296991
:101120002A7E95F8217053F82160013A26F0004696
:10113000012F08BF06F1004643F82160B2FA82F1A0
:101140002A694909C902036902F01F0223F4F04326
:10115000914019430161664680E0306E306EC0F305
:101160008463286890FAA0F2B2FA82F7C0F384612F
:1011700010EA09003A4608BF0A4693420DD1306E84
:10118000CC4620F0004030662A6802EA0900C2F32B
:10119000846192FAA2F2B2FA82F7726E0028726E3D
:1011A0003B46C2F3846208BF0B469A420DD1706E73
:1011B00020F00040706648462A6802EA0900C2F33F
:1011C000846192FAA2F2B2FA82F7B26E0028B26E8D
:1011D0003B46C2F3846208BF0B469A420DD1B06E03
:1011E00020F00040B06648462A6802EA0900C2F3CF
:1011F000846192FAA2F2B2FA82F7F26E0028F26EDD
:101200003046C2F3846208BF0F46BA4226D1F06E60
:1012100020F00040F066304620E006F0F840084339
:1012200040F0004043F827000CF160022869664650
:10123000E96952F8203023F08073194342F82010F6
:10124000286995F8201052F8203023F00073012906
:1012500008BF03F1007342F8203060468168C90777
:1012600079D12968B042EA680ED002F01806D0F8A9
:10127000C03001EA090729FA06F6BB4337403B4371
:10128000CC46C0F8C0300DE0D6F8B03002F01806F9
:1012900001EA090729FA06F6BB4337403B43CC462F
:1012A000C8F8B030694B9A4252D191FAA1F2B2FA21
:1012B00082F2134611EA090708BF8B0E013303F0CF
:1012C0001E03092B4FEA91630CD8C7B14FF0806120
:1012D00001EB826101F0F843511C01F01F01012272
:1012E0008A4017E0E7B14FF0806101EB826101F0C5
:1012F000F843511C01F01F0101228A401BE001F05C
:10130000F84101F1806101F0F842591C01F01F0120
:1013100001238B401A4301EB410142EA015113E0E2
:1013200001F0F84101F1806101F0F842591C01F02F
:101330001F0101238B4001EB41011A43444B03EB96
:101340000151114341F00071AA6803F06FFB296855
:10135000B1F1FF3F01DD002048E03E4B03F5807214
:10136000206803F54077DF4D90423A4618BF08F5F4
:101370004072984208BF3A4640F48077AF42926884
:101380000AD19F68D3F808313B4307E00060025858
:10139000FFFF0F000010005CD8F80830DB0720D1F9
:1013A0002D4B994202F0E0732DD02C4DA94239D13A
:1013B00040454FF0000008BF12F4000116D1D8F8E4
:1013C0000803C64920F0E070184340F40000C8F854
:1013D0000803C1480068B0FBF1F0022101EB4000B6
:1013E0000CE0206E40F0200020660120002184F8EF
:1013F0005C1001B0BDE8F0830098013800900098BF
:101400000028F9D1A7E740454FF0000008BF12F0CF
:101410008071EBD1D8F8080320F0E070184340F059
:10142000807010E040454FF00000DFD10C4DA94224
:1014300008BF12F48001D9D1D8F8080320F0E07079
:10144000184340F48000C8F8080384E70000FF4711
:10145000000020FE00200240000021C3000052C70F
:10146000000084CBDFF824C0012304484FF4FA6263
:1014700003498CF8003000F0A1B900BF7C000024C3
:101480000000003801480121417070471800002415
:1014900070470000F8B500210028009136D00446BE
:1014A000006E30B9204600F029F90020606684F80B
:1014B0005C0020688168890003D58168854A1140F5
:1014C00081608168C90014D4824A816802F1805227
:1014D0001140824A41F0805181607F490968B1FB27
:1014E000F2F1013101E000990139009100990029E0
:1014F000F9D18168C9000BD4216E012541F010019A
:101500002166616E41F00101616602E00125DDE0C6
:1015100000258168C1F38001226E02F01002891853
:10152000216E03D041F010000125CEE021F481713D
:10153000EE4F023121668168C9071CD140F48073E7
:10154000684E674AB34206D11168BC46D2F80071B2
:101550003943674600E0B968C9070CD1B34202D1EC
:1015600002F53E7201E007F540726168936823F46A
:101570007C1319439160617EB842E26B42EA4133C9
:1015800003D0A16841EA030213E0D4E90221082A4A
:1015900043EA010305D00C2A05D01C2A05D11022EC
:1015A00006E0002204E0082202E0182A18BF002208
:1015B0001A4394F82010012942EA014204D1616AD9
:1015C000494B03EB41410A43A16A29B101F4787107
:1015D000E36A114341EA0302B842C16804D0434BB5
:1015E00019401143C16009E0414B19401143C160EA
:1015F000396921F04061626B114339618168826809
:10160000D20842EA9101C90751D1217EB8424FEA7E
:10161000813201D0216B02E094F838104900114367
:10162000C26844F203039A431143C16094F8441022
:101630000269012919D12F49B842A36C02EA0102BB
:1016400024D02D4901EB0341E36C1143226D194372
:10165000636D1143226C194341F00101016101697D
:1016600021F07041114301610BE022F001010161A1
:10167000B842016921F07041226C41EA0201016126
:1016800014D02046FFF7F0F8206810E0E16C1A4310
:10169000236D1143626D19431143226C41F0010126
:1016A0000161016921F070411143016138462169EE
:1016B000026B012922F00F0102D1E269013A1143C4
:1016C00001630121206E61F301002066284601B00C
:1016D000F0BD00BFC0FFFF5F0C000024400D030001
:1016E00008200240002102400000FEFF03C0F0FF7E
:1016F0000740F0FF1EF800FC0000FFFF70B5B0B01F
:10170000044602A8B821FEF735FE206878498842D1
:101710004BD14FF400200026029005200396049040
:1017200064200590042006900220CDE90700802067
:10173000CDE9090602A80B962A9601F0B3FC08B180
:10174000FFF798FB1A48016841F020010160016829
:1017500001F0200101910199816841F0010181604E
:101760004FF00071806800F00100019001984FF087
:10177000007002F08FFE0F4D0F48092185E84300ED
:101780004FF48060EE604FF4006128614FF4005028
:10179000C5E905102846C5E907666E6200F0A8FC99
:1017A00008B1FFF767FBA565AC6330B070BD00BF43
:1017B000D8440258EC000024100002402DE9F84FF4
:1017C0004B4D05F5407703688346484C05F5807618
:1017D0003846B34218BF04F54070AB4208BF3846E4
:1017E00080689B685B0704D489469BF85C100129DC
:1017F00003D1022001B0BDE8F08F00F01F0A0120E4
:10180000BAF1090F8BF85C0051D800FA0AF040F2E7
:10181000212108424BD058469046FFF703F918B1F2
:1018200000218BF85C10E5E7DBF8001040F6017250
:10183000DBF86000B14220EA020018BF0D4600F557
:101840008070BAF1000FCBF8600018BF8D4205D14F
:10185000DBF8600020F48010CBF86000DBF860005B
:101860000022C004234B4FF00000234E44BFDBF89E
:10187000640020F00600CBF86400DBF85800A142B9
:10188000C0E90F361D4BC3644FF01C030B608BF88F
:101890005C204A6842F010024A600DD00C46DBF82A
:1018A000302054F80C3F23F003031A4310E00020CB
:1018B0008BF85C0001209DE79BF8382054F80C3F22
:1018C00023F0030343EA42022260226842F001024D
:1018D000226040314A46434600F0BEFDDBF800106E
:1018E000074B8A681A4004328A6083E70060025816
:1018F0000020024045090008B50900089F090008BA
:10190000C0FFFF7F2DE9F041044600284FF00100A1
:1019100000F09E800D46002900F09A806079012831
:101920004FF0020000F09480012161719046207117
:101930002868042846D100F0A9FFB8F1000F074637
:1019400012D02068416BB1F1FF3F0ADC00F09EFF2E
:10195000C01B0228F5D32068406BB0F1FF3FF0DCDC
:1019600010E0A969416417E03A4E2068416B3142AA
:1019700010D000F08BFFC01B0228F6D32068406B0C
:101980003042F2D0206940F008002061032020712D
:10199000BDE8F081A969016408F01001836C40F290
:1019A000FF322F6A8A4023EA0202EB698B401A4316
:1019B0008264FF22C36C8A4023EA020207FA01F123
:1019C0001143C164286908F010020128216808D178
:1019D0001F208B6B904023EA00006B6993401843F3
:1019E00088630720CB6B9040EF6823EA000C012F3F
:1019F0004FF0000003D0022F03D1012705E000279C
:101A000003E0AF68B7FA87F77F092E68AB68374302
:101A10003B436F68934043EA0C03CB634FF480432E
:101A200093400E6826EA03030B6040F6FE730E68CF
:101A3000934026EA030397403B430B60C02303FA1D
:101A400002F20B6823EA02020A600121217160712F
:101A5000BDE8F0810080002078B110B5044600791F
:101A600020B900206071204600F00AF802202071A1
:101A7000002001212061217110BD0120704700006C
:101A800010B586B0044601A81421FEF773FC206847
:101A9000104988421CD11048816841F00051816092
:101AA000816801F0005100910099016841F0010145
:101AB000016001A9006800F001000090009830204A
:101AC00001900320029000200390044800F00EFED5
:101AD00006B010BD00740040E044025800000258F7
:101AE00081B04FF0000C0028CDF800C007D000688E
:101AF0000029009005D000981044143004E0012023
:101B000006E0009810440830009000980360002020
:101B100001B07047002821D04279012A4FF002021B
:101B20002CD080B54FF0010C80F805C001F0100EEC
:101B300002710CFA0EFC02680029136843EA0C03D8
:101B4000136011680CD0022301F4781103FA0EF32C
:101B500099420DD1516841F0020108E001220DE0E7
:101B600001F03E01022903D1516841F001015160A9
:101B70000121002201714271BDE88040104670478A
:101B80002DE9FC410021C64F01910446DFF8B01D4C
:101B90000068A56DB842D1F800802E6829682AD067
:101BA000C04A90421CBFC04A904224D0BF4A9042D3
:101BB0001CBFBF4A90421ED0BE4A90421CBFBE4AC4
:101BC000904218D0BD4A90421CBFBD4A904212D0EC
:101BD000BC4A90421CBFBC4A90420CD0BB4A9042C7
:101BE0001CBFBB4A904206D0BA4A90421CBFBA4AB8
:101BF000904240F0A181E16D082201F01F018A406E
:101C0000324236D0BC46B8424FF0040324D0A54F30
:101C1000B8421CBFA44FB8421ED0A44FB8421CBF4C
:101C2000A34FB84218D0A34FB8421CBFA24FB8422E
:101C300012D0A24FB8421CBFA14FB8420CD0A14F46
:101C4000B8421CBFA04FB84206D0A04FB8421CBF3C
:101C50009F4FB84240F0988107681F42674608D0FE
:101C6000036823F004030360AA60626D42F001027E
:101C7000626501228A4032422ED0B84224D0894B7C
:101C800098421CBF884B98421ED0884B98421CBF7C
:101C9000874B984218D0874B98421CBF864B98427E
:101CA00012D0864B98421CBF854B98420CD0854B76
:101CB00098421CBF844B984206D0844B98421CBF6C
:101CC000834B984240F06D8143691B0604D5AA609E
:101CD000626D42F00202626504228A4032422ED0D6
:101CE000B84224D06F4B98421CBF6F4B98421ED015
:101CF0006E4B98421CBF6E4B984218D06D4B984269
:101D00001CBF6D4B984212D06C4B98421CBF6C4B61
:101D100098420CD06B4B98421CBF6B4B984206D03C
:101D20006A4B98421CBF6A4B984240F04881036856
:101D30009B0704D5AA60626D42F00402626510221E
:101D400002FA01F131423FD0B8424FF0080224D0EC
:101D5000D24B98421CBFD24B98421ED0D14B9842D6
:101D60001CBFD14B984218D0D04B98421CBFD04BCF
:101D7000984212D0CF4B98421CBFCF4B98420CD008
:101D8000CE4B98421CBFCE4B984206D0CD4B9842CA
:101D90001CBFCD4B984240F020810368134213D002
:101DA000A96001684903016806D4C90506D4016821
:101DB00021F00801016001E0080301D4216C00E07A
:101DC000A16C09B120468847E06D00F01F0120207A
:101DD00000FA01F2324200F0858020681023B842F8
:101DE00024D0AE4EB0421CBFAD4EB0421ED0AD4E60
:101DF000B0421CBFAC4EB04218D0AC4EB0421CBF7B
:101E0000AB4EB04212D0AB4EB0421CBFAA4EB04255
:101E10000CD0AA4EB0421CBFA94EB04206D0A94E6B
:101E2000B0421CBFA84EB04240F0E48007681F4299
:101E300058D0AA6094F83520042A02681BD122F0F9
:101E400016020260426922F080024261226C0AB9E5
:101E5000A26C1AB1026822F0080202603F2088409A
:101E6000A860012084F835000020216D002984F845
:101E700034005DD15EE0510301680CD4C9052DD456
:101E8000016821F010010160012084F83500002074
:101E900084F8340022E0080320D4616C1FE000BF06
:101EA000100002402800024040000240580002405A
:101EB0007000024088000240A0000240B8000240CA
:101EC000100402402804024040040240580402402A
:101ED0007004024088040240A0040240E16B09B192
:101EE00020468847606D28B3606DC0071ED04FF450
:101EF0001650B8FBF0F0042184F8351021680A6808
:101F000022F001020A60019A01328242019202D853
:101F10000A68D207F7D10868C0074FF0030008BF6E
:101F2000012084F83500002084F83400E16C09B108
:101F300020468847BDE8FC81664A90421CBF664A3D
:101F400090420CD0654A90421CBF654A904206D030
:101F5000644A90421CBF644A904240F091800268FB
:101F6000E36D570703F01F0351D504279F4017EA7D
:101F700001064CD011046F6060D4910662D40168F0
:101F800021F0040101605DE0504FB8423FF464AEBF
:101F90004F4FB8423FF460AE544FB84218BF0823C9
:101FA0005AE64A4B98423FF48FAE494B98423FF471
:101FB0008BAE4E4B98423FF487AE02688CE6434BA3
:101FC00098423FF4B4AE424B98423FF4B0AE474B18
:101FD00098423FF4ACAE0268B1E63C4B98423FF405
:101FE000DCAE3B4B98423FF4D8AE404B984218BF12
:101FF0000422D2E6354EB0423FF418AF344EB04220
:102000003FF414AF394EB04218BF02230EE79707D2
:102010001AD502279F4017EA010615D011046F60F8
:1020200028D491062AD4016821F00A010160012018
:1020300084F83500002084F834001FE0D00301D478
:10204000A16C74E7216C72E712077FF573AF082269
:102050009A4011403FF46EAF0168012221F00E0159
:10206000016002FA03F068600020626584F83520A0
:10207000E16CFBE6D00301D4616C58E7E16B56E7F5
:10208000F14A90423FF46BAFF04A90423FF467AFA1
:10209000EF4988423FF4AFAD4CE700BF2800024053
:1020A0004000024058000240700002408800024098
:1020B000A0000240B8000240100402402804024080
:1020C0004004024058040240700402408804024068
:1020D000A004024094540258085402581C54025858
:1020E000305402584454025858540258B80402401C
:1020F000F8B5044600F0CAFB002C7AD005462068EB
:10210000C24FB8422AD0C24988421CBFC149884246
:1021100024D0C14988421CBFC04988421ED0C04952
:1021200088421CBFBF49884218D0BF4988421CBFA3
:10213000BE49884212D0BE4988421CBFBD49884270
:102140000CD0BD4988421CBFBC49884206D0BC495E
:1021500088421CBFBB49884240F0F280022184F8CB
:102160003510002184F83410016821F0010101606C
:1021700005E000F08BFB401B052835D8206801687E
:10218000C907F6D10168B34A1140D4E902231143CB
:102190002269194363691143A2691943E36941EA5A
:1021A0000205616A2B43256A042943EA050303D12A
:1021B000D4E90B562B4333436568292D1DD32F2DAE
:1021C00019D3A5F13F06042E15D3472D15D325F0BD
:1021D0000306742E0FD0492D24BFA5F14F06032E00
:1021E00098BF43F4801308E020206065032084F842
:1021F00035000120A2E043F4801303600429436901
:1022000023F0070341EA030127D1D4E90A53002B45
:1022100041EA050121D0B2F5005F06D08AB9022D4E
:1022200012D0012D07D07DB117E0032D15D8DFE8BE
:1022300005F00E0B0E02A3F1C072B2FA82F252093F
:1022400004E0032D03D308D1C3F300622AB1402078
:102250006065012084F8350070E041612046FEF79A
:102260003FFCE16D3F2201F01F0102FA01F18160A4
:102270002068B8423CD0664988421CBF6549884204
:1022800036D0654988421CBF6449884230D06449D1
:1022900088421CBF634988422AD0634988421CBFD8
:1022A0006249884224D0624988421CBF6149884201
:1022B0001ED0614988421CBF6049884218D06049DD
:1022C00088421CBF5F49884212D0F94988421CBF2E
:1022D000F84988420CD0F84988421CBFF749884227
:1022E00006D0F74988421CBFF649884240F08080FA
:1022F0002046FEF747FCA068802802D100206060DD
:1023000000E06068C2B2216E0138D4E919370728AD
:102310000A605F6009D82046FEF77CFC04F16C027D
:1023200007CA002303604A6003E00020C4E91B00E1
:10233000606700200121606584F8351001B0F0BDB0
:10234000E24988421CBFDB4988420BD0DA49884207
:102350001CBFDA49884205D0D94988421CBFD949F7
:10236000884239D1022184F83510002184F83410D4
:102370000168A2686FF31011A2F18003B3FA83F32E
:102380005B09402AE2684FEA833341EAD20108BF81
:10239000102322691943636941EAD201A26941EA23
:1023A000D301E36941EAD201226A41EAD30141EA59
:1023B000121140F808191421C0B2B0FBF1F08000EE
:1023C000E0652046FEF78CFBE16D012201F01F0164
:1023D00002FA01F141604BE7BB498842C2D0BC49D7
:1023E0008842BFD0B24988423FF4B8AE4020FCE6F4
:1023F000B54988423FF47CAFB44988423FF478AF96
:10240000B34988423FF474AF93E700BF1000024025
:102410002800024040000240580002407000024084
:1024200088000240A0000240B800024010040240B0
:102430002804024040040240580402407004024054
:1024400088040240A00402406C5402588054025890
:10245000B80402403F8010FEB0B5002800F0E780CD
:10246000054690F83400012801D10220B0BD0120BA
:1024700085F8340095F83500012840F0D28002201C
:1024800085F83500002068652868046824F0010498
:1024900004602846FEF7F0FB286876498842024629
:1024A0003CD0754A9042024638D0744A9042024667
:1024B00034D0734A9042024630D0724A904202466B
:1024C0002CD0714A9042024628D0704A904202466F
:1024D00024D06F4A9042024620D06E4A9042024673
:1024E0001CD06D4A9042024618D06C4A9042024677
:1024F00014D06B4A9042024610D06A4A904202467B
:102500000CD0694A9042024608D0684A904202467E
:1025100004D0674A904240F08C80654A12680B23D1
:1025200063F3440202602A6C1AB1026842F00802A6
:10253000026088423BD0504A90421CBF4F4A9042B2
:1025400035D04F4A90421CBF4E4A90422FD04E4A3F
:1025500090421CBF4D4A904229D04D4A90421CBF28
:102560004C4A904223D04C4A90421CBF4B4A904266
:102570001DD04B4A90421CBF4A4A904217D04A4A4B
:1025800090421CBF494A904211D0494A90421CBF18
:10259000484A90420BD0484A90421CBF474A90425A
:1025A00005D0474A90421CBF464A904257D12A6EF6
:1025B0001368DB0303D5136843F480731360EA6E7A
:1025C0001AB1136843F480731360884223D02A49F8
:1025D00088421CBF294988421DD0294988421CBF16
:1025E0002849884217D0284988421CBF2749884279
:1025F00011D0274988421CBF264988420BD0264962
:1026000088421CBF2549884205D0254988421CBF05
:10261000244988421AD1016841F00101016000207B
:10262000B0BD4FF400606865002085F834000120DB
:10263000B0BD0268052363F3430202602A6C002ADE
:102640003FF477AF026842F0040271E7164988420E
:10265000E1D017498842DED014498842DBE71A4AA4
:102660009042A4D0194A9042A1D0194A90429ED0DB
:10267000D1E700BF100002402800024040000240A5
:10268000580002407000024088000240A000024052
:10269000B8000240100402402804024040040240F6
:1026A000580402407004024088040240A004024022
:1026B000B8040240085402581C54025830540258BE
:1026C00044540258585402586C54025894540258B6
:1026D000805402587047000003490A68024208BF4C
:1026E00070470860FFF7F6BF880000582DE9FE4FDD
:1026F000604A0A27604C019002444FEAB223A0428C
:1027000008BF0927002600204FF0000B082B38BF18
:102710004FEAB2270097A4E0012303FA0BF412EA70
:10272000040C00F09A80D1F80480324608F0030EC1
:10273000AEF10107012F16D8019E0323B76803FAF3
:1027400000F5CB68AF4383403B43B3604FEA4B098E
:102750007368C8F30017A34307FA0BF423436FEA27
:10276000050A73600CE00323019E8340BEF1030F52
:102770006FEA030A814603D181464FF0030E1FE042
:10278000F368BEF1020F8C6803EA0A0304FA09F445
:1027900043EA0403F36013D16FF0030303EA5B031E
:1027A000334402F01C071D6A0F24BC40A5430C698A
:1027B00004FA07F72F431F62D1F8048008F0030ED4
:1027C00033680EFA09F703EA0A033B4318F4403F63
:1027D0003360164641D0844B1F46284A1B680F249D
:1027E00043F002033B604FF0B04E3B6803F002033E
:1027F00002932BF00303029F06F00C079D58BC4088
:10280000A543009C04FA07F72F439F50DEF80030E1
:102810004F6843EA0C05FC0258BF23EA0C05CEF8CA
:102820000050134B1A461B68BC0243EA0C0558BF04
:1028300023EA0C051560D2F88030BC0343EA0C058E
:1028400058BF23EA0C05C2F88050D36FFF0343EA58
:102850000C0558BF23EA0C05D5670BF1010B0230BC
:1028600004360A6832FA0BF77FF456AFBDE8FE8FE4
:10287000040000580000FEA7002402580804005875
:10288000002A08BF090481617047000005480068FC
:10289000704700BF2948007802490A681044086060
:1028A000704700BF8002002480B5032000F0CCF800
:1028B00001F0E0F90F490A68C2F303220968934B5B
:1028C00001F00F019A5C595C02F01F02D0400A4AE5
:1028D00001F01F0120FA01F11160194908600F2071
:1028E00000F00CF808B1012080BD00F06FF8002066
:1028F00080BD00BF184402581000002470B50F4E70
:102900003178C1B104464FF47A70B0FBF1F00C4954
:102910000968B1FBF0F001F0C7FD0F2C4FF0010585
:102920000AD848B94FF0FF3000222146002500F0B8
:102930006BF8746000E00125284670BD0400002497
:102940000C00002410B54278124C90F800C02260B0
:10295000A26822F00102A26042686260C27A037B30
:102960001206817A42EA0372437B42EAC141827BCA
:1029700041EA8341C37B41EA4241427A41EA034151
:10298000007A41EA022141EA400040EA0C00A060DE
:1029900010BD00BF98ED00E0BFF35F8F0A480168EB
:1029A00021F48031016000210167704740F001008F
:1029B00005490867086840F480300860BFF34F8F0E
:1029C000BFF36F8F704700BF24ED00E081B0064871
:1029D000016841F002010160006800F0020000900F
:1029E000009801B0704700BFF4440258002808DB8B
:1029F00000F01F01012202FA01F1024A400942F8E7
:102A00002010704700E100E080B5154B1B68C3F350
:102A1000022C8CF0070EBEF1040F28BF4FF0040EFD
:102A2000BCF103034FF0FF3C38BF00230CFA0EFE4D
:102A300021EA0E0199400CFA03F39A431143BDE8D1
:102A4000804002F0A7BD00BF05490A684FF6FF03AA
:102A50001A4060F30A22034810430860704700BF21
:102A60000CED00E00000FA0570B51F4E3168044619
:102A700001F007013068062911D120F03F00204302
:102A80003060FFF703FF054656F8080C80040CD4AD
:102A9000FFF7FCFE401BB0F57A7FF5D91FE000F090
:102AA0003F00001B18BF012070BDA4F11D011129BA
:102AB0004FF0000014D8012202FA01F111F0031FB7
:102AC0000ED0FFF7E3FE0446306800F01100112835
:102AD00007D0FFF7DBFE001BB0F57A7FF4D90120A9
:102AE00070BD002070BD00BF0C48025880B501F0D9
:102AF00081F80549054A0968C1F30211515C01F0EA
:102B00001F01C84080BD00BF20440258186400085F
:102B100010B53D4CA36AA26AC2F3051CE26A616B60
:102B200002F00102C1F3CC01BCF1000F02FB01F184
:102B300000EE101AB8EE400A0CD003F00303022B8B
:102B40000CD0012B0DD013B9216889060CD49FED50
:102B5000311A13E00021C0E9001153E09FED2C1A57
:102B60000CE09FED2A1A09E021682B4AC1F3C1014C
:102B700022FA01F101EE101AB8EE411A02EE10CA63
:102B80009FED263AB8EE422A216B6FF35F2181EE6A
:102B9000021A02EE101AB8EE422A216BC1F3462146
:102BA00000EE032AB7EE000A03EE101A32EE002AF6
:102BB000B8EE433A21EE021A33EE002A81EE022AE1
:102BC000BCEEC22A80ED002A216BC1F3064102EE61
:102BD000101AB8EE422A32EE002A81EE022ABCEE2A
:102BE000C22A80ED012A216BC1F3066102EE101AA0
:102BF000B8EE422A32EE000A81EE000ABCEEC00AAC
:102C000010EE101A816010BD004402580024744A6E
:102C100020BCBE4B0024744C0090D003000000394F
:102C200010B53C4CA36AA26AC2F3053CE26AC2F347
:102C30000012E16BC1F3CC01BCF1000F02FB01F10A
:102C400000EE101AB8EE400A0AD003F00303022B7C
:102C50000AD063B9216889060CD49FED311A13E0BC
:102C60000021C0E9001153E09FED2C1A0CE09FED0C
:102C70002A1A09E021682B4AC1F3C10122FA01F1A5
:102C800001EE101AB8EE411A02EE10CA9FED263A74
:102C9000B8EE422AA16B6FF35F2181EE021A02EEB9
:102CA000101AB8EE422AA16BC1F3462100EE032AA6
:102CB000B7EE000A03EE101A32EE002AB8EE433ADD
:102CC00021EE021A33EE002A81EE022ABCEEC22A5D
:102CD00080ED002AA16BC1F3064102EE101AB8EE96
:102CE000422A32EE002A81EE022ABCEEC22A80ED90
:102CF000012AA16BC1F3066102EE101AB8EE422A56
:102D000032EE000A81EE000ABCEEC00A10EE101A84
:102D1000816010BD004402580024744A20BCBE4BA0
:102D20000024744C0090D0030000003910B53C4CD6
:102D3000A36AA26AC2F3055CE26AC2F30022616C74
:102D4000C1F3CC01BCF1000F02FB01F100EE101A3F
:102D5000B8EE400A0AD003F00303022B0AD063B98D
:102D6000216889060CD49FED311A13E00021C0E9D7
:102D7000001153E09FED2C1A0CE09FED2A1A09E098
:102D800021682B4AC1F3C10122FA01F101EE101AA8
:102D9000B8EE411A02EE10CA9FED263AB8EE422A6A
:102DA000216C6FF35F2181EE021A02EE101AB8EE69
:102DB000422A216CC1F3462100EE032AB7EE000A35
:102DC00003EE101A32EE002AB8EE433A21EE021A50
:102DD00033EE002A81EE022ABCEEC22A80ED002AE0
:102DE000216CC1F3064102EE101AB8EE422A32EE0F
:102DF000002A81EE022ABCEEC22A80ED012A216C53
:102E0000C1F3066102EE101AB8EE422A32EE000A51
:102E100081EE000ABCEEC00A10EE101A816010BDEF
:102E2000004402580024744A20BCBE4B0024744C59
:102E30000090D00300000039F8B580F400220A4366
:102E40005ED080F480620A4300F06B8080F4006200
:102E50000A4300F0738080F480520A4325D080F446
:102E600000520A4330D080F480420A4300F075805B
:102E700080F400420A4300F07F8080F480320A43ED
:102E800031D080F48070084340F0E4808049086DC0
:102E900000F00702042A00F2DD808148DFE812F02A
:102EA0005B007C008300DB008B007949086DC0F378
:102EB0000232042A00F2CE807948DFE812F04C009A
:102EC0006D007400CC007C007148016DC1F30241BB
:102ED000052900F2BF80DFE801F003888F96A05B30
:102EE00000F0A8FEB7E06A48C16CC903006840F171
:102EF000AF80000140F1AE8001A8FFF791FEA4E091
:102F00006348816D01F44031B1F5003F00F08B80E2
:102F1000B1F5803F00F09380002940F09B8000686D
:102F20003BE05B49886DC0F34252042A00F2928074
:102F30005B48DFE802F01031389040005449886D5A
:102F4000C0F30262042A00F285805548DFE802F0EF
:102F500003242B83330008687AE04D48816DC1F368
:102F60000271052900F27680DFE801F0033F464D4B
:102F70005712FFF7BBFD6EE04548016D01F040516F
:102F8000B1F1005F31D0B1F1805F60D0002961D133
:102F900000684049800343E0086800015AD501A851
:102FA000FFF73EFE05E00868800053D501A8FFF753
:102FB000BDFE01984FE0C86C10F040520B680868E5
:102FC00002D113F0040322D1B2F1805F02D110F4D8
:102FD00080704DD1086810F400301CBF47F64000E7
:102FE000C0F27D10B2F1005F4EE00068000131D503
:102FF00001A8FFF715FE33E0006880002AD501A87C
:10300000FFF794FE2CE00168490723D50068C0F360
:10301000C100224921FA00F01DE000681E49C005E8
:1030200001EAE07017E0C16C11F0405103680268DA
:1030300018D113F0040315D0C2F3C100E9E700680A
:10304000800007D501A8FFF771FE039803E0006830
:10305000800102D4002004B080BD01A8FFF758FD14
:103060000298F8E7B1F1805F04D112F4807201D0C8
:103070000948F0E7006810F400301CBF47F6400034
:10308000C0F27D10B1F1005F18BF0020E3E700BF80
:103090000044025840787D0100093D000090D003B3
:1030A0000080BB002DE9F0470446C078AF4F000711
:1030B00022D5606E4FEA3051032908D8DFE801F0CD
:1030C00002090F17F96941F40031F9610FE0012697
:1030D00013E004F10800022101F0BEFC04E004F159
:1030E0002800022101F038FD064630B9606E396CC7
:1030F00021F440110843386400266078BA46C007BE
:1031000001D135462AE0A06D04280BD83546DFE80A
:1031100000F0030C12181800F869354640F400302E
:10312000F8610EE00125012719E004F108000021F3
:1031300001F092FC04E004F12800002101F00CFDF4
:103140000546002D2F460AD1DAF84000002520F070
:103150000700A16D08435246CAF840003746607820
:1031600040072FD5D4F8A4004FEA705005280CD89A
:10317000DFE800F0030E141A1A1ADAF81C005146A0
:1031800040F40030CAF81C000EE0012501261AE0C8
:1031900004F10800002101F05FFC04E004F12800C4
:1031A000002101F0D9FC0546002D2E460BD1DAF89E
:1031B0004800002520F46000D4F8A41008435246CB
:1031C000CAF848003E46607800072FD5D4F8A8001A
:1031D0004FEA306005280CD8DFE800F0030E141A1F
:1031E0001A1ADAF81C00514640F40030CAF81C00E4
:1031F0000EE0012501271AE004F10800002101F08A
:103200002BFC04E004F12800002101F0A5FC054698
:10321000002D2F460BD1DAF84800002520F0E060A1
:10322000D4F8A81008435246CAF848003746E07858
:10323000800726D5E06C4FEA301003280BD8DFE872
:1032400000F013020D13DAF81C00514640F4003070
:10325000CAF81C0008E00125012613E004F108006B
:10326000022101F0F9FB0546002D2E460AD1DAF8BD
:103270003C00002520F03000E16C08435246CAF8BB
:103280003C003E466078C0062DD5E06D4FEA3030F8
:1032900004280CD8DFE800F0030E141A1A00DAF83C
:1032A0001C00514640F40030CAF81C000EE0012515
:1032B000012719E004F10800002101F0CDFB04E032
:1032C00004F12800002101F047FC0546002D2F469F
:1032D0000AD1DAF84000002520F4E040E16D08430F
:1032E0005246CAF8400037466078800625D5206EE1
:1032F0004FEA304005280AD8DFE800F012030C122C
:10330000121204F10800012101F0A6FB07E00125DB
:10331000012613E004F12800012101F01DFC0546FF
:10332000002D2E460AD1DAF84000002520F4E020D6
:10333000216E08435246CAF840003E466078400677
:103340002AD5D4F8AC004FEA307005280AD8DFE857
:1033500000F015030F15151504F10800012101F007
:103360007BFB0AE00125012717E000BF104402584B
:1033700004F12800012101F0EFFB0546002D2F4646
:103380000BD1DAF84800002520F0E040D4F8AC106A
:1033900008435246CAF8480037466078000622D5EE
:1033A000E06E98B1B0F1005F0AD0B0F1805F2ED12D
:1033B000DAF81C00514640F40030CAF81C0005E061
:1033C00004F10800012101F047FB0546002D2E46BF
:1033D0000AD1DAF84000002520F04050E16E0843A1
:1033E0005246CAF840003E46E078C00702D1B046D7
:1033F000574624E0A06C574603280BD8DFE800F0BE
:1034000014020E14F86940F40030F8610CE0012554
:103410000126E9E701254FF0010810E004F108005A
:10342000022101F019FB0546002DA84607D1F86BD3
:10343000002520F00300A16C0843B046F863A07893
:10344000400601D4474617E0D7F8F00340F48070F7
:10345000C7F8F003FFF71AFA0646D7F8F003C005DD
:1034600007D4FFF713FA801B6428F6D90325032736
:1034700002E0002D2F4612D02078C00750D0A06F58
:103480004FEAF000052835D8DFE800F03D03373D6E
:103490003D3D04F10800012101F0DEFA32E0DAF8E6
:1034A00060105346D4F8B000414011F4407F0BD077
:1034B000196E1A6E21F4407142F480321A661A6E47
:1034C00022F480321A661966B0F5807F40F0668279
:1034D000FFF7DCF9064641F2883903250327DAF8BD
:1034E0006000800700F15782FFF7D0F9801B484544
:1034F000F5D9C1E70125012613E004F128000121D7
:1035000001F02AFB0546002D2E460AD1DAF84400C8
:10351000002520F03800A16F08435246CAF8440045
:103520003E462078800723D5606F05280AD8DFE85B
:1035300000F012030C12121204F10800012101F034
:103540008BFA07E00125012713E004F1280001218F
:1035500001F002FB0546002D2F460AD1DAF844009F
:10356000002520F00700616F08435246CAF8440066
:1035700037462078400725D5D4F8900005280AD88A
:10358000DFE800F012030C12121204F1080001210E
:1035900001F062FA07E00125012614E004F1280099
:1035A000012101F0D9FA0546002D2E460BD1DAF89B
:1035B0004800002520F00700D4F890100843524638
:1035C000CAF848003E462078800627D5D4F88C00FB
:1035D0004FEA307005280AD8DFE800F012030C1219
:1035E000121204F10800002101F036FA07E001256B
:1035F000012714E004F12800022101F0ADFA05468C
:10360000002D2F460BD1DAF84400002520F0E040D1
:10361000D4F88C1008435246CAF844003746207844
:10362000400627D5D4F898004FEAB02005280AD8DC
:10363000DFE800F012030C12121204F1080000215E
:1036400001F00AFA07E00125012614E004F1280040
:10365000022101F081FA0546002D2E460BD1DAF841
:103660004800002520F4E050D4F898100843524652
:10367000CAF848003E462078000627D5D4F89C00BA
:103680004FEA703005280AD8DFE800F012030C1268
:10369000121204F10800002101F0DEF907E0012513
:1036A000012714E004F12800022101F055FA054633
:1036B000002D2F460BD1DAF84800002520F4604099
:1036C000D4F89C1008435246CAF848003746206890
:1036D000010717D5D4F88010B1F5805F0AD104F145
:1036E0002800022101F038FA002818BF01272068BD
:1036F000D4F88010DAF84420534622F440521143A3
:10370000CAF84410C10617D5D4F89410B1F5807FDB
:103710000AD104F12800022101F01EFA002818BF86
:1037200001272068D4F89410DAF84820534622F490
:1037300040721143CAF84810000322D5D4F8A00003
:10374000B0F5003F0FD0B0F5803F06D088BB04F144
:103750000800002101F080F904E004F128000221B2
:1037600001F0FAF90546002D2E460BD1DAF8480093
:10377000002520F44030D4F8A01008435246CAF87F
:1037800048003E46A07840072AD5D4F88400B0F51A
:10379000401F17D0B0F5001F0ED0B0F5801F40F0CD
:1037A000F580DAF81C00514640F40030CAF81C00DD
:1037B00008E001250126E5E704F12800012101F0D8
:1037C000CBF90546002D2F460BD1DAF84400002531
:1037D00020F44010D4F8841008435246CAF844003C
:1037E0003746A078C00701D13E4622E0206DB0F5F3
:1037F000803F08D0D8B9DAF81C00514640F40030B8
:10380000CAF81C0005E004F10800022101F024F9C7
:103810000546002D2E460CD1DAF83C00002520F498
:103820008030216D08435246CAF83C00DCE7012590
:1038300001262168880001D4606809E004F12800AD
:10384000022101F089F9002818BF0126D4E90010EF
:103850008A031AD5E26F6FF0010303EB3223022BC8
:103860000BD34FEA322343B1012B40F09280DAF8B8
:103870001C3043F40033CAF81C303DB9DAF8443048
:1038800023F440731A43CAF844203546CA0207D5C8
:10389000DAF8402022F00042236F1A43CAF8402091
:1038A0008A0207D5DAF8402022F08072A36E1A430C
:1038B000CAF840204A000CD5DAF8002022F4004271
:1038C000CAF80020D4F8B420DAF800301A43CAF855
:1038D0000020B1F1FF3F07DCDAF83C2022F0405233
:1038E000636D1A43CAF83C20090208D5DAF844107F
:1038F00021F44001D4F888201143CAF84410C107CC
:1039000008D004F10800002101F0A6F8002818BF33
:1039100005466068810708D504F10800012101F01F
:103920009BF8002818BF05466068410708D504F1D8
:103930000800022101F090F8002818BF05466068D1
:10394000010708D504F12800002101F005F900283D
:1039500018BF05466068C10608D504F1280001219A
:1039600001F0FAF8002818BF05466068800603D405
:103970004DB10120BDE8F08704F12800022101F0DB
:10398000EBF82843F5D10020BDE8F0870125012799
:1039900027E701257AE75346D4F8B00000F44071D8
:1039A0001A68B1F5407F22F47C5103D1054A02EA3E
:1039B0001012114319606FF31F30196E0025084370
:1039C00018663FE5CFFFFF00704700002DE9F84380
:1039D000002800F000810446814D286800F00F00A7
:1039E000884688420BD2286820F00F0040EA080081
:1039F0002860286800F00F00404540F0EC80206807
:103A0000D34F41070AD52169BA6902F07002914289
:103A100004D9BA6922F070021143B96101070AD5CD
:103A20006169FA6902F07002914204D9FA6922F0E0
:103A300070021143F961C1060AD5A169FA6902F45D
:103A4000E062914204D9FA6922F4E0621143F9611B
:103A500081060AD5E1693A6A02F07002914204D9FE
:103A60003A6A22F070021143396210F002010AD062
:103A7000E268BB6903F00F039A4204D9BB6923F0E3
:103A80000F031A43BA61C20738D0B86920F47061D5
:103A9000D4E9010211430328B96105D0022807D1F6
:103AA000396889030DD496E03968890109D492E018
:103AB0000128396802D1C90503D48CE0490740F1D7
:103AC0008A803969A94621F0070108433861FEF769
:103AD000DDFE064641F28835386900F0380061683D
:103AE000B0EBC10F06D0FEF7D1FE801BA842F3D980
:103AF000032071E020684D4600F0020151B1E168F9
:103B0000BA6902F00F02914204D2BA6922F00F02A0
:103B10001143B961296801F00F0141450AD92968AB
:103B200021F00F0141EA08012960296801F00F0125
:103B3000414550D141070AD52169BA6902F07002A6
:103B4000914204D2BA6922F070021143B9610107AF
:103B50000AD56169FA6902F07002914204D2FA69E9
:103B600022F070021143F961C1060AD5A169FA6910
:103B700002F4E062914204D2FA6922F4E062114355
:103B8000F96180060AD5E069396A01F0700188425E
:103B900004D2396A21F070010843386200F06AF8F3
:103BA000B969C1F30321324A515CBB6903F00F03C9
:103BB000D25C01F01F0120FA01F102F01F001B4A44
:103BC00021FA00F010601A4A064800681160BDE84A
:103BD000F843FEF793BE012001B0BDE8F08300BFBB
:103BE00000200052080000245948016841F40021D7
:103BF0000160704780B500F03DF80B490A68C2F3D8
:103C0000032209681A4B01F00F019A5C595C02F01B
:103C10001F0220FA02F201F01F00044922FA00F00C
:103C2000086003490A6080BD18440258100000244F
:103C30000C00002480B5FFF7DDFF0C490C4A096831
:103C4000C1F30211515C01F01F01C84080BD00BFEB
:103C500080B5FFF7CFFF0549054A0968C1F3022186
:103C6000515C01F01F01C84080BD00BF1C440258D8
:103C70001864000836490869C0F3C20003280CD054
:103C8000022828D048BB08688006374858BF7047CC
:103C90000968C1F3C101C84070478A6A886AC0F3E5
:103CA000051CCB6A486B03F00103C0F3CC00BCF1E8
:103CB000000F03FB00F000EE100AB8EE400A0ED031
:103CC00002F00302022A0CD072B9086880060ED4F2
:103CD0009FED241A15E0204870471E4870470020C9
:103CE00070479FED1F1A0CE09FED1C1A09E0086851
:103CF0001D4AC0F3C10022FA00F001EE100AB8EE2E
:103D0000411A02EE10CA9FED193AB8EE422A086B2A
:103D10006FF35F2081EE021A02EE100AB8EE422A1B
:103D2000086BC0F3462000EE032AB7EE000A01300C
:103D300032EE000A21EE000A01EE100AB8EE411A36
:103D400080EE010ABCEEC00A10EE100A704700BFF8
:103D50000044025800093D0040787D010024744A67
:103D600020BCBE4B0024744C0090D00300000039EE
:103D700010B5054C2068400504D5FFF725FE4FF42B
:103D80008060606010BD00BF64440258F8B5002830
:103D900000F06A8104460078CF4EC00720D1207819
:103DA000800776D5306910F03801B06A3ED0182906
:103DB00008BF5FEA807039D0E0680028316857D0CA
:103DC00021F0190108433060FEF760FD05463068B8
:103DD000400745D4FEF75AFD401B0228F7D9B0E151
:103DE000306900F03801B06A102905D018290AD1CD
:103DF00000F00300022806D130688003CFD5606848
:103E00000028CCD130E16068002800F0B280B0F525
:103E1000803F07D0B0F5A02F306840F07F8140F49C
:103E200080203060306840F480307DE130684007A9
:103E3000E06802D5002800F01781316821F01901EF
:103E400008433060FEF722FD05463068400707D47E
:103E5000FEF71CFD401B02284FF00300F5D971E16D
:103E6000706820F0FE40216940EA0160706010E057
:103E700021F001003060FEF709FD0546306840077B
:103E800007D5FEF703FD401B02284FF00300F5D9CC
:103E900058E12078C0062FD5306900F03801B06AAB
:103EA000082905D018290AD100F00300012806D1FD
:103EB0003068C00519D5E069802816D0D4E0E069E3
:103EC0000028306800F0F58040F080003060FEF798
:103ED000DDFC05463068C00507D4FEF7D7FC401B63
:103EE00002284FF00300F5D92CE1F06820F07C5057
:103EF000216A40EA0160F0602078000723D56069FC
:103F00000028706F0ED040F001007067FEF7BEFC15
:103F10000546706F800716D4FEF7B8FC401B0228D8
:103F2000F7D90EE120F001007067FEF7AFFC0546FF
:103F3000706F800707D5FEF7A9FC401B02284FF0E1
:103F40000300F5D9FEE0207880063AD5A069002864
:103F5000306825D040F480503060FEF797FC05466D
:103F6000306880042DD4FEF791FC401B0228F7D95D
:103F7000E7E0306820F480303060306820F4802042
:103F80003060FEF783FC0546306880037FF507AF9D
:103F9000FEF77CFC401B64284FF00300F4D9D1E00D
:103FA00020F480503060FEF771FC054630688004D4
:103FB00007D5FEF76BFC401B02284FF00300F5D934
:103FC000C0E02078400751D4656A002D00F03581AB
:103FD000306900F03800182840F08080B16A012D67
:103FE000306B41D001F00302A36A9A423CD1C1F385
:103FF0000511E26A914237D10146226B6FF35F21CE
:10400000013A914230D1C0F34621626B013A9142AC
:104010002AD1C0F30641A26B013A914224D1C0F3E8
:104020000660E16B013988421ED1706BC0F3CC0091
:10403000A16C814200F00181F06A20F00100F06281
:10404000FEF724FC0546FEF721FCA842FBD0706B6E
:104050004FF6F8718843A16C40EAC1007063F06AC2
:1040600040F00100F062E8E001206BE0D6F80004C7
:1040700040F48070C6F80004FEF708FC0546D6F848
:104080000004C00505D4FEF701FC401B6428F6D9E6
:1040900057E0A068002857D0012806D00528306FC7
:1040A00040F0CD8040F004003067306F40F00100F8
:1040B000CBE020F080003060FEF7E8FB054630687A
:1040C000C0057FF519AFFEF7E1FB401B02284FF05A
:1040D0000300F4D936E000BF00440258306820F0F5
:1040E00080703060FEF7D2FB022D05460AD13068A1
:1040F000800142D5FEF7CAFB401B02284FF00300A7
:10410000F5D91FE03068800140F19780FEF7BEFBD3
:10411000401B02284FF00300F4D913E020F4803054
:104120003060306820F480203060FEF7AFFB054639
:10413000306880033FF533AEFEF7A8FB401B6428D0
:10414000F6D9032001B0F0BD306F20F001003067D8
:10415000306F20F004003067FEF798FB054641F20F
:104160008837306F80077FF52FAFFEF78FFB401B3E
:10417000B8424FF00300F4D9E4E7B06A40F2F331FB
:104180008843A16A226B0843511E626B4FF47E4341
:1041900003EB4222E36A6FF35F2192B240EA03101D
:1041A000B0625018A16B4FF4FE0202EB014101F422
:1041B000FE010844E16B4FF0FE4202EB016101F0A9
:1041C000FE41084430634FF6F871F06A20F00100B8
:1041D000F062706B8843A16C40EAC1007063F06AC2
:1041E00020F00C00216C0843F062F06A20F002001D
:1041F000616C0843F062F06A40F48030F062F06A6B
:1042000040F40030F062F06A40F48020F062F06A1E
:1042100040F00100F062306840F080703060FEF7DE
:1042200035FB04463068800107D4FEF72FFB001BE6
:1042300002284FF00300F5D984E7002082E720F040
:1042400001003067306F20F004003067FEF71EFB7E
:10425000054641F28837306F80073FF5B5AEFEF76F
:1042600015FB401BB8424FF00300F4D96AE7000089
:104270002DE9F84340B304460068002260498842B3
:10428000A26208D05F4A904205D05F4A904202D0B5
:10429000E2680F2A18D8E26B0123E56803EB52129B
:1042A00005F10803DB085A4388420BD0564988427F
:1042B00008D0544B984218BF082A05D8884218BF26
:1042C000984203D1102A01D9012093E094F881107B
:1042D00031B9002084F88000204600F097F820686B
:1042E000022184F88110016821F0010101608168D8
:1042F000D4F8188001F4F81CB8F1806FD4F8049059
:1043000012D1B9F1000F07D0B9F5800F0CD1A36B12
:1043100033B14FF480090EE0A36BB3F1805F6CD131
:10432000036843F4805303605FEA492303D4E368DE
:104330004FF0010E0DE0E368072B08D3056825F464
:10434000807E256D45EA0E054FF0000E04E04FF02B
:10435000000E056825F480750560B9F1000FE66967
:10436000A76A46EA0C06E26B47EA060742EA07023A
:10437000A56842EA03022669676949EA0803826080
:10438000626B616A42EA0302A36B41EA020141EAFD
:104390000301226A41EA0601E36C41EA070141EAAE
:1043A0000201A26C41EA0301A36D41EA050141EA61
:1043B000020141EA0301C16009D18168012262F36F
:1043C000CC2102228160816862F34A218160016D03
:1043D000BEF1000F21F00101016505D1C16821F096
:1043E0000041626D1143C16000200121C4F88400C6
:1043F00084F8811001B0BDE8F0834FF0000996E722
:1044000000380040003C00400030014010B5B6B01C
:10441000044631A81421FBF7ADFF02A8B821FBF731
:10442000A9FF2068184988422BD14FF4005000247E
:10443000029002A803941A94FEF734FE08B1FCF728
:1044400019FD1248016941F480110161016901F40B
:10445000801101910199016841F02001016031A9A9
:10446000006800F02000019001984FF460703190D6
:104470000220CDE932040520349435900448FEF73B
:1044800035F936B010BD00BF00500140E04402587D
:1044900000140258034A136823EA0000084310601E
:1044A000704700BF04040058411E0020B0EB116F9C
:1044B00001D001207047044A5160F021034B19706C
:1044C000072190601160704710E000E023ED00E0EC
:1044D00090F83C20012A4FF0020239D070B5012338
:1044E0006A4E80F83C3080F83D20026842F48063D8
:1044F0005468B342936802BF24F470044D682C439F
:10450000B2F1804F24F070050C6845EA040555604F
:1045100011D0564CA2421CBF554CA2420BD0554C58
:10452000A2421CBF544CA24205D0544CA2421CBF14
:10453000534CA2420ED123F0800389681943916045
:104540000121002280F83D1080F83C20BDE8704039
:10455000104670474B4CA242EDD04B4CA24218BFC4
:10456000B242E8D0ECE700BF60B310B5044690F863
:104570003D0028B9002084F83C00204600F024F8D3
:10458000022084F83D00211D206800F003FC01207A
:1045900084F8480084F83E0084F83F0084F8400026
:1045A00084F8410084F8420084F8430084F8440011
:1045B00084F8450084F8460084F8470084F83D00FC
:1045C000002010BD0120704700682849884218BFAC
:1045D000704781B00548016841F002010160006840
:1045E00000F002000090009801B07047E8440258C3
:1045F00090F83D10012927D1022180F83D10016873
:10460000C868B1F1804F40F00100C86011D0174870
:1046100081421CBF164881420BD0164881421CBF04
:104620001548814205D0154881421CBF144881427B
:104630000CD18868164A0240062A4FF0000018BFC5
:10464000B2F5803F0BD17047012070470D48814281
:10465000EFD00D488142ECD00C488142E9D0086887
:1046600040F0010008600020704700BF00040040D7
:1046700000080040000C00400018004000E000402E
:1046800000E40040000001400040014000040140FF
:104690000700010010B5044690F83C0001284FF0D7
:1046A00002001FD00122404B84F83C2084F83D00DA
:1046B000206882681A4082600A682AB1102A03D0F2
:1046C000202A18BF302A0ED181683B4B1940114374
:1046D00041F0070181600020012184F83D10002194
:1046E00084F83C1010BD402A2AD0502A33D0602ACA
:1046F0003CD02E4B9A42E7D0B2F5805FEBD0B2F5BA
:10470000005F3ED0B2F5801F18BFB2F1101FDBD0A2
:10471000274B9A42D8D0274B9A42D5D0702A40D105
:10472000D1E901C3C96843EA0C03826843EA012165
:1047300022F47F4211438160816841F07701C9E72B
:104740004B68CA68194600F0A5FB20681A4A8168C0
:1047500011404731BEE74B68CA68194600F09AFB22
:104760002068154A816811405731B3E74B68CA6821
:10477000194600F0A0FB20680F4A8168114067319C
:10478000A8E7D1E901C3C96843EA0C03826843EA98
:10479000012122F47F4211438160816841F480410C
:1047A00098E7012098E700BF8800CEFF4000100086
:1047B000200010003000100088FFCFFF90F8841018
:1047C000012901D1022112E02421C0F888100268D9
:1047D0001368116823F0005321F0010111600021DA
:1047E000416613602022C0F8882080F884100846B3
:1047F0007047B0B5044690F88400012801D102202A
:10480000B0BD012084F884002420C4F8880020680A
:104810000568026822F001020260826822F060628C
:1048200011438160204600F059FB2068056020207C
:10483000C4F88800002084F88400B0BDB0B50446F8
:1048400090F88400012801D10220B0BD012084F835
:1048500084002420C4F8880020680568026822F0DB
:1048600001020260826822F06042114381602046AA
:1048700000F034FB206805602020C4F88800002088
:1048800084F88400B0BD10B5E0B10446D0F88800CB
:1048900028B9002084F88400204600F027F824205E
:1048A000C4F888002068A16A0268002922F0010289
:1048B000026002D0204600F03BFB204600F024FCC2
:1048C000012801D1012010BD2068416821F49041E8
:1048D0004160816821F02A018160016841F0010195
:1048E00001602046BDE8104000F085BB10B5B6B0B1
:1048F000044631A81421FBF73DFD02A8B821FBF7BF
:1049000039FD20681749884229D1012000240290EE
:1049100002A803942094FEF7C5FB08B1FCF7AAFA9D
:104920001148016941F010010161016901F01001B4
:1049300001910199016841F00201016031A900680B
:1049400000F0020001900198C02031900220CDE9D2
:1049500032040720349435900448FDF7C7FE36B082
:1049600010BD00BF00100140E0440258000402588E
:104970002DE9FC410446D0F8880020284CD10E4691
:1049800000294FF001004DD01746002A4AD04FF0C1
:1049900000082120C4F890801D46C4F88800FDF767
:1049A00075FFA4F85470A4F856700746A168B1F5D5
:1049B000805F1FD12069002814BF3046B0460646EC
:1049C00018E080210095002220463B4600F094FD2F
:1049D00020BB1EB116F8010B216805E038F8020B68
:1049E000002621686FF35F208862B4F85600013812
:1049F000A4F85600B4F856000028E2D140210095F2
:104A0000002220463B4600F077FD2021002818BFF9
:104A10000320C4F8881005E0022003E02020C4F839
:104A20008800032002B0BDE8F081FEE7C1F34063D7
:104A300000EB8300D0F814C0C1F3045107238B406E
:104A40002CEA030302FA01F1194341617047FEE7C2
:104A5000FFF78EF9FEE77047F8B5C84FBA6A02F063
:104A60000302032A01D1012074E00546386820F0D2
:104A700080600C463860FDF709FF06463868000183
:104A800005D5FDF703FF801B0228F7D95FE0B86A60
:104A90004FF47E43696820F47C30AA68013903EB47
:104AA00042222B686FF35F2192B240EA0330114437
:104AB000EA684FF4FE03B86203EB024202F4FE021E
:104AC000881829694FF0FE4202EB016101F0FE41B6
:104AD0000844B863002CF86A20F0C000696940EA15
:104AE0000100F862F86A20F02000A96940EA01009C
:104AF000F8624FF6F871F86A20F01000F862F86B6F
:104B000020EA0100E96940EAC100F863F86A40F070
:104B10001000F86205D0012CF86A06D140F480102C
:104B200005E0F86A40F4002001E040F40010F8626B
:104B3000386840F080603860FDF7A8FE04463868A9
:104B4000000106D4FDF7A2FE001B0328F7D30320C3
:104B500000E0002001B0F0BDF8B5884FBA6A02F05D
:104B60000302032A01D1012074E00546386820F0D1
:104B700080500C463860FDF789FE06463868800094
:104B800005D5FDF783FE801B0228F7D95FE0B86AE0
:104B90004FF47E43696820F07C70AA68013903EB0A
:104BA00042222B686FF35F2192B240EA0350114416
:104BB000EA684FF4FE03B86203EB024202F4FE021D
:104BC000881829694FF0FE4202EB016101F0FE41B5
:104BD00008443864002CF86A20F44060696940EAAF
:104BE0000100F862F86A20F40070A96940EA010047
:104BF000F8624FF6F871F86A20F48070F862786C09
:104C000020EA0100E96940EAC1007864F86A40F4EA
:104C10008070F86205D0012CF86A06D140F40000DB
:104C200005E0F86A40F4800001E040F08070F8622E
:104C3000386840F080503860FDF728FE0446386838
:104C4000800006D4FDF722FE001B0328F7D30320C3
:104C500000E0002001B0F0BD7047FDF71BBE000072
:104C6000B0B59CB009A8244C4C21FBF783FB01A8EC
:104C70002021FBF77FFB0420FDF7F6FE00200090CB
:104C8000206820F440402060206800F440400090FC
:104C9000009820688004FCD501204FF480310990F1
:104CA0000A9102210522CDE9121114926E22CDE95A
:104CB00015200824002509A8CDE917111994CDE97C
:104CC0001A55FFF763F8A8B93F2001900320CDE9FA
:104CD0000205402004944FF48061CDE90500CDE940
:104CE000071001A80321FEF771FE18B9FEF77CFF3B
:104CF0001CB0B0BDFCF7BEF8184802581E48016849
:104D00001C4A41F470010160106800F00F00062891
:104D100004D81068072161F30300106010B517482C
:104D20000168174C41F00101016000210161036835
:104D30002340036013681B0704D51368072464F33A
:104D4000030313600F4A8161C161016282620E4AEE
:104D5000C2620E4A026341638263C16302644164BA
:104D6000026822F480220260016643F2D200084900
:104D7000086010BD0020005288ED00E00044025899
:104D80007FEDF6EA000202020000FF01800201014D
:104D900000400052B0F1804F026805D0334B98427A
:104DA0001CBF334B98424CD122F070024B681A431F
:104DB000B0F1804F1CBF2D4B984211D02C4B984224
:104DC0001CBF2C4B98420BD02D4B98421CBF2D4B37
:104DD000984205D0294B98421CBF274B98423AD1A4
:104DE00022F44072CB681A4380B522F080024B69EE
:104DF000D1F800C01A43D1F808E002601F4A90427F
:104E0000C0F82CE0C0F828C0BDE880401CBF1A4A9A
:104E100090420CD109690163012141610169C9070F
:104E200008BF7047016921F0010101617047164A0E
:104E30009042EFD0154A9042ECD0154A9042E9D00A
:104E4000EAE70C4B9842AFD00B4B9842ACD00B4BDF
:104E50009842A9D0ACE70C4B9842C1D00B4B98427A
:104E6000BED00B4B9842BBD0BEE700BF0004004051
:104E700000080040000C0040000401400000014018
:104E800000E0004000E400400040014000480140D4
:104E900000440140D0F820C0036A23F001030362FC
:104EA000836923F0F00343EA02122CF00A038261C3
:104EB000194301627047D0F820C0036A23F0100341
:104EC0000362836923F4704343EA02322CF0A003A7
:104ED000826143EA0111016270470000416ED9B15D
:104EE00080B501688A68C2F342628968490FDFF8B9
:104EF00038C01CF80130DFF834E01EF801101B0147
:104F0000B3FBF1F11CF802301EF802201B01B3FBC9
:104F1000F2F2BDE8804001E001210122A0F86A1010
:104F2000A0F86820704700BF48640008506400087B
:104F3000816A0A0708D50268D0F838C0536823F49C
:104F4000004343EA0C035360CA0708D00268D0F854
:104F50002CC0536823F4003343EA0C0353608A07E0
:104F600008D50268D0F830C0536823F4803343EA90
:104F70000C0353604A0708D50268D0F834C0536860
:104F800023F4802343EA0C035360CA0608D5026861
:104F9000D0F83CC0936823F4805343EA0C03936039
:104FA0008A0608D50268D0F840C0936823F40053FD
:104FB00043EA0C0393604A0612D50268D0F844C055
:104FC0005368BCF5801F23F4801343EA0C0353603D
:104FD00006D1536823F4C00C836C43EA0C0353607E
:104FE000090658BF70470168C06C4A6822F4002265
:104FF000104348607047BCB500210446C0F89010CB
:10500000FDF744FC216805460A68120719D56FF0C0
:105010007E404FF400110090002220462B4600F005
:105020006BFA68B1206850E8000F216820F080001A
:1050300041E80002002AF5D12020C4F8880025E0CC
:1050400021680868400723D56FF07E404FF4800147
:105050000090002220462B4600F04EFAC0B1206896
:1050600050E8000F216820F4907041E80002002A07
:10507000F5D1206850E8020F216820F0010041E8D6
:105080000202002AF5D12020C4F88C00032007E09A
:105090002020C4F88800C4F88C000020E066206757
:1050A000002184F8841002B0B0BD0000016851E80E
:1050B000001F026821F4907142E80013002BF5D123
:1050C00010B5104C026852E8022F0368224043E8F2
:1050D00002210029F6D1C16E0129BDE8104009D195
:1050E000016851E8001F026821F0100142E8001336
:1050F000002BF5D12021C0F88C100021C16641673A
:10510000704700BFFEFFFFEFFEB50446006804F1E4
:105110000803994D994E0ECB194363690B43E1691E
:1051200007680B432F40964D3B430360A8424368FA
:1051300023F4405342EA03024260A2691CBF236A7F
:105140001A43836833408F4E1A438260B042C26A6A
:105150008D4E22F00F03626A43EA0203C36234D029
:105160008A4B98423ED08A4B984248D0894B98420D
:1051700000F05280884B984200F05B80874B984249
:1051800000F06480A84200F06E80854B984200F0E9
:105190007680844B984200F07E80834B984200F0EA
:1051A0008680824B984240F09880736DB446C3F37A
:1051B000C206052E00F292800123DFE816F090006F
:1051C0008400860088008A008C00736DB44603F06A
:1051D0000706052E00F282800023DFE806F08074C7
:1051E00076787A7C736DB44603F00706052E00F2DC
:1051F00075800023DFE806F07367696B6D6F736D70
:10520000B44603F00706052E00F268800023DFE8AD
:1052100006F0665A5C5E6062736DB44603F0070682
:10522000052E00F25B800023DFE806F0594D4F5158
:105230005355736DB44603F00706052E00F24E80F9
:105240000023DFE806F04C4042444648736DB44604
:1052500003F00706052E00F241800023DFE806F088
:105260003F333537393BB36DB44603F00706052E9F
:1052700034D80223DFE806F03327292B2D2F736D56
:10528000B446C3F3C206052E28D80123DFE806F092
:10529000271B1D1F2123736DB446C3F3C206052EC1
:1052A0001CD80123DFE806F01B0F11131517736DCF
:1052B000B446C3F3C206052E10D80123DFE806F07A
:1052C0000F030507090B042309E0082307E0102357
:1052D00005E0202303E0402301E0B4468023A842F8
:1052E000814810D0B1F5004F1DD1082B4FF00101BE
:1052F00027D8DFE803F00591D9D994D9D9D99800F6
:10530000FEF798FC93E0402B32D0042B50D0082BB2
:1053100052D0102B58D0202B60D0022B40F0C380ED
:10532000FDF7E4FB4CE0082B4FF0010114D8DFE857
:1053300003F00598BBBB9BBBBBBB9F00FEF77AFC91
:105340009AE0102B00F0B980202B72D0402B40F057
:10535000AB804FF400406CE0102B00F0B980202BA4
:1053600000F08C80402B40F09F804FF4004085E09F
:105370004FF4004032E000BFF369FFCFFFF4FF11AC
:10538000000C00580044004000440258004800400F
:10539000004C00400050004000780040007C00407D
:1053A0000014014000180140001C014000100140A1
:1053B0006846FDF735FC02E06846FDF7B7FC01984A
:1053C00000286ED0626A09E0DCF8000065468006BD
:1053D000464803D52968C1F3C101C840444931F8A2
:1053E00012106268B0FBF1F002EB420188424FF00C
:1053F000010159D31303984256D8010E000210EB55
:10540000520041F100010023FAF77CFFA0F5407142
:10541000384A914243D946E0FEF71AFC07E0684655
:10542000FDF7FEFB02E06846FDF780FC0198C0B383
:10543000626A2F4931F81210B0FBF1F061684A0836
:1054400002EB4000B0FBF1F04FF6EF72A0F110015B
:10545000914228D84FF6F071C0F342020840104440
:105460001DE0FEF7F5FB07E06846FDF7D9FB02E01B
:105470006846FDF75BFC019898B1626A1C4931F8F7
:1054800012104FF6EF72B0FBF1F0616800EB5100C3
:10549000B0FBF1F0A0F11001914204D880B2216874
:1054A000C860002100E001214FF00110A06600203B
:1054B000C4E91D00084603B0F0BDDCF800006546F5
:1054C00080060A48B5D52968C1F3C101C840B0E7D4
:1054D000DCF80000654680060448CFD52968C1F392
:1054E000C101C840CAE700BF00093D000090D003D9
:1054F00028640008FFFC0F002DE9F843DDF8209038
:10550000984616460F460446006809F10105C16930
:105510003940C91BB1FA81F14909B14229D1002DA5
:10552000F5D0FDF7B3F9B9F1000F01464FF00300D4
:1055300020D0A1EB080149451CD820680168490723
:10554000E5D5402F18BF802FE1D0C169090714D4D9
:10555000C1690905DBD54FF4006101622046FFF700
:10556000A5FD2020C4F89000002084F884000320CA
:1055700000E0002001B0BDE8F08308250562204668
:10558000FFF794FD0020C4F8905084F884000120B7
:10559000F0E7FEE700F00F020F4B09011A44034B3E
:1055A000B0F1FF3FC8BFC2181170704700E400E0BF
:1055B000E0B5019001A9012203486423FFF7D8F95F
:1055C000019802B080BD00BFEC0100248CB00248FD
:1055D0000168890315D401E014ED00E0BFF34F8F9B
:1055E0000021BFF36F8FC0F83C12BFF34F8FBFF3A2
:1055F0006F8F016841F400310160BFF34F8FBFF33B
:105600006F8F0168C90326D40021016743F6E07C4F
:10561000BFF34F8FC26EC2F34E31C2F3C902D443FF
:1056200095070CEA41162B46224643EA060701324B
:10563000C0F84C7203F14043F7D10029A1F10101F8
:10564000EFD1BFF34F8F016841F480310160BFF3A8
:105650004F8FBFF36F8F5B4E5B488346FDF724F996
:105660004FF00109CDF80C90FDF796F90025574849
:10567000049503AC059040F2011006902046FDF71A
:1056800061F94FF060508DF80D9004904FF00F08C5
:105690002046ADF814808DF818508DF81A90FDF75B
:1056A00051F90420FDF782F9FFF7DAFACDE9065542
:1056B000E84F3868202140F0020038600022386846
:1056C0004FF0200A00F0020000900098386840F087
:1056D00001003860386800F00100009000983868D8
:1056E00040F008003860386800F00800009000982A
:1056F000386840F020003860386800F020000090E2
:105700000098386840F080003860386800F0800009
:10571000009000983046FDF7B3F84FF48810CDF8AC
:105720000C9003ACCDE90405A6F500602146FCF71A
:10573000DDFF3046CDF80CA02146DA46CDE90495D0
:105740000695B346FCF7D2FF062000210022FDF7A4
:105750005BF90620FDF74AF957F8080C002140F0E4
:10576000010047F8080C002257F8080C00F001006F
:10577000039003980B20FDF747F90B20FDF736F94E
:105780000AF5A630B44C4FF4800184E823014FF0B1
:105790008060256104F1180265614FF0C04123C2A9
:1057A0004FF08040C4E90955E5622421606304F1AB
:1057B0003800FAF7DFFD2046FEF75AFD002840F0DA
:1057C000478105E000140258000400401F870003D1
:1057D000A24F4FF489713846CDE90555CDE90355FF
:1057E00040F818AF0295CDE90055416040F2F31141
:1057F000C0E9025105618561FEF7B6FE002840F060
:1058000027814FF4805007F11808039003A9404600
:105810005546FEF73FFF002840F01A8120200090F7
:105820000026694602964046FEF752FE002840F0E8
:105830000F8105F586308A4C4FF4E13184E843004E
:105840000C20E660C4E9046004F118001421FAF7A2
:1058500091FD2046FFF717F8002840F0F9808048B6
:105860000021FEF7EBFF002840F0F2807C48002189
:10587000FEF7BFFF002840F0EB8079482E46FEF788
:105880009DFF002840F0E480002403A80294242116
:10589000CDE90044FAF76EFD06F507317148016065
:1058A0000821C0E901410421C0E904410121048328
:1058B0004FF49062C1614FF4806380F82040C0E9EA
:1058C0000A231022016300F1480CC0E90F4480F85C
:1058D00044108023ACE81C004165FBF7DBFD002889
:1058E00040F0B6805F4869460094FBF711FB002842
:1058F00040F0AE805C48039040F2FF7106200490B7
:105900000020059006910421CDE907108DF82D00A7
:1059100003A95448FBF750FB002840F0998003A8E6
:105920002421FAF727FD06F5E041384640F8041F28
:10593000FCF792F8002840F08B80002001213C1DEC
:10594000CDE9030005900022CDE9061003A9204609
:10595000FBF7D8FF00287BD103A910222046FBF7D4
:10596000D1FF002874D100212046FCF7D3F8102184
:105970002046FCF7CFF80021002240F25553204684
:10598000FCF7AEF81021002240F6AA232046FCF7CF
:10599000A7F80021334840F2FF72FBF76FFA0028A6
:1059A00056D14046FEF724FE002851D12F4D4FF42A
:1059B000FA622C482946FBF701FF002848D12CA0A9
:1059C00000F018FD9FED338A9FED339A0FF2CC085B
:1059D0004A4E0FF2E00900240FF2081A3878012825
:1059E00019D1B5F8D00700EE100A4046B8EE400ACB
:1059F00020EE080A80EE090AB7EEC00A53EC102B1D
:105A000000F07EF8484600F0F5FC20213C700122B1
:105A10005846FCF735FF78780128DFD1288800EE5A
:105A2000100A5046B8EE400A20EE080A80EE090A35
:105A3000B7EEC00A53EC102B00F062F8304600F0CD
:105A4000D9FC20217C7000225846FCF719FFC5E7DD
:105A5000FBF710FAE0440258640100241800002407
:105A6000EC0100247C000024020030040000003817
:105A700053544D3332483733302041444320444D52
:105A800041204578616D706C652053746172746556
:105A9000640D00003333534000F07F45726574722B
:105AA00061636520766F6C743A20252E336620562C
:105AB0000D0A000066756C6C207472616E73666509
:105AC0007220636F6D706C6574652C2070726F63EB
:105AD000657373696E6720627566666572312E2E16
