:020000040800F2
:1000000030080024E1020008117100083968000876
:1000100009710008B90700084182000800000000CB
:1000200000000000000000000000000091740008C3
:10003000610E00080000000049710008C175000849
:10004000FB020008FB020008FB020008FB0200089C
:10005000FB020008FB020008690E0008790E000888
:10006000FB020008FB020008FB0200083108000840
:100070004108000851080008FB020008FB020008C4
:10008000FB020008FB020008FB020008FB0200085C
:10009000FB020008FB020008FB020008FB0200084C
:1000A000FB020008FB020008FB020008FB0200083C
:1000B000FB020008FB020008FB020008FB0200082C
:1000C000FB020008FB020008FB020008FB0200081C
:1000D000FB020008FB020008FB020008FB0200080C
:1000E000FB020008FB02000800000000FB02000801
:1000F000FB020008FB020008FB020008FB020008EC
:10010000FB020008FB020008FB020008FB020008DB
:10011000FB020008FB020008FB020008FB020008CB
:10012000FB020008FB020008FB020008FB020008BB
:10013000FB020008FB020008FB020008FB020008AB
:1001400000000000000000000000000000000000AF
:10015000FB020008FB020008FB020008FB0200088B
:10016000FB020008FB020008FB020008FB0200087B
:10017000FB020008FB020008FB020008FB0200086B
:10018000FB020008FB020008FB020008FB0200085B
:10019000FB020008FB020008FB020008FB0200084B
:1001A000FB020008FB020008FB0200080000000040
:1001B000FB020008FB020008FB020008FB0200082B
:1001C000FB020008FB020008000000000000000025
:1001D0000000000000000000FB020008000000001A
:1001E000000000000000000000000000000000000F
:1001F0000000000000000000FB020008FB020008F5
:10020000FB020008FB02000800000000FB020008DF
:10021000FB020008FB020008FB020008FB020008CA
:10022000FB02000800000000FB02000800000000C4
:10023000FB020008FB02000800000000FB020008AF
:10024000FB020008FB020008FB020008FB0200089A
:10025000FB020008FB020008FB020008FB0200088A
:10026000FB020008FB020008FB020008FB0200087A
:10027000FB020008FB020008FB020008000000006F
:10028000FB020008FB020008FB020008FB0200085A
:1002900000000000FB020008FB020008FB0200084F
:1002A000FB020008FB020008FB020008FB0200083A
:1002B000FB020008FB020008FB020008FB0200082A
:1002C000FB020008FB020008FB020008DFF80CD06C
:1002D00000F090F800480047E18200083008002450
:1002E0000648804706480047FEE7FEE7FEE7FEE7D0
:1002F000FEE7FEE7FEE7FEE7FEE7FEE771760008B1
:10030000CD0200082DE9F05F0546002092469B468D
:1003100088460646814640241BE02846414647461B
:10032000224600F057F853465A46C01A914110D35E
:1003300011461846224600F03EF82D1A67EB0108D8
:100340004F4622460120002100F035F817EB000946
:100350004E41201EA4F10104DFDC484631462A4606
:100360004346BDE8F09FD2B201E000F8012B491EE0
:10037000FBD270470022F6E710B513460A46044642
:100380001946FFF7F0FF204610BD30B50B46014679
:1003900000202022012409E021FA02F59D4205D324
:1003A00003FA02F5491B04FA02F52844151EA2F1CE
:1003B0000102F1DC30BD202A04DB203A00FA02F110
:1003C000002070479140C2F1200320FA03F3194343
:1003D00090407047202A04DB203A21FA02F00021E5
:1003E000704721FA02F3D040C2F120029140084345
:1003F00019467047064C074D06E0E06840F00103DF
:1004000094E8070098471034AC42F6D3FFF762FF38
:10041000D0870008F087000810B50446006842F253
:10042000001140F48070C4F20201884204D142F20B
:100430000830C4F2020003E046F20830C5F60200BC
:10044000006810F4403F0FD004F0B6FF6168B1F5CA
:10045000803F05D0B1F5403F21D0B1F5003F1FD11D
:10046000090CB0FBF1F01BE04FF40020002104F078
:100470000FF86168A1F580224FEAB2420A2A0FD82C
:10048000DFE802F0060606060606383A3C3E400063
:100490006FF0010202EA5141B0FBF1F000E0800888
:1004A0004BF62141C0F2BE01884205D82068816820
:1004B00021F44071816010BD47F64101C0F27D1109
:1004C000884206D820680122816862F30921816090
:1004D00010BD21684FF28102C0F2FA229042886872
:1004E00004D8022262F30920886010BD40F44070F5
:1004F000886010BD0009D3E74009D1E78009CFE744
:10050000C009CDE7000ACBE770B5044600680D4688
:1005100006F002FA0646206806F0D6F930435CD0B1
:100520002068C168890115D5617E012912D1217E1B
:1005300001290FD10168490609D44DF60141C0F2E5
:100540000C0100BF01393ED002685206FAD50125E0
:1005500040210160022D0FD006F0DEF918B12068AD
:1005600006F0CAF918B1012D06D1042616E020685C
:1005700006F01AFA012DF8D0206806F0A5F930B17E
:10058000206806F0B9F910B9206806F0A1F9042630
:10059000022D08BF0826032D08BF0C2603F074FCAB
:1005A00021688968314218D0054603E020688068D8
:1005B000304212D003F068FC401B0628F6D32068B6
:1005C00080683042F2D0206E40F010002066606EED
:1005D00040F001006066012070BD002070BD000089
:1005E00010B5846B216E11F0500F216E05D0C90635
:1005F0000ED4A16DC96C884710BD41F4007020660F
:1006000020680168090707D4C068800716D10AE08E
:10061000204601F001F810BD06F086F970B120689F
:10062000C06880040AD4206E20F480702066206E9A
:10063000C00403D4206E40F001002066204600F084
:10064000DBFF10BD0000000080B5806B016E41F043
:1006500040010166416E41F00401416600F0DCFF9B
:1006600080BD00000000000080B5806B00F0CCFF72
:1006700080BD000000000000B0B50446006806F030
:100680003BF90546206806F03BF901464FF00000B3
:1006900085BB002908BFB0BD2068816801F00D014D
:1006A00001291CD106F0CCF820680321016003F079
:1006B000EBFB21688968C90701D10020B0BD054660
:1006C00004E000BF20688068C00712D003F0DCFBA4
:1006D000401B0328F6D320688068C007F2D0206E44
:1006E00040F010002066606E40F00100606601205E
:1006F000B0BD0020B0BD000070B50446006806F033
:10070000FFF800281CBF002070BD20683F22C8F2FF
:1007100000028168114209D0206E40F0100020666E
:10072000606E40F001006066012070BD06F09CF82C
:1007300003F0AAFB42F2000546F20031C4F20205C2
:10074000226805F5807605F54073C5F60201B242D0
:1007500008BF1946AA42054608BF1946084606F0D2
:10076000A7F821680A46B14204BF42F20002C4F26F
:100770000202002818BF8A4203D121680868C00716
:1007800008D0002070BD00BF21680868C0074FF086
:10079000000010D1084606F0B3F810B9206806F042
:1007A00063F803F071FB401B0328EDD32068006859
:1007B000C007E9D1B0E770BDFEE70000000000000F
:1007C00010B5846B204601F08BFA0120207110BD1A
:1007D00010B5846B204601F0ABF90120207110BDEB
:1007E00010B5846B206940F004002061204601F0C0
:1007F000C7FA0120207110BD10B5846B206940F04C
:1008000004002061204601F0AFF90120207110BDE5
:1008100080B5806B01F0B0FA80BD000000000000E0
:1008200080B5806B01F09CF980BD000000000000E5
:1008300080B540F2A400C2F2004001F0F5FE80BD98
:1008400080B540F21C10C2F2004001F0EDFE80BD08
:1008500080B540F29410C2F2004001F0E5FE80BD88
:1008600040F20F420168C4F20202914210DC6F2292
:10087000C4F20202914220DC3F22C4F20202914201
:1008800036DC1022C4F20202914254D028224EE0FB
:1008900040F26F42C4F2020291421ADC40F23F423F
:1008A000C4F2020291422ADC40F21042C4F2020277
:1008B000914240D040F2284239E09F22C4F2020225
:1008C000914225DC7022C4F20202914233D0882288
:1008D0002DE040F29F42C4F2020291421FDC40F23E
:1008E0007042C4F20202914225D040F288421EE0DA
:1008F0004022C4F2020291421DD0582217E040F279
:100900004042C4F20202914215D040F258420EE039
:10091000A022C4F2020291420DD0B82207E040F2B8
:10092000B842C4F20202914205D040F2A042C4F2A1
:10093000020291421AD1D0F800C06FF00F024AF6BD
:10094000AB2352FA8CF2CAF6AA23A2FB033109A305
:100950005F2AC1F302115B5C40F2FF312CEA010116
:10096000C36588BF0431816508467047016821F07E
:10097000FF01F8E700061016000610160000000040
:1009800010B545F257420168C5F6020291420EDCED
:1009900045F22F42C5F60202914217DC45F20842A9
:1009A000C5F60202914226D045F21C421FE045F2F4
:1009B0007F42C5F60202914211DC45F25842C5F66B
:1009C0000202914217D045F26C4210E045F23042EB
:1009D000C5F6020291420ED045F2444207E045F2CC
:1009E0009442C5F60202914205D045F28042C5F616
:1009F0000202914219D101784CF6CD42CCF6CC429C
:100A000045F600030839C5F60203A1FB021203F103
:100A10008001120903EB820302F01F020366012327
:100A2000416603FA02F1816610BD02784AF6AB23F3
:100A3000CAF6AA234FF0080E103AA2FB032340F295
:100A40000F42C4F202024FEA131C914202F1AA04BF
:100A5000624688BF0EEB131240F60003A142C4F2B7
:100A6000020303F1800128BF6246D3E700000000C3
:100A700010B50279511E072988BF10BD45F2574CA9
:100A800045F6FC0E0368C5F6020CC5F6020E63457A
:100A90000EF1440C0EDC45F22F44C5F60204A342CD
:100AA00017DC45F20844C5F60204A34226D045F2FD
:100AB0001C441FE045F27F44C5F60204A34211DC4A
:100AC00045F25844C5F60204A34217D045F26C44DF
:100AD00010E045F23044C5F60204A3420ED045F2C0
:100AE000444407E045F28044C5F60204A34205D021
:100AF00045F29444C5F60204A34209D10EEB8202EA
:100B0000C2660122C0F870C002FA01F1416710BD4F
:100B100040F6FC0EC4F2020E0EF1440CEEE70000AB
:100B20008169B1F5005F07D079B9816A022912D0D5
:100B3000012916D079B112E0816A03290FD8DFE8C4
:100B400001F0020A021001207047816A03293CBFAC
:100B50000120704703D1C06AC0F3006070470020D5
:100B60007047C06AA0F1C070B0FA80F040097047C9
:100B700070B540F26F44D0F800E0C4F20204D0F83F
:100B800058C0A64519DC9F25C4F20205AE4531DCEC
:100B90005725C4F20205AE4556DC1025C4F2020505
:100BA000AE4500F092802825C4F20205AE4500F063
:100BB0008C804025C4F2020584E045F22F45C5F63D
:100BC0000205AE452BDC40F2B745C4F20205AE4546
:100BD00048DC40F27045C4F20205AE4575D040F2E3
:100BE0008845C4F20205AE456FD040F2A045C4F27C
:100BF000020567E040F22745C4F20205AE4540DC3D
:100C0000A025C4F20205AE455FD0B825C4F20205A6
:100C1000AE455AD040F21045C4F2020552E045F20A
:100C20006B45C5F60205AE453CDC45F23045C5F6E0
:100C30000205AE4549D045F24445C5F60205AE452C
:100C400043D045F258453BE05825C4F20205AE4575
:100C50003BD07025C4F20205AE4536D08825C4F2DB
:100C600002052FE040F2B845C4F20205AE452CD093
:100C700045F20845C5F60205AE4526D045F21C45AD
:100C80001EE040F22845C4F20205AE451DD040F2F8
:100C90004045C4F20205AE4517D040F25845C4F2B3
:100CA00002050FE045F26C45C5F60205AE450CD0D5
:100CB00045F29445C5F60205AE4506D045F280459D
:100CC000C5F60205AE4540F0C980456EC66E002EE1
:100CD000866E6E601CBFD0E91C566E60A64515DCA2
:100CE0009F24C4F20204A6452BDC5724C4F202045C
:100CF000A6454EDC1024C4F20204A64576D0282472
:100D0000C4F20204A64571D040246BE045F22F44A2
:100D1000C5F60204A64527DC40F2B744C4F202043B
:100D2000A64542DC40F27044C4F20204A6455DD000
:100D300040F28844C4F20204A64557D040F2A044D1
:100D400050E040F22744C4F20204A6453CDCA02453
:100D5000C4F20204A64549D0B824C4F20204A64550
:100D600044D040F210443DE045F26B44C5F6020425
:100D7000A6454FDC45F23044C5F60204A6455BD0DB
:100D800045F24444C5F60204A64555D045F2584400
:100D90004EE05824C4F20204A64527D07024C4F2C1
:100DA0000204A64522D088241CE040F2B844C4F2D4
:100DB0000204A6451AD045F20844C5F60204A64529
:100DC0003AD045F21C4433E040F22844C4F2020415
:100DD000A6450BD040F24044C4F20204A64505D01B
:100DE00040F25844C4F20204A64537D104683F25B6
:100DF0008668C06D00F01F00402E05FA00F0CCF8A8
:100E00000800206820F480202060636021D0A16069
:100E1000E26070BD45F26C44C5F60204A6450BD0F5
:100E200045F28044C5F60204A64505D045F2944437
:100E3000C5F60204A64511D10468C66D806806F0A7
:100E40001F060125402805FA06F6CCF80460636009
:100E500002D1A260E16070BDA160E26070BD0000DF
:100E6000704700000000000080B5012002F01CFF68
:100E700080BD00000000000080B5022002F014FFD9
:100E800080BD00000000000072B600BFFEE7000059
:100E9000F0B581B000230093044690F85C0001286F
:100EA00001D1022535E0012084F85C002046164679
:100EB0000F46FFF7E1FB05460028206E02D040F008
:100EC000100022E041F202113246884339460230D6
:100ED0002066206805F040FE4FF60006C2F2C356B9
:100EE000206805F001FD60B1009801300090009885
:100EF000B042F5D3206E012540F0100020F0020032
:100F000003E0206E012161F301002066002084F8D7
:100F10005C00284601B0F0BD2DE9F04182B00446E6
:100F200090F85C00012803D1022002B0BDE8F081F6
:100F3000012084F85C0000200190009042F200073C
:100F4000C4F202072068B8420BD107F580780D463D
:100F5000404605F0E5FC0646206805F0E1FC30431C
:100F60000AD0206E40F0200020660120002184F885
:100F70005C1002B0BDE8F08146F200002168C5F6C1
:100F800002004145064608BF3E46B94208BF0E462C
:100F90002A6841F48071D6F80833002A23F44042CD
:100FA00015D042F2001C6B68C4F2020C614542EAA3
:100FB0000301C6F808131BD1384605F0A5FC074607
:100FC000404605F0A1FC3843B0B10020CEE742F224
:100FD0000013C6F80823C4F20203994216D138461A
:100FE00005F092FC0546404605F08EFC28430FE0D4
:100FF00005F08AFC0028E8D1D6F8080340F61F71F6
:1010000088432968AA680843104309E005F07CFC7E
:1010100008B10020AAE7D6F8080340F61F718843FC
:10102000C6F808030020A1E72DE9F04782B00022AE
:101030000192044690F85C00012803D1022002B01E
:10104000BDE8F087012084F85C0020680E4605F0BA
:1010500063FC28B1206E40F02000206601203FE2B2
:10106000326846F20008002AC5F6020811D420684A
:1010700040450ED092FAA2F1B1FA81F1130308BFF4
:10108000910E012301F01F0103FA01F1C369194315
:10109000C1612068716805F063FC206805F03CFCC4
:1010A0000546206805F010FC284305D0206805F0AF
:1010B00027FCC8B1002013E220683168B26805F04F
:1010C00097FC2068404552D041F20001C5F600412E
:1010D000096801F07041B1F1805F4FD17269C16858
:1010E0000E2303EA510355E0002720683168F268B7
:1010F000C4F2527705F090FCF06807F52D018842A4
:1011000040F0E9812068404500F0288142F200115A
:10111000C4F20201884200F0378142F20001C4F2B9
:101120000201884240F049811F223168C1F2F04239
:10113000914240F32F8140F2FF72C2F63062914239
:1011400040F3558140F60002C2F63062914200F051
:10115000A58141F20002C3F26022914200F0998120
:101160000022C4F22132914200F0B2819BE1726907
:10117000D8F80C10062303EA91030BE0C1687269EA
:10118000C368C9064FEA530102D401F00E0301E01F
:1011900001F00803316904292BD1404547D0016E85
:1011A000326801F0F841B1EB826F4FEA826103D1FE
:1011B000026E22F000420266426E02F0F8428A425B
:1011C00003D1426E22F000424266826E02F0F84283
:1011D0008A4203D1826E22F000428266C26E02F021
:1011E000F8428A427FF462AFC16E21F00041C166CD
:1011F0005CE702FA03F3326805F056FC20683169B7
:10120000404500F09A8096F82120013AB2FA82F225
:101210005209D20705F088FC307E0138B0FA80F11F
:1012200020684A093169D20205F032FC3EE74FF6E8
:10123000FF7700214046C0F20F0705F03DFB054651
:101240002068002105F038FB2A03326890FAA0F1EB
:10125000B1FA81F108BFC0F3846192FAA2F0B0FA4A
:1012600080F0130308BFC2F38460814203D1206879
:10127000002105F069FC2068012105F01DFB0546F1
:101280002068012105F018FB90FAA0F13268B1FA4C
:1012900081F13D4208BFC0F3846192FAA2F03A4264
:1012A000B0FA80F008BFC2F38460814203D12068A5
:1012B000012105F049FC2068022105F0FDFA0546F0
:1012C0002068022105F0F8FA90FAA0F13268B1FA2C
:1012D00081F13D4208BFC0F3846192FAA2F03A4224
:1012E000B0FA80F008BFC2F38460814203D1206865
:1012F000022105F029FC2068032105F0DDFA0546EE
:101300002068032105F0D8FA90FAA0F13268B1FA0A
:1013100081F13D4208BFC0F3846192FAA2F03A42E3
:10132000B0FA80F008BFC2F3846081427FF4BEAEA1
:101330002068032105F008FCB8E6F269084611466A
:1013400005F0E6FB96F820000138B0FA80F120683D
:101350004A093169520605F0CBFBA7E61F22316826
:10136000C1F2F04291422ADC0722C0F6904291423B
:101370005FDC0222C0F23042914258D00422C0F613
:101380006002914215D098E01F223168C1F2F0420C
:10139000914226DC0722C0F69042914237DC0222BD
:1013A000C0F23042914242D00422C0F66002914223
:1013B00079D14027C1F620178AE0002788E040F263
:1013C000FF72C2F63062914246DC2022C1F2F04246
:1013D000914227D040F20042C2F60022914211D041
:1013E0006BE040F2FF72C2F63062914245DC20228F
:1013F000C1F2F042914215D040F20042C2F6002202
:10140000914250D140F60007C2F6306760E00822F2
:10141000C0F6904291421BD01022C1F2C00291420C
:1014200011D040E040F20027C2F2B05750E001274F
:101430004EE00822C0F69042914209D01022C1F23B
:10144000C002914239D140F20017C2F280173FE04A
:101450008027C1F650573BE040F60002C2F63062EA
:1014600091421BD042F20002C3F29062914224D119
:1014700044F20007C3F6C0272AE040F60002C2F695
:10148000306291420AD041F20002C3F260229142DE
:1014900009D142F20007C3F2906719E041F2000758
:1014A000C3F2602714E000220027C4F68432914280
:1014B00004BF0027C4F6B8770AE044F20002002710
:1014C000C3F6C022914204BF48F20007C3F6F0679A
:1014D000394605F075FA3068B0F1FF3F06DD0020AF
:1014E000002184F85C1002B0BDE8F08742F20005EC
:1014F00008F54079C4F20205216805F5807705F505
:1015000040724846B94208BF1046A94208BF10467B
:1015100005F0CAF9216842F2001241F48071C4F268
:1015200002029142824608D1284605F0E9F90546B3
:10153000384605F0E5F9284302E0404605F0E0F9B9
:1015400000287FF487AD5FEA0A20316809D40020C3
:10155000CCF25270814204D1206840451DD0002059
:10156000BEE75FEACA1009D40020CCF221308142E4
:1015700004D12068404531D00020B1E75FEA4A201D
:101580004FF00000ACD40022CCF684329142A7D1B7
:101590002068404527D00020A2E74AF400014846D1
:1015A00005F06EFA40F2040042F66351C2F20040C8
:1015B000C0F23E5100688009A0FB010188090221A8
:1015C00001EB40000190019858B101980138019059
:1015D000019800284FF00000F7D181E74AF08071B0
:1015E00003E000207CE74AF48001484605F048FA11
:1015F000002075E70000000040F21A000121C2F24D
:10160000004001707047000040F21B000121C2F24F
:1016100000400170704700007047000000000000AB
:101620002DE9F04182B0044600284FF000000190FF
:1016300019D0206E30B9204600F03AF900206066DB
:1016400084F85C00206805F053F910B1206805F0BB
:1016500003F9206805F05CF938B1206805F058F905
:10166000E8B1002524E001251CE1206805F010F90F
:1016700040F2040042F66351C2F20040C0F23E5113
:1016800000688009A0FB0101012000EB911000BF60
:10169000019001980028E0D001980138F8E7206E09
:1016A000012540F010002066606E40F00100606689
:1016B000206805F031F9216E01F010010843206E19
:1016C00003D040F010000125EBE020F4817046F2D9
:1016D0000008023020662068C5F6020805F010F9FF
:1016E00040B3617EE26B2068404542EA41323AD025
:1016F000A168114394F82020012A41EA024106D151
:10170000626A0023CFF6FE7303EB42421143A26AE2
:1017100022B102F47872E36A1143194340452ED096
:1017200002464CF20307CFF6F07752F80C3F3B40ED
:10173000194334E0206842F2001140F48070C4F292
:10174000020142F200078842C4F2020761D1384622
:1017500005F0D6F8064607F5807005F0D1F830435D
:101760000028BED15BE0D4E90213082942EA030253
:1017700066D00C2966D01C2966D11021B9E744F245
:101780000703D8F80C20CFF6F0731A401143024635
:10179000C16052F8101F636B21F040611943116062
:1017A00005F0BAF80646206805F08EF8304369D196
:1017B000217E206840454FEA813102D0226B1143DF
:1017C00003E094F8382041EA4201C26844F203037E
:1017D0009A431143C16094F84410012915D14FF682
:1017E0001E014045CFF6004132D00269002711406A
:1017F000CFF6FF77D4E912231943236D07EB02429A
:101800001143626D194311432DE0016921F001017B
:101810002BE0404605F074F800287FF462AF07F52E
:10182000807007F5407221688142104618BF08F5A4
:101830004070B942616808BF104605F019F950E7D9
:10184000002156E7082154E7182918BF002150E766
:10185000D8F810201140D4E912231143226D194306
:10186000636D1143194341F0010101614045016974
:10187000226C21F0704141EA0201016102D0204650
:10188000FEF7CAFD20682169026B012922F00F01D1
:1018900002D1E269013A114301630121206E61F333
:1018A00001002066284602B0BDE8F081000000007B
:1018B00070B5B0B0044602A8B821FEF75BFD42F255
:1018C00000012068C4F20201884201D030B070BD2E
:1018D00000264FF40020029005200490642005901B
:1018E000042006900220CDE9070080200396CDE970
:1018F000090602A80B962A9602F05EFF08B1FFF7D0
:10190000C3FA44F2D840C5F60200016841F0200154
:101910000160016801F0200101910199816841F0A5
:101920000101816080684FF0007100F001000190BA
:1019300001984FF0007004F04BFC40F2A405102019
:10194000C2F20045C4F2020028600920C5E9010680
:101950004FF4806028614FF4006068614FF40050DC
:10196000EE60C5E906062846C5E9086601F030FCC8
:1019700008B1FFF789FAA565AC6330B070BD00000F
:101980002DE9F04F81B042F2000646F2000AC4F29F
:101990000206044606F54075036806F58077C5F62D
:1019A000020A2846BB4218BF0AF54070B34290466F
:1019B000894608BF284604F07BFF8346206804F070
:1019C000ABFF08B1022570E094F85C00012801D15A
:1019D00002256AE0BBF1090F4FF0010084F85C00BA
:1019E0004BD800FA0BF040F22121084245D02046A6
:1019F000FEF782FE20B10546002084F85C0054E02A
:101A0000206840F60172216EB84221EA020118BF37
:101A10000646BBF1000F01F58071216618BF8642B2
:101A200003D1216E21F480112166216E0022C904A8
:101A300040F2E15344BF626E22F0060240F2696751
:101A4000C0F600036266C0F60007A26D0021504593
:101A5000C2E90F3740F24963C0F60003D3644FF088
:101A60001C02026084F85C10416841F01001416082
:101A700008D0216B04F06CFF0CE00125002084F8F5
:101A80005C0012E094F83800400004F055FF206834
:101A900004F0F6FE21684A46A06D4031434601F04D
:101AA00063FE0546206804F073FF284601B0BDE8D8
:101AB000F08F000000000000B0B5044690F85C0014
:101AC000012801D10220B0BD012084F85C0003216F
:101AD0002046FEF719FD054618BB2168A06DCA68AF
:101AE00022F00302CA6090F83510022907D100F0F5
:101AF000B7FA054618B1206E40F040002066206815
:101B0000416821F0100141602046FEF7B5FD002D2F
:101B100008BF05462DB9206E41F2011188430130FE
:101B20002066002084F85C002846B0BD000000005C
:101B300080B582B040F2900040F20002C2F2004054
:101B4000C3F6000210214FF47A734FF0000CCDF869
:101B500000C000F0D9F902B080BD00000000000014
:101B60007047000000000000704700000000000007
:101B70002DE9F041044600284FF0010000F0AD804F
:101B80000D46002900F0A980607901284FF002007D
:101B900008BFBDE8F0812968164604294FF001020C
:101BA0006271207150D102F06FF921680746486BCD
:101BB000AEB1B0F1FF3F07DDA86948642DE000BF7A
:101BC0002168486B0028F7D502F05EF9C01B022897
:101BD000F6D32068406BB0F1FF3FF1DC13E048F230
:101BE0000008C2F2000801E02168486B10EA080F03
:101BF00011D002F049F9C01B0228F5D32068406BD0
:101C000010EA080FF0D0206940F00800206103209E
:101C10002071BDE8F081A8690864206806F0100210
:101C200040F2FF33816C9340EF69994307FA02F366
:101C30002F6A19438164FF21C36C914023EA01019B
:101C400007FA02F21143C164286901280BD1206808
:101C500006F010021F23816B93406F69994307FAC6
:101C600002F211438163216806F010020723C86B5A
:101C7000EF689340012F20EA030C4FF0000003D0DF
:101C8000022F03D1012705E0002703E0AF68B7FA70
:101C900087F77F092E68AB6837433B436F689340F3
:101CA00043EA0C03CB634FF480430E68934026EA6B
:101CB00003030B6040F6FE730E68934026EA0303AD
:101CC00097403B430B60C02303FA02F20B6823EA00
:101CD00002020A60012121716071BDE8F0810000FB
:101CE00080B582B040F22040C2F20040017831B3AA
:101CF00040F20C410122C2F200414FF0000C80F88A
:101D000000C040F290000A7041F68032C2F20040FA
:101D1000C3F60002002140F6C413CDF800C000F065
:101D2000F3F840F21C0042F62071C2F20040C3F604
:101D300000014FF4FA62FFF723FE02B080BD40F2CB
:101D40008C010122C2F20041027040F2900040F684
:101D5000C4130A7040F2E072C2F20040C3F60002FF
:101D600000214FF0000CCDF800C000F0CDF802B01B
:101D700080BD00000000000070470000000000006F
:101D8000704700000000000078B110B504460079EB
:101D900020B900206071204600F00AF8022020716E
:101DA000002020610121217110BD01207047000039
:101DB0002DE9F04F87B047F2004104460068C4F2B5
:101DC000000100268842CDE9056604960396029636
:101DD00002D007B0BDE8F08F44F2E04040F228089E
:101DE000C5F60200C4F20208816841F0005181602A
:101DF000816801F0005101910199016841F00101F0
:101E00000160006802A900F00100019001983020F3
:101E10000290032003900020C5F60200049601F012
:101E20004FFF40F21C154320C2F2004540274FF4FB
:101E300080694FF4006A68602846C5F800804FF456
:101E4000005BC5E90276C5F81090C5F814A0C5E995
:101E500006B6C5E9086601F0BBF908B1FFF714F84A
:101E6000A56008F11800AC6340F29415C2F2004579
:101E700005F10C0128604420C5E9010700206862D3
:101E800081E8010EC5E90700284601F0A1F908B173
:101E9000FEF7FAFFE560AC6307B0BDE8F08F000025
:101EA00080B500B34279012A4FF0020229D04FF0E9
:101EB000010C80F805C0027101F0100E02680CFAE6
:101EC0000EFC0029136843EA0C03136011680CD060
:101ED000022301F4781103FA0EF399420DD15168EF
:101EE00041F0020108E0012080BD01F03E0102291D
:101EF00003D1516841F001015160002201210171BB
:101F00004271104680BD000070B560B30446407950
:101F100001284FF0020008BF70BD0D46DDF810C06B
:101F20004FF0010161712071FDB1E16840F2D1769D
:101F300040F6210E2068C0F60006C0F6000EC1E98A
:101F40000F6E40F2F976BCF1040FC0F60006CE64C5
:101F5000016841F08051016025D0BCF1000F25D10E
:101F600000F1140C2AE0012070BDA16840F2C17E8E
:101F700040F611062068C0F6000EC0F60006C1E962
:101F80000FE640F2E176BCF1040FC0F60006CE6425
:101F9000016841F4805101600BD0BCF1000F0BD1FE
:101FA00000F1080C0AE000F1180C07E000F11C0C2D
:101FB00004E000F10C0C01E000F1100C2068016855
:101FC0002DB141F00051016004F10C0004E041F436
:101FD0000051016004F1080000681146624601F0FA
:101FE000C3FB4FF00001617120B1216941F0040190
:101FF000216170BD216805F01002012303FA02F28D
:102000000B681A430A6070BD70B54FF0010418B335
:102010000546006801F010024FF4805303FA02FCF9
:10202000036823EA0C0303600C230029016804FA07
:1020300002F208BF08236FF0005621EA0201016096
:1020400008BF6FF40056E85800F00AF828680168E5
:10205000314001602C710024204670BD000000005A
:102060002DE9F041044601F00FFF04B3054694F852
:10207000350002281ED140F20F472068C4F2020743
:1020800040F26F48B842C4F2020817DC6F21C4F274
:102090000201884223DC3F21C4F20201884239DC7C
:1020A0001021C4F20201884258D0282151E00120B9
:1020B000BDE8F081802060650120ADE240451ADC7A
:1020C00040F23F41C4F2020188422ADC40F2104152
:1020D000C4F20201884241D040F2284139E09F21F8
:1020E000C4F20201884225DC7021C4F20201884258
:1020F00034D088212DE040F29F41C4F20201884291
:102100001FDC40F27041C4F20201884226D040F246
:1021100088411EE04021C4F2020188421ED05821AD
:1021200017E040F24041C4F20201884216D040F26A
:1021300058410EE0A021C4F2020188420ED0B8211D
:1021400007E040F2B841C4F20201884206D040F2F2
:10215000A041C4F20201884240F0EA8121680A6885
:10216000B84222F001020A6010DC6F21C4F20201C1
:1021700088421CDC3F21C4F20201884232DC10217B
:10218000C4F20201884251D028214AE040451ADCBD
:1021900040F23F41C4F2020188422ADC40F2104181
:1021A000C4F20201884241D040F2284139E09F2127
:1021B000C4F20201884225DC7021C4F20201884287
:1021C00034D088212DE040F29F41C4F202018842C0
:1021D0001FDC40F27041C4F20201884226D040F276
:1021E00088411EE04021C4F2020188421ED05821DD
:1021F00017E040F24041C4F20201884216D040F29A
:1022000058410EE0A021C4F2020188420ED0B8214C
:1022100007E040F2B841C4F20201884206D040F221
:10222000A041C4F20201884240F0848126683168EE
:1022300021F01E02314641F8142B6FF080020B682A
:10224000404502EA03020A6019DC9F21C4F2020140
:10225000884231DC5721C4F20201884256DC102149
:10226000C4F20201884200F091802821C4F20201E8
:10227000884200F08B804021C4F2020184E045F2E4
:102280002F41C5F6020188422BDC40F2B741C4F26F
:102290000201884248DC40F27041C4F202018842E7
:1022A00074D040F28841C4F2020188426ED040F2FC
:1022B000A041C4F2020167E040F22741C4F20201EA
:1022C000884240DCA021C4F2020188425ED0B821DD
:1022D000C4F20201884259D040F21041C4F2020116
:1022E00052E045F26B41C5F6020188423CDC45F202
:1022F0003041C5F60201884248D045F24441C5F656
:102300000201884242D045F258413BE05821C4F2D4
:10231000020188423AD07021C4F20201884235D0CD
:102320008821C4F202012FE040F2B841C4F2020158
:1023300088422BD045F20841C5F60201884225D0DB
:1023400045F21C411EE040F22841C4F202018842DD
:102350001CD040F24041C4F20201884216D040F243
:102360005841C4F202010FE045F26C41C5F602018A
:1023700088420BD045F29441C5F60201884205D04F
:1023800045F28041C5F60201884205D1206E016800
:1023900021F48071016000BF3068C0070BD001F0EC
:1023A00073FD401B0628F7D320206065032084F8C6
:1023B0003500012030E12068B84210DC6F21C4F202
:1023C000020188421CDC3F21C4F20201884232DC57
:1023D0001021C4F20201884250D028214AE0404531
:1023E0001ADC40F23F41C4F2020188422ADC40F28A
:1023F0001041C4F20201884240D040F2284139E045
:102400009F21C4F20201884225DC7021C4F202013E
:10241000884233D088212DE040F29F41C4F202016E
:1024200088421FDC40F27041C4F20201884225D08C
:1024300040F288411EE04021C4F2020188421DD0D2
:10244000582117E040F24041C4F20201884215D001
:1024500040F258410EE0A021C4F2020188420DD0A2
:10246000B82107E040F2B841C4F20201884205D029
:1024700040F2A041C4F20201884260D1D4E91612B0
:1024800002F01F023F2303FA02F28A60404560DC3B
:102490009F21C4F20201884214DC5721C4F20201D8
:1024A000884226DC1021C4F20201884200F0A48098
:1024B0002821C4F20201884200F09E804021C4F22B
:1024C000020197E040F22741C4F2020188421EDC7B
:1024D000A021C4F20201884200F08E80B821C4F22B
:1024E0000201884200F0888040F21041C4F20201EB
:1024F00080E05821C4F2020188427DD07021C4F2EC
:102500000201884278D08821C4F2020172E040F2D0
:102510002841C4F2020188426ED040F24041C4F228
:102520000201884268D040F25841C4F2020161E0E1
:10253000014614E621686FF00E020E467FE6D4E9EC
:10254000161202F01F02012303FA02F24A6040450C
:102550009EDD45F22F41C5F60201884216DC40F2AD
:10256000B741C4F20201884225DC40F27041C4F256
:102570000201884240D040F28841C4F20201884200
:102580003AD040F2A041C4F2020133E045F26B417F
:10259000C5F6020188421DDC45F23041C5F6020154
:1025A000884229D045F24441C5F60201884223D031
:1025B00045F258411CE040F2B841C4F202018842A1
:1025C0001AD045F20841C5F60201884214D045F2FE
:1025D0001C410DE045F26C41C5F6020188420BD06A
:1025E00045F29441C5F60201884205D045F280418A
:1025F000C5F6020188420BD1616EA26EE06E4A60A0
:1026000030B1016821F480710160D4E91C0141609E
:10261000012084F835000020002184F83410BDE842
:10262000F0810000000000002DE9F04381B000219E
:10263000009140F204010446C2F2004140F26F49A9
:10264000A56DC4F20209086848F2B511C1F64E3111
:102650002668A0FB01084E452F682A6815DC9F20DC
:10266000C4F2020086422BDC5720C4F202008642EC
:102670004FDC1020C4F20200864278D02820C4F239
:102680000200864273D040206CE045F22F40C5F630
:102690000200864227DC40F2B740C4F202008642C4
:1026A00043DC40F27040C4F2020086425FD040F248
:1026B0008840C4F20200864259D040F2A04051E066
:1026C00040F22740C4F2020086423DDCA020C4F262
:1026D000020086424BD0B820C4F20200864246D0A7
:1026E00040F210403EE045F26B40C5F602008642E3
:1026F00074DC45F23040C5F60200864200F081806D
:1027000045F24440C5F6020086427AD045F2584070
:1027100072E05820C4F20200864228D07020C4F231
:102720000200864223D088201CE040F2B840C4F268
:10273000020086421BD045F20840C5F602008642E0
:102740005FD045F21C4057E040F22840C4F202003E
:1027500086420CD040F24040C4F20200864206D0CD
:1027600040F25840C4F20200864240F0EF84E06D2F
:1027700000F01F01082000FA01F23A4200F0148133
:1027800040F20F40C4F20200864213DC6F20C4F214
:102790000200864200F38E803F20C4F2020086428F
:1027A00000F3CF801020C4F20200864200F0ED80DA
:1027B0002820E5E04E4500F3898040F23F40C4F216
:1027C0000200864200F3C48040F21040C4F20200CE
:1027D000864200F0DA8040F22840D1E045F26C40B9
:1027E000C5F6020086420CD045F28040C5F60200D4
:1027F000864206D045F29440C5F60200864240F07B
:10280000A5842068E16D01F01F010368580727D5F2
:102810000420884010EA020722D01904686000F101
:102820008780980600F18E8440F20F40C4F20200C7
:10283000864200F3AD836F20C4F20200864200F3AB
:10284000E8833F20C4F20200864200F35284102045
:10285000C4F20200864200F06F84282000F068BCB9
:10286000980742D50220884010EA02073DD019049B
:10287000686000F10C83980600F19A8440F20F40E2
:10288000C4F20200864200F3B1836F20C4F202005A
:10289000864200F313843F20C4F20200864200F314
:1028A00058841020C4F20200864200F0758428206B
:1028B00000F06EBC9F20C4F20200864251DC702002
:1028C000C4F20200864260D0882059E040F29F4066
:1028D000C4F2020086424BDC40F27040C4F20200B7
:1028E000864252D040F288404AE0180740F12E84D8
:1028F00008208840104000F0298440F20F40C4F2C4
:102900000200864200F32E836F20C4F2020086424A
:1029100000F351833F20C4F20200864200F3958306
:102920001020C4F20200864200F0B3832820ABE3FB
:10293000D80300F1B282216C002940F00E8300F030
:1029400005BC4020C4F2020086421ED0582017E089
:1029500040F24040C4F20200864216D040F2584095
:102960000EE0A020C4F2020086420ED0B82007E09C
:1029700040F2B840C4F20200864206D040F2A040C5
:10298000C4F20200864240F090822068042300686E
:10299000184209D02068036823F004030360AA608A
:1029A000606D40F001006065012000FA01F23A42DA
:1029B00070D040F20F40C4F20200864210DC6F205B
:1029C000C4F2020086421CDC3F20C4F202008642B0
:1029D00032DC1020C4F20200864251D028204AE0A6
:1029E0004E451ADC40F23F40C4F2020086422ADC27
:1029F00040F21040C4F20200864241D040F228402A
:102A000039E09F20C4F20200864225DC7020C4F227
:102A10000200864234D088202DE040F29F40C4F26C
:102A2000020086421FDC40F27040C4F2020086427F
:102A300026D040F288401EE04020C4F202008642C8
:102A40001ED0582017E040F24040C4F202008642F7
:102A500016D040F258400EE0A020C4F20200864298
:102A60000ED0B82007E040F2B840C4F2020086421F
:102A700006D040F2A040C4F20200864240F0188224
:102A80002068406900F0800020B1AA60606D40F0CD
:102A900002006065042000FA01F23A4270D040F270
:102AA0000F40C4F20200864210DC6F20C4F2020024
:102AB00086421CDC3F20C4F20200864232DC102039
:102AC000C4F20200864251D028204AE04E451ADC6A
:102AD00040F23F40C4F2020086422ADC40F210403D
:102AE000C4F20200864241D040F2284039E09F20E3
:102AF000C4F20200864225DC7020C4F20200864245
:102B000034D088202DE040F29F40C4F2020086427B
:102B10001FDC40F27040C4F20200864226D040F230
:102B200088401EE04020C4F2020086421ED0582099
:102B300017E040F24040C4F20200864216D040F254
:102B400058400EE0A020C4F2020086420ED0B82009
:102B500007E040F2B840C4F20200864206D040F2DC
:102B6000A040C4F20200864240F0A88120680068BC
:102B700000F0020020B1AA60606D40F004006065C2
:102B8000102000FA01F139427ED040F20F40C4F229
:102B90000200864210DC6F20C4F2020086421CDC78
:102BA0003F20C4F20200864232DC1020C4F2020050
:102BB000864251D028204AE04E451ADC40F23F4080
:102BC000C4F2020086422ADC40F21040C4F2020045
:102BD000864241D040F2284039E09F20C4F20200F2
:102BE000864225DC7020C4F20200864234D0882060
:102BF0002DE040F29F40C4F2020086421FDC40F20A
:102C00007040C4F20200864226D040F288401EE0A6
:102C10004020C4F2020086421ED0582017E040F245
:102C20004040C4F20200864216D040F258400EE006
:102C3000A020C4F2020086420ED0B82007E040F285
:102C4000B840C4F20200864206D040F2A040C4F26E
:102C50000200864240F0388126680822306810421F
:102C600012D0A960206801684903016806D4C9052B
:102C700006D4016821F00801016001E008034FD487
:102C8000216C09B120468847E06D202100F01F002B
:102C90008140394200F0AC8040F20F432268C4F218
:102CA00002039A4210DC6F23C4F202039A421CDC36
:102CB0003F23C4F202039A4236DC1023C4F202031B
:102CC0009A4255D028234EE04A451ADC40F23F4351
:102CD000C4F202039A422EDC40F21043C4F2020313
:102CE0009A4245D040F228433DE09F23C4F20203BC
:102CF0009A4229DC7023C4F202039A4238D0882316
:102D000031E040F29F43C4F202039A4223DC40F2D6
:102D10007043C4F202039A422AD040F2884322E070
:102D2000A16C0029AED1AFE74023C4F202039A425E
:102D30001ED0582317E040F24043C4F202039A42E7
:102D400016D040F258430EE0A023C4F202039A4288
:102D50000ED0B82307E040F2B843C4F202039A420F
:102D600006D040F2A043C4F202039A4240F0AE8083
:102D70002268102312681A423AD0A96094F83520CC
:102D80002168042A0A681DD122F016020A604A69E5
:102D900022F080024A61226C0AB9A26C1AB10A6858
:102DA00022F008020A603F2101FA00F0A860012029
:102DB00084F83500216D0020002984F8340040F0AB
:102DC000CC80C3E1500308680CD4C0050CD408685B
:102DD00020F010000860012084F83500002084F8FD
:102DE000340001E000035CD4E16B09B12046884760
:102DF000606D002800F0AA81606DC00700F0A98016
:102E0000042084F8350040F20F412068C4F202012A
:102E1000884210DC6F21C4F2020188421CDC3F2191
:102E2000C4F20201884253DC1021C4F2020188423C
:102E300073D028216BE048451ADC40F23F41C4F2D0
:102E4000020188424BDC40F21041C4F20201884288
:102E500063D040F228415AE09F21C4F20201884227
:102E600046DC7021C4F20201884256D088214EE02F
:102E700040F29F41C4F20201884240DC40F27041BE
:102E8000C4F20201884248D040F288413FE0D803B2
:102E90007AD4616C002960D158E1A16C00295CD121
:102EA00054E1616C0029A1D1A2E7082330466EE508
:102EB0003068002000287FF4E8ADEBE530680020A2
:102EC00000287FF458AE5BE60422C7E6022351E7F0
:102ED0004021C4F2020188421FD0582117E040F27D
:102EE0004041C4F20201884217D040F258410EE03E
:102EF000A021C4F2020188420FD0B82107E040F2BD
:102F0000B841C4F20201884207D040F2A041C4F2A5
:102F10000201884208BF206800E020684FEA98213B
:102F2000026822F00102026000980130009088429D
:102F300003D820680068C007F6D120680068C00781
:102F40004FF0030008BF012084F83500002084F80A
:102F50003400E16C002900F0F9802046884701B078
:102F6000BDE8F0834E4532DC40F23F40C4F202003F
:102F7000864271DC40F21040C4F20200864200F04A
:102F8000888040F228407FE0E16B0029E5D1DDE058
:102F90004E454BDC40F23F40C4F20200864200F353
:102FA000AF8040F21040C4F20200864200F0C480BC
:102FB00040F22840BCE09F20C4F20200864254DC6C
:102FC0007020C4F20200864263D088205CE040F2A8
:102FD0009F40C4F2020086424EDC40F27040C4F2D0
:102FE0000200864255D040F288404DE04E4571DCEB
:102FF00040F23F40C4F20200864200F3B18040F24A
:103000001040C4F20200864200F0C68040F2284020
:10301000BEE09F20C4F2020086427ADC7020C4F237
:103020000200864200F08880882081E040F29F40C4
:10303000C4F20200864273DC40F27040C4F2020027
:10304000864279D040F2884072E04020C4F202000B
:1030500086421ED0582017E040F24040C4F20200E1
:10306000864216D040F258400EE0A020C4F2020082
:1030700086420ED0B82007E040F2B840C4F2020009
:10308000864206D040F2A040C4F20200864240F0E0
:10309000948026686FF01C02306810403060012078
:1030A00000FA01F16960606584F835000020E16C88
:1030B00084F8340000297FF450AF47E09F20C4F229
:1030C0000200864255DC7020C4F20200864263D0C2
:1030D00088205DE040F29F40C4F2020086424FDC4F
:1030E00040F27040C4F20200864255D040F288405F
:1030F0004EE04020C4F2020086421DD0582017E066
:1031000040F24040C4F20200864215D040F25840DE
:103110000EE0A020C4F2020086420DD0B82007E0E5
:1031200040F2B840C4F20200864205D040F2A0400E
:10313000C4F20200864243D126686FF0080130686D
:1031400008403060216C00297FF407AF01B0BDE872
:10315000F0834020C4F2020086421DD0582017E0C0
:1031600040F24040C4F20200864215D040F258407E
:103170000EE0A020C4F2020086420DD0B82007E085
:1031800040F2B840C4F20200864205D040F2A040AE
:10319000C4F20200864216D126686FF0140130682E
:1031A00008403060012084F83500002084F83400A5
:1031B000E16B00297FF4D1AEC8E76FF00E026BE738
:1031C0006FF00401BBE76FF00A01E8E700000000C0
:1031D0002DE9F04381B0044600F056FE002C00F0CB
:1031E000738140F26F4805462068C4F202084045EA
:1031F00015DC9F21C4F2020188422BDC5721C4F266
:103200000201884251DC1021C4F2020188427AD0C6
:103210002821C4F20201884275D040216EE045F2B7
:103220002F41C5F60201884227DC40F2B741C4F2C3
:103230000201884245DC40F27041C4F2020188423A
:1032400061D040F28841C4F2020188425BD040F272
:10325000A04153E040F22741C4F2020188423FDC22
:10326000A021C4F2020188424DD0B821C4F202016B
:10327000884248D040F2104140E045F26B41C5F62B
:103280000201884200F3908045F23041C5F6020108
:10329000884200F09C8045F24441C5F60201884214
:1032A00000F0958045F258418CE05821C4F20201AB
:1032B000884228D07021C4F20201884223D088219C
:1032C0001CE040F2B841C4F2020188421BD045F232
:1032D0000841C5F60201884279D045F21C4171E0EF
:1032E00040F22841C4F2020188420CD040F2404131
:1032F000C4F20201884206D040F25841C4F20201F1
:10330000884240F0288240F20F420221C4F20202B9
:1033100084F8351090424FF0000184F8341012DC2C
:103320006F21C4F20201884220DC3F21C4F2020175
:10333000884200F391801021C4F20201884200F01B
:10334000B0802821A7E040451EDC40F23F41C4F296
:103350000201884200F3878040F21041C4F202016A
:10336000884200F09E8040F2284194E09F21C4F200
:103370000201884200F380807021C4F20201884279
:1033800000F08F80882186E040F29F41C4F2020164
:10339000884278DC40F27041C4F20201884200F0B9
:1033A000808040F2884176E045F26C41C5F602012A
:1033B00088420CD045F28041C5F60201884206D011
:1033C00045F29441C5F60201884240F0C48104F1FF
:1033D000080E022084F8350000209EE80640A1F186
:1033E000800384F83400B3FA83F320685B09402932
:1033F000D4E90576D4E9079C05684FEA83336FF377
:10340000101508BF102345EAD2014AF6F8321943D5
:10341000CAF2FD7241EADE014CF6CD4341EAD70122
:10342000024441EAD601CCF6CC4341EAD901A2FBE1
:10343000032341EA1C1101606FF0030000EA9300CE
:10344000E0652046FDF70CFAE16D012201F01F0155
:1034500002FA01F14160B2E04021C4F20201884267
:103460001FD0582117E040F24041C4F202018842C7
:1034700017D040F258410EE0A021C4F20201884268
:103480000FD0B82107E040F2B841C4F202018842EF
:1034900007D040F2A041C4F20201884208BF206870
:1034A00000E02068016821F00101016027683868A8
:1034B000C0070DD000F0E8FC401B0628F6D3202002
:1034C0006065032084F83500012001B0BDE8F08379
:1034D00048F23F0104F108053868CFF61061084052
:1034E0002ECD0843A1691043E2691843236A0543BE
:1034F000606A2943042841EA020141EA030103D139
:10350000D4E90B23114319436268A2F12903292B43
:1035100000F223810125DFE813F02A002A002A00A7
:103520002A002A002A002001200120012001200178
:103530002001200120012001200120012001200183
:103540002001200120012A002A002A002A0020014F
:103550002001200120012A002A0020012001200151
:103560002001200120012A002A002A002A00002D23
:1035700018BF41F4801104283960796921F00701EE
:1035800041EA000510D1D4E90A1045EA010558B115
:103590002046FDF7C5FA38B140206065012084F867
:1035A000350001B0BDE8F08320467D61FDF758F994
:1035B000E16D3F2201F01F0102FA01F181602068F4
:1035C000404519DC9F21C4F20201884231DC5721B9
:1035D000C4F20201884256DC1021C4F20201884282
:1035E00000F091802821C4F20201884200F08B8013
:1035F0004021C4F2020184E045F22F41C5F60201E8
:1036000088422BDC40F2B741C4F20201884248DC18
:1036100040F27041C4F20201884274D040F2884105
:10362000C4F2020188426ED040F2A041C4F202010D
:1036300067E040F22741C4F20201884240DCA02149
:10364000C4F2020188425ED0B821C4F2020188426D
:1036500059D040F21041C4F2020152E045F26B41F0
:10366000C5F6020188423CDC45F23041C5F6020154
:10367000884248D045F24441C5F60201884242D012
:1036800045F258413BE05821C4F2020188423AD049
:103690007021C4F20201884235D08821C4F20201AF
:1036A0002FE040F2B841C4F2020188422BD045F22B
:1036B0000841C5F60201884225D045F21C411EE0B2
:1036C00040F22841C4F2020188421CD040F240413D
:1036D000C4F20201884216D040F25841C4F20201FD
:1036E0000FE045F26C41C5F6020188420BD045F26D
:1036F0009441C5F60201884205D045F28041C5F6E5
:10370000020188421FD12046FDF73AF9A0688028BF
:1037100001D10020606004F160036068C7B2013825
:103720000ECB07280F60536009D82046FDF7A0F99B
:1037300004F16C02002307CA03604A6003E0002022
:103740006067C4E91B0000206065012184F8351022
:1037500001B0BDE8F0834020B2E622F00302743AE3
:10376000B2FA82F2550902E7F0B581B0A8B3044677
:1037700090F83400012802D1022001B0F0BD0120F0
:1037800084F8340094F83500012820D1022084F810
:1037900035000020606540F20F462068C4F2020642
:1037A00040F26F47B042C4F2020719DC6F25C4F241
:1037B0000205A84225DC3F25C4F20205A8423BDCF5
:1037C0001025C4F20205A8425BD0282553E04FF42F
:1037D00000606065002084F83400012001B0F0BD75
:1037E000B8421ADC40F23F45C4F20205A8422ADC86
:1037F00040F21045C4F20205A84242D040F22845EA
:1038000039E09F25C4F20205A84225DC7025C4F2E8
:103810000205A84235D088252DE040F29F45C4F22C
:103820000205A8421FDC40F27045C4F20205A8421E
:1038300027D040F288451EE04025C4F20205A84288
:103840001FD0582517E040F24045C4F20205A842B7
:1038500017D040F258450EE0A025C4F20205A84258
:103860000FD0B82507E040F2B845C4F20205A842DF
:1038700007D040F2A045C4F20205A84208BF206864
:1038800000E02068056825F0010505602046FDF789
:103890006FF92068B04210DC6F21C4F20201884247
:1038A0001CDC3F21C4F20201884232DC1021C4F248
:1038B0000201884251D028214AE0B8421ADC40F285
:1038C0003F41C4F2020188422ADC40F21041C4F2B6
:1038D0000201884241D040F2284139E09F21C4F2E0
:1038E0000201884225DC7021C4F20201884234D0F2
:1038F00088212DE040F29F41C4F2020188421FDC82
:1039000040F27041C4F20201884226D040F2884160
:103910001EE04021C4F2020188421ED0582117E067
:1039200040F24041C4F20201884216D040F25841B0
:103930000EE0A021C4F2020188420ED0B82107E0B7
:1039400040F2B841C4F20201884206D040F2A041E0
:10395000C4F20201884240F0298121680B25226CC3
:103960000B6865F344030B601AB10A6842F0080261
:103970000A60B84219DC9F21C4F20201884231DC9E
:103980005721C4F20201884256DC1021C4F2020120
:10399000884200F091802821C4F20201884200F0A0
:1039A0008B804021C4F2020184E045F22F41C5F62C
:1039B000020188422BDC40F2B741C4F20201884286
:1039C00048DC40F27041C4F20201884274D040F2F7
:1039D0008841C4F2020188426ED040F2A041C4F294
:1039E000020167E040F22741C4F20201884240DC54
:1039F000A021C4F2020188425ED0B821C4F20201C3
:103A0000884259D040F21041C4F2020152E045F21E
:103A10006B41C5F6020188423CDC45F23041C5F6F7
:103A20000201884248D045F24441C5F6020188426D
:103A300042D045F258413BE05821C4F2020188428D
:103A40003AD07021C4F20201884235D08821C4F2F4
:103A500002012FE040F2B841C4F2020188422BD0AB
:103A600045F20841C5F60201884225D045F21C41C5
:103A70001EE040F22841C4F2020188421CD040F20C
:103A80004041C4F20201884216D040F25841C4F2CB
:103A900002010FE045F26C41C5F6020188420BD0ED
:103AA00045F29441C5F60201884205D045F28041B5
:103AB000C5F60201884272D1216E0A68D20303D58D
:103AC0000A6842F480720A60E16E19B10A6842F431
:103AD00080720A60B04210DC6F21C4F20201884299
:103AE0001CDC3F21C4F20201884232DC1021C4F206
:103AF0000201884252D028214AE0B8421ADC40F242
:103B00003F41C4F2020188422ADC40F21041C4F273
:103B10000201884242D040F2284139E09F21C4F29C
:103B20000201884225DC7021C4F20201884235D0AE
:103B300088212DE040F29F41C4F2020188421FDC3F
:103B400040F27041C4F20201884227D040F288411D
:103B50001EE04021C4F2020188421FD0582117E024
:103B600040F24041C4F20201884217D040F258416D
:103B70000EE0A021C4F2020188420FD0B82107E074
:103B800040F2B841C4F20201884207D040F2A0419D
:103B9000C4F20201884208BF206800E02068016882
:103BA00041F001010160002001B0F0BD2168052550
:103BB000226C0B68002A65F343030B603FF4D9AE17
:103BC0000A6842F00402D3E6B0B5A2B0012815D0CD
:103BD000022833D141F200400221C5F60200A0F5CF
:103BE000006000F041F901282AD129A004F0C2FDAB
:103BF00003F052FC02F0C4FF22B0B0BD41F2004518
:103C00004021C5F602050022284600F035F940F2B1
:103C10000C2040F20E42C2F20040C2F2004202A961
:103C200012234FF0FF34009402F0CAF84021012221
:103C3000284600F021F907A004F09CFD22B0B0BD99
:103C400009A004F097FD03F08FFC0CA004F092FD96
:103C500022B0B0BD73706920706172616D732075A0
:103C600070646174656421005363616E6E696E6790
:103C70002073746F707065640000000073706920B9
:103C80007472616E732066696E69736865640000A2
:103C90005363616E6E696E672073746172746564DC
:103CA000000000000000000080B58821C5F600017A
:103CB0000A68024208BF80BD0860FFF785FF80BD2B
:103CC0002DE9F04F83B00C68002C00F0C78000F1A4
:103CD000264242F2004702F1FF72C5F602074FEAA0
:103CE000B22201920A22B84208BF09220025002709
:103CF0004FF00108009209E00C68043734FA08F22A
:103D000008F1010805F1020500F0A880A8F1010AF8
:103D1000012202FA0AFE14EA0E09EDD0D1F804B02D
:103D20000BF00304A4F1010CBCF1010F11D8032224
:103D30008668AA40CB6826EA0202AB401A4382603A
:103D4000CBF30013426822EA0E0203FA0AF31A4385
:103D50004260032C02D18A68012A08D00323C2687A
:103D6000AB408E689A4306FA05F31A43C260022CF0
:103D700011D16FF0030207F01C0602EA5A020F236A
:103D8000024403FA06F4D2F820C00B692CEA0404BA
:103D9000B3402343136203230268AB404E689A4347
:103DA00006F00303AB4016F4403F42EA0302026010
:103DB000A2D044F2F44340F2084EC5F60203C5F621
:103DC000000E1A6842F002021A601A6807F00C032B
:103DD00002F002020292029A2AF00302019C009E63
:103DE000082C38BF26460F2452F80EC09C402CEAFF
:103DF000040406FA03F34FF0B04C234342F80E30AC
:103E0000DCF800204B6842EA0906DC0258BF22EACF
:103E100009069C02CCF8006040F2040CC5F6000CC8
:103E2000DCF8002042EA090658BF22EA09069C0392
:103E3000CCF80060DCF8802042EA090658BF22EA8C
:103E40000906DB03CCF88060DCF87C2042EA090636
:103E500058BF22EA0906CCF87C604DE703B0BDE804
:103E6000F08F0000000000000069084018BF01202A
:103E70007047000000000000002A08BF09048161AB
:103E8000704700000000000040F22840C2F20040ED
:103E9000006870470000000040F20C0040F228412A
:103EA000C2F20040C2F2004100780A681044086083
:103EB000704700000000000080B5032000F0D0F83B
:103EC00001F0CAFA44F2184148F29873C5F60201AB
:103ED000C0F600030A68096801F00F01C2F303226B
:103EE000595C9A5C01F01F0102F01F02D04040F2C1
:103EF0000802C2F2004220FA01F1116040F204010E
:103F0000C2F2004108600F2000F00AF800281CBF30
:103F1000012080BD00F080F8002080BD000000007E
:103F2000B0B540F20C01C2F20041097801B3044679
:103F300040F20400C2F200404FF47A72B2FBF1F199
:103F40000068B0FBF1F002F04FF90F2C4FF00105C3
:103F50000CD858B94FF0FF3000222146002500F060
:103F60006FF840F21000C2F2004004602846B0BD75
:103F70000120B0BD0000000010B54EF6A05E4178F3
:103F8000CEF2000E90F800C04EF8081CDEF80010CB
:103F900021F00101CEF8001041684EF8041C017BAD
:103FA000C37A827A447B1B0643EA0171837B41EA30
:103FB000C241C27B41EA8441447A41EA4341007AEA
:103FC00041EA024141EA042141EA400040EA0C0092
:103FD000CEF8000010BD00004EF62450CEF20000D6
:103FE000BFF35F8F016821F4803101600021016718
:103FF00070470000000000004EF6245140F0010020
:10400000CEF200010867086840F480300860BFF312
:104010004F8FBFF36F8F704781B044F2F440C5F605
:104020000200016841F002010160006800F0020036
:104030000090009801B0704780B504F005F980BD8C
:1040400070B514460D46064604F00EF92946224680
:1040500003F062F80146304604F00EF970BD00002E
:1040600080B504F01DF980BD70B544F60C06044619
:10407000C5F602063168306801F00701062913D140
:1040800020F03F0020433060FFF7FEFE054600BFF2
:1040900056F8080C80040DD4FFF7F6FE401BB0F56F
:1040A0007A7FF5D9012070BD00F03F00001B18BFDA
:1040B000012070BDA4F11D010020112914D8012296
:1040C00002FA01F111F0031F0ED0FFF7DDFE0446E6
:1040D000306800F01100112807D0FFF7D5FE001B53
:1040E000B0F57A7FF4D9012070BD002070BD0000CA
:1040F00080B501F061F944F2204148F29872C5F6AA
:104100000201C0F600020968C1F30211515C01F01E
:104110001F01C84080BD000080B544F2304EC5F696
:10412000020E5EF8083C5EF8081CC1F3051C5EF840
:10413000041CBCF1000FDEF8042016D0C2F3CC0240
:1041400001F00101514303F00303022B00EE101AAA
:10415000B8EE400A0ED0012B0FD01BB95EF8301C10
:1041600089060DD49FED341A18E000218160C0E962
:10417000001180BD9FED2F1A10E09FED2D1A0DE06C
:104180005EF8301C49F20002C0F2D032C1F3C10126
:1041900022FA01F101EE101AB8EE411ADEF8001011
:1041A0009FED263A6FF35F2102EE101ADEF8001041
:1041B000C1F34621B8EE422A00EE032A00EE10CAEF
:1041C000B7EE003AB8EE400A81EE000A32EE031A6A
:1041D00002EE101AB8EE422A20EE010A32EE031A5D
:1041E00080EE011ABCEEC11A80ED001ADEF8001054
:1041F000C1F3064101EE101AB8EE411A31EE031A6E
:1042000080EE011ABCEEC11A80ED011ADEF8001032
:10421000C1F3066101EE101AB8EE411A31EE031A2D
:1042200080EE010ABCEEC00A10EE101A816080BD5B
:104230000024744A20BCBE4B0024744C000000399A
:1042400080B544F2384EC5F6020E5EF8103C5EF8BA
:10425000101CC1F3053C5EF80C1CBCF1000FDEF82D
:10426000042014D0C1F30011C2F3CC02514300EE7C
:10427000101A03F003010229B8EE400A0CD071B9FC
:104280005EF8381C89060DD49FED341A18E0002121
:104290008160C0E9001180BD9FED2F1A10E09FEDF5
:1042A0002D1A0DE05EF8381C49F20002C0F2D0323F
:1042B000C1F3C10122FA01F101EE101AB8EE411A60
:1042C000DEF800109FED263A6FF35F2102EE101A20
:1042D000DEF80010C1F34621B8EE422A00EE032AB0
:1042E00000EE10CAB7EE003AB8EE400A81EE000ABE
:1042F00032EE031A02EE101AB8EE422A20EE010A3C
:1043000032EE031A80EE011ABCEEC11A80ED001ADB
:10431000DEF80010C1F3064101EE101AB8EE411AA2
:1043200031EE031A80EE011ABCEEC11A80ED011ABB
:10433000DEF80010C1F3066101EE101AB8EE411A62
:1043400031EE031A80EE010ABCEEC00A10EE101A1C
:10435000816080BD0024744A20BCBE4B0024744C94
:10436000000000390000000080B544F2404EC5F660
:10437000020E5EF8183C5EF8181CC1F3055C5EF88E
:10438000141CBCF1000FDEF8042014D0C1F300218E
:10439000C2F3CC02514300EE101A03F003010229CC
:1043A000B8EE400A0CD071B95EF8401C89060DD4F5
:1043B0009FED341A18E000218160C0E9001180BD32
:1043C0009FED2F1A10E09FED2D1A0DE05EF8401CB6
:1043D00049F20002C0F2D032C1F3C10122FA01F168
:1043E00001EE101AB8EE411ADEF800109FED263AE1
:1043F0006FF35F2102EE101ADEF80010C1F34621C0
:10440000B8EE422A00EE032A00EE10CAB7EE003AD8
:10441000B8EE400A81EE000A32EE031A02EE101ADC
:10442000B8EE422A20EE010A32EE031A80EE011A9B
:10443000BCEEC11A80ED001ADEF80010C1F306418F
:1044400001EE101AB8EE411A31EE031A80EE011A8D
:10445000BCEEC11A80ED011ADEF80010C1F306614E
:1044600001EE101AB8EE411A31EE031A80EE010A7D
:10447000BCEEC00A10EE101A816080BD0024744AA0
:1044800020BCBE4B0024744C00000039000000002A
:1044900080B584B0024641F6FF7300209B1A70EB92
:1044A00001032BDA47F6FF739B1A70EB010368DAFE
:1044B00082F400430B4300F0818082F480330B438D
:1044C00000F0BA8082F40022114340F0418144F2AE
:1044D0000040C5F60200816D01F44031B1F5003FA6
:1044E00000F04481B1F5803F00F02281002940F0C6
:1044F00034810068000140F13081BFE040F2FF7379
:104500009B1A70EB01031EDB82F480730B4300F0F7
:10451000688082F48062114340F01A8144F20041C5
:10452000C5F60201886DC0F34252042A00F21581DB
:1045300048F20000C0F2BB00DFE812F079009D00F5
:10454000A4000A01AD0082F400630B435CD082F446
:104550008052114340F0FC8044F20041C5F6020154
:10456000086DC0F30232042A00F2F78048F200001E
:10457000C0F2BB00DFE812F05B007F008600EC00B9
:104580008F0082F400530B4300F0628082F480427B
:10459000114340F0DD8044F20040C5F60200816D19
:1045A000C1F30271052900F2D880DFE801F0039B16
:1045B000A2A9B78EFFF79CFD04B080BD44F2004075
:1045C000C5F60200016D01F04051B1F1005F00F04D
:1045D000B880B1F1805F00F0BD80002940F0BD805F
:1045E00073E044F20041C5F60201086D00F00702D5
:1045F000042A00F2B28048F20000C0F2BB00DFE8FB
:1046000002F0163A41A74A0044F20041C5F6020101
:10461000886DC0F30262042A00F29F8048F2000015
:10462000C0F2BB00DFE802F003272E9437000868D1
:10463000800100F1958090E044F20040C5F6020050
:10464000C16C0068C90347D4800140F1868087E0CF
:1046500044F20040C5F60200016DC1F30241052994
:1046600000F27B80DFE801F0033E454C5A3100F058
:10467000CBFE04B080BD086800016ED501A8FFF72D
:10468000DFFD05E00868800067D501A8FFF76CFE34
:10469000019804B080BDC86C0B6810F040520868E7
:1046A00002D113F004032FD1B2F1805F02D110F4D4
:1046B00080706DD1086810F400301CBF47F64000D0
:1046C000C0F27D10B2F1005F72E0006847F6400171
:1046D0008003C0F27D1127E000013ED501A8FFF75D
:1046E000AFFD2BE00068000137D501A8FFF7A8FD5A
:1046F00039E00068800030D501A8FFF735FE32E0D0
:104700000168490729D50068C0F3C10049F20001DA
:10471000C0F2D03121FA00F004B080BD006840F64C
:104720000011C005C0F23D0101EAE07004B080BD97
:104730000068800011D501A8FFF716FE039804B0A9
:1047400080BD0068000108D501A8FFF779FD029837
:1047500004B080BD0068800102D4002004B080BD98
:1047600001A8FFF7D9FC029804B080BDC16C0368B2
:1047700011F04051026805D113F0040302D0C2F3D6
:10478000C100C3E7B1F1805F08D112F4807205D097
:1047900040F60010C0F23D0004B080BD006810F487
:1047A00000301CBF47F64000C0F27D10B1F1005F41
:1047B00018BF002004B080BD2DE9F04381B004464D
:1047C000C07844F22C490007C5F6020901D400253F
:1047D0002EE0606E4FEA305003280DD80025DFE848
:1047E00000F0020E1714D9F80000002540F4003044
:1047F000C9F8000055B913E001253DB910E004F1F6
:104800000800022102F0A4FC05464DB1A84611E0C3
:1048100004F12800022102F02BFD0546002DF5D100
:10482000D9F82400616E20F440100843C9F8240030
:104830004FF000086078C00730D0A06D042807D87A
:10484000DFE800F00A131C030300FDB1A84625E0D1
:104850000125002DFAD119E0D9F8000040F400300C
:10486000C9F80000002DF1D110E004F1080000218A
:1048700002F06EFC0546002DE8D107E004F12800A7
:10488000002102F0F5FC0546002DDFD1D9F8240007
:10489000A16D20F007000843C9F8240060784007A4
:1048A00034D5D4F8A4004FEA7050052807D8DFE8C3
:1048B00000F00A131C030303FDB1A84626E00125FE
:1048C000002DFAD119E0D9F8000040F40030C9F801
:1048D0000000002DF1D110E004F10800002102F0E9
:1048E00037FC0546002DE8D107E004F1280000213F
:1048F00002F0BEFC0546002DDFD1D9F82C00D4F81B
:10490000A41020F460000843C9F82C006078000768
:1049100034D5D4F8A8004FEA3060052807D8DFE87E
:1049200000F00A131C030303FDB1A84626E001258D
:10493000002DFAD119E0D9F8000040F40030C9F890
:104940000000002DF1D110E004F10800002102F078
:10495000FFFB0546002DE8D107E004F12800002107
:1049600002F086FC0546002DDFD1D9F82C00D4F8E2
:10497000A81020F0E0600843C9F82C00E078800718
:1049800028D5E06C4FEA3010032806D8DFE800F0A5
:1049900002091202B5B1A8461CE00125002DFAD18A
:1049A00010E0D9F8000040F40030C9F80000002DF4
:1049B000F1D107E004F10800022102F0C9FB05462D
:1049C000002DE8D1D9F82000E16C20F03000084338
:1049D000C9F820006078C00632D5E06D4FEA30306B
:1049E000042807D8DFE800F00A131C030300FDB118
:1049F000A84625E00125002DFAD119E0D9F80000DC
:104A000040F40030C9F80000002DF1D110E004F1AD
:104A10000800002102F09CFB0546002DE8D107E0CC
:104A200004F12800002102F023FC0546002DDFD10F
:104A3000D9F82400E16D20F4E0400843C9F82400CF
:104A40006078800626D5206E4FEA3040052807D8CA
:104A5000DFE800F0030A100303039DB1A84619E044
:104A60000125002DFAD10DE004F10800012102F02A
:104A70006FFB04E004F12800012102F0F9FB054678
:104A8000002DEBD1D9F82400216E20F4E02008435A
:104A9000C9F824006078400628D5D4F8AC004FEA65
:104AA0003070052807D8DFE800F0030A100303037D
:104AB0009DB1A8461AE00125002DFAD10DE004F1C0
:104AC0000800012102F044FB04E004F12800012168
:104AD00002F0CEFB0546002DEBD1D9F82C00D4F81E
:104AE000AC1020F0E0400843C9F82C0060780006C4
:104AF00020D5E06ED8B1B0F1005F12D0B0F1805F88
:104B000025D1D9F8000040F40030C9F8000085B97B
:104B1000D9F82400E16E20F040500843C9F8240081
:104B200008E004F10800012102F012FB0546002D07
:104B3000EED0A846E078C0072AD0A06C03280AD897
:104B4000DFE800F0020D1602D5B1A84620E00125ED
:104B5000002DEED1DCE70125002DF6D110E0D9F8CB
:104B6000000040F40030C9F80000002DEDD107E04E
:104B700004F10800022102F0EBFA0546002DE4D111
:104B8000D9F82000A16C20F003000843C9F82000E8
:104B9000A078400642D5D9F8D40340F48070C9F813
:104BA000D403FFF771F90646D9F8D403C00505D43C
:104BB000FFF76AF9801B6528F6D303256DBBD9F88A
:104BC0004410D4F8B000414011F4407F11D0D9F81E
:104BD0004410D9F8442042F48032C9F84420D9F86E
:104BE000442021F4407122F48032C9F84420C9F8ED
:104BF0004410B0F5807F0FD1FFF746F9064641F229
:104C0000893700BFD9F84400800705D4FFF73CF985
:104C1000801BB842F6D3032585B1A8462078C0078B
:104C200042D0A06F4FEAF000052823D8DFE800F05B
:104C300003262C0303037DB3A84635E04FF6CF735C
:104C4000D4F8B00059F81C2CC0F2FF0300F44071F6
:104C500022F47C5203EA1013B1F5407F08BF1A43D7
:104C60006FF31F3049F81C2CD9F844100843C9F8D9
:104C70004400D3E70125002DDED10DE004F108004A
:104C8000012102F065FA04E004F12800012102F09C
:104C9000EFFA0546002DCFD1D9F82800A16F20F0FA
:104CA00038000843C9F828002078800724D5606FB1
:104CB000052807D8DFE800F0030A100303039DB1BD
:104CC000A84619E00125002DFAD10DE004F10800F5
:104CD000012102F03DFA04E004F12800012102F074
:104CE000C7FA0546002DEBD1D9F82800616F20F0F6
:104CF00007000843C9F828002078400726D5D4F8D3
:104D00009000052807D8DFE800F0030A100303032A
:104D10009DB1A8461AE00125002DFAD10DE004F15D
:104D20000800012102F014FA04E004F12800012136
:104D300002F09EFA0546002DEBD1D9F82C00D4F8EC
:104D4000901020F007000843C9F82C002078800656
:104D500028D5D4F88C004FEA3070052807D8DFE852
:104D600000F0030A100303039DB1A8461AE00125D1
:104D7000002DFAD10DE004F10800002102F0E8F95D
:104D800004E004F12800022102F072FA0546002D29
:104D9000EBD1D9F82800D4F88C1020F0E04008437B
:104DA000C9F828002078400628D5D4F898004FEAA2
:104DB000B020052807D8DFE800F0030A100303033A
:104DC0009DB1A8461AE00125002DFAD10DE004F1AD
:104DD0000800002102F0BCF904E004F128000221DF
:104DE00002F046FA0546002DEBD1D9F82C00D4F894
:104DF000981020F4E0500843C9F82C0020780006F1
:104E000028D5D4F89C004FEA7030052807D8DFE891
:104E100000F0030A100303039DB1A8461AE0012520
:104E2000002DFAD10DE004F10800002102F090F904
:104E300004E004F12800022102F01AFA0546002DD0
:104E4000EBD1D9F82C00D4F89C1020F46040084332
:104E5000C9F82C002078000716D5D4F88000B0F5EA
:104E6000805F08D104F12800022102F001FA002835
:104E700018BF4FF00108D9F82800D4F8801020F4AA
:104E800040500843C9F828002078C00616D5D4F849
:104E90009400B0F5807F08D104F12800022102F0CF
:104EA000E7F9002818BF4FF00108D9F82C00D4F812
:104EB000941020F440700843C9F82C00A078000733
:104EC00022D5D4F8A000B0F5003F1AD0B0F5803F4D
:104ED00011D0C8BB04F10800002102F039F90546E1
:104EE0008DB9D9F82C00D4F8A01020F44030084334
:104EF000C9F82C0008E004F12800022102F0B8F9FA
:104F00000546002DEDD0A846A078400729D5D4F855
:104F10008400B0F5401F21D0B0F5001F18D0B0F5C7
:104F2000801F40F0BB80D9F8000040F40030C9F881
:104F30000000ADB9D9F82800D4F8841020F440104E
:104F40000843C9F828000CE00125002DDBD1C8E793
:104F500004F12800012102F08BF90546002DE9D06B
:104F6000A846A078C00720D0206DB0F5803F10D0B3
:104F7000B8B9D9F8000040F40030C9F800009DB974
:104F8000D9F82000216D20F480300843C9F82000B2
:104F90000BE004F10800022102F0DAF805461DB921
:104FA000EEE70125002DEBD0A846E078800608D575
:104FB00004F12800022102F05BF9002818BF4FF02D
:104FC0000108D4E900108A0377D5E26F6FF001037E
:104FD00003EB3223022B0AD34FEA32233BB1012BDE
:104FE00061D1D9F8003043F40033C9F80030002D06
:104FF0005CD0CA0264D48A026CD44A0075D4B1F180
:10500000FF3F40F38380090200F18B80C00707D087
:1050100004F10800002102F09BF8002818BF0546A3
:105020002079800707D504F10800012102F090F8EB
:10503000002818BF05462079400707D504F108006D
:10504000022102F085F8002818BF054620790007E4
:1050500007D504F12800002102F00AF9002818BF42
:1050600005462079C00607D504F12800012102F089
:10507000FFF8002818BF05462079800607D504F1FF
:105080002800022102F0F4F8002818BF0125002DA5
:1050900018BF0125284601B0BDE8F0830125002D89
:1050A0007FF45EAF46E70125002DA2D1D9F8283064
:1050B00023F440731A43C9F828204546CA029AD5FA
:1050C000D9F82420236F22F000421A43C9F8242083
:1050D0008A0292D5D9F82420A36E22F080721A4356
:1050E000C9F824204A007FF58AAF59F81C2C22F415
:1050F000004249F81C2CD4F8B42059F81C3C1A433F
:1051000049F81C2CB1F1FF3F3FF77DAFD9F82020C3
:10511000636D22F040521A43C9F8202009027FF53E
:1051200075AFD9F82810D4F8882021F44001114334
:10513000C9F82810C0077FF46BAF71E700000000CA
:1051400070470000000000002DE9F04381B0002806
:1051500000F0F48042F200080446C5F200288946B7
:10516000D8F8000000F00F0088420ED2D8F80000F6
:1051700020F00F0040EA0900C8F80000D8F800004D
:1051800000F00F00484540F0D980206844F21847ED
:105190004107C5F602070AD521693A6802F0700294
:1051A000914204D93A6822F0700211433960010734
:1051B0000AD561697A6802F07002914204D97A686E
:1051C00022F0700211437960C1060AD5A1697A689C
:1051D00002F4E062914204D97A6822F4E062114359
:1051E000796081060AD5E169BA6802F070029142DD
:1051F00004D9BA6822F070021143B96081070AD558
:10520000E1683A6802F00F02914204D93A6822F04C
:105210000F0211433960C0077ED1206881070AD58B
:10522000E1683A6802F00F02914204D23A6822F033
:105230000F0211433960D8F8001001F00F01494501
:105240000DD9D8F8001021F00F0141EA0901C8F882
:105250000010D8F8001001F00F0149456ED1410748
:105260000AD521693A6802F07002914204D23A6884
:1052700022F070021143396001070AD561697A682A
:1052800002F07002914204D27A6822F07002114357
:105290007960C1060AD5A1697A6802F4E062914298
:1052A00004D27A6822F4E0621143796080060AD55C
:1052B000E069B96801F07001884204D2B96821F050
:1052C00070010843B86000F0C7F8396848F2987276
:1052D000C0F600023B68C1F3032103F00F03515CE9
:1052E000D25C01F01F01C84002F01F0140F2080229
:1052F00020FA01F1C2F20042116040F2040140F2D2
:105300001002C2F20041C2F2004208601068FEF7CB
:1053100007FE01B0BDE8F083386820F47061D4E97D
:105320000102012841EA020139600BD003282BD089
:1053300002282ED157F8181C890307D4012001B088
:10534000BDE8F08357F8181CC905F7D557F8081CB5
:1053500021F00701084347F8080CFEF795FD0646C3
:1053600041F2883557F8080C616800F03800B0EB5E
:10537000C10F3FF452AFFEF787FD801BA842F1D961
:10538000032001B0BDE8F08357F8181C8901D5D57A
:10539000DCE757F8181C4907D0D5D7E70000000014
:1053A00044F20040C5F60200016841F400210160AA
:1053B000704700000000000080B500F04DF844F296
:1053C000184148F29873C5F60201C0F600030A6856
:1053D000096801F00F01C2F30322595C9A5C02F0E4
:1053E0001F0220FA02F201F01F0040F2080122FA27
:1053F00000F0C2F20041086040F20401C2F2004134
:105400000A6080BD0000000080B5FFF7D5FF44F2C0
:105410001C4148F29872C5F60201C0F60002096804
:10542000C1F30211515C01F01F01C84080BD0000B2
:1054300080B5FFF7C1FF44F21C4148F29872C5F6EF
:105440000201C0F600020968C1F30221515C01F0BB
:105450001F01C84080BD000044F20041C5F60201B2
:105460000869C0F3C20003280FD002282AD070BBFD
:105470000868800649F20000C0F2D03058BF70477B
:105480000968C1F3C101C84070478A6A886AC0F3DD
:10549000051CC86ABCF1000F4B6B1DD0C3F3CC03D5
:1054A00000F00100584302F00302022A00EE100A45
:1054B000B8EE400A12D0A2B90868800614D49FED55
:1054C000261A1EE047F64000C0F27D10704740F6F5
:1054D0000010C0F23D007047002070479FED1D1A7C
:1054E0000FE09FED1B1A0CE0086849F20002C0F2C1
:1054F000D032C0F3C10022FA00F001EE100AB8EE7B
:10550000411A086B9FED153A6FF35F2002EE100A07
:10551000086BC0F34620B8EE422A013000EE032AA1
:1055200000EE10CAB7EE003AB8EE400A81EE000A6B
:1055300032EE031A20EE010A01EE100AB8EE411A0B
:1055400080EE010ABCEEC00A10EE100A704700BFE0
:105550000024744A20BCBE4B0024744C0000003967
:1055600010B544F26444C5F602042068400558BFF3
:1055700010BDFFF7E5FD4FF48060606010BD0000D6
:105580002DE9F04381B0F8B18046007844F200493B
:10559000C007C5F602095CD0D9F8100000F0380148
:1055A000D9F82800102905D018290FD100F00300E0
:1055B00002280BD1D9F80000800346D5D8F80400A2
:1055C000002842D1012731E00127E2E2D8F8045057
:1055D0002DB1B5F5A02F0DD0B5F5803F10D0D9F87D
:1055E000000020F48030C9F80000D9F8000020F451
:1055F000802009E0D9F8000040F48020C9F80000BC
:10560000D9F8000040F48030C9F80000FEF73CFCF7
:10561000002D054615D000BFD9F80000800314D432
:10562000FEF732FC401B6428F6D90327002000282F
:1056300000F0AF820DE000BFFEF726FC401B64289F
:10564000F3D8D9F800008003F6D40120002800F038
:10565000A08298F8000080076AD5D9F8100010F0F1
:105660003801D9F828001DD0182908BF5FEA8070DA
:1056700018D0D8F80C00D9F80010002840D021F03C
:1056800019010843C9F80000FEF7FEFB054600BFFC
:10569000D9F80000400727D4FEF7F6FB401B02288C
:1056A000F6D91EE0D9F80000400704D5D8F80C0060
:1056B000002800F05E81D9F80000D8F80C1020F026
:1056C00019000843C9F80000FEF7DEFB054600BFDD
:1056D000D9F80000400707D4FEF7D6FB401B02288C
:1056E000F6D90327002420E0D9F80400D8F81010D8
:1056F00020F0FE40012440EA0160C9F8040014E0F3
:1057000021F00100C9F80000FEF7BEFB05460126A6
:10571000D9F8000010F0040086EA900405D0FEF7E6
:10572000B3FB401B0328F3D30327002C00F0318286
:1057300098F80000C00656D5D9F8100000F03801DE
:10574000D9F82800082905D0182917D100F003003E
:10575000012813D1D9F80000C00503D5D8F81C00E2
:1057600080283BD1D9F80C00D8F8201020F07C50CC
:10577000012440EA0160C9F80C0031E0D8F81C00AF
:105780000028D9F8000012D040F08000C9F80000CD
:10579000FEF77AFB054600BFD9F80000C005E1D44A
:1057A000FEF772FB401B0228F6D9032717E020F012
:1057B0008000C9F80000FEF767FB0546012600BF20
:1057C000D9F8000010F4807086EA102408D0FEF7A3
:1057D0005BFB401B0328F3D3032701E001270024D0
:1057E000002C00F0D68198F8000000071CD498F82F
:1057F0000000800631D498F80000400745D4D8F85E
:105800002440002C00F09180D9F8100000F03800FE
:10581000182840F08C80012CD9F82810D9F83000D5
:1058200040F0A9800127B4E1D8F814000028D9F885
:1058300074003ED040F00100C9F87400FEF724FB6C
:10584000054600BFD9F874008007D0D4FEF71CFBD2
:10585000401B0228F6D903279BE1D8F8180000283E
:10586000D9F800004DD040F48050C9F80000FEF790
:105870000BFB0546D9F800008004BCD4FEF704FBFE
:10588000401B0228F6D9032783E1D9F8000440F42D
:105890008070C9F80004FEF7F7FA0546D9F800044D
:1058A000C0051AD4FEF7F0FA401B6428F6D9032786
:1058B0006FE120F00100C9F87400FEF7E5FA054633
:1058C000032700BFD9F8740080077FF590AFFEF77B
:1058D000DBFA401B0228F5D95BE1D8F808502DB15E
:1058E000052D00F08280012D00F08580D9F8700030
:1058F00020F00100C9F87000D9F8700020F0040011
:105900007DE020F48050C9F80000FEF7BDFA05469E
:10591000032700BFD9F8000080047FF56CAFFEF7C5
:10592000B3FA401B0228F5D933E1002731E1D9F859
:10593000000020F08070C9F80000FEF7A5FA022CE4
:1059400005464FF0030709D1D9F80000800178D54A
:10595000FEF79AFA401B0228F6D91AE1D9F800009E
:10596000800140F1E780FEF78FFA401B0228F5D94D
:105970000FE10127B6E601F00302D8F828309A4279
:1059800040F0DA80C1F30511D8F82C20914240F0A4
:10599000D7800146D8F830206FF35F21013A914259
:1059A00040F0D080C0F34622D8F8341001398A4242
:1059B00040F0CA80C0F30642D8F8381001398A4254
:1059C00040F0C480C0F30660D8F83C10013988422A
:1059D00040F0BE80D9F83400D8F84810C0F3CC00AD
:1059E000814240F0B7800027D3E0D9F8700040F042
:1059F0000400C9F87000D9F8700040F00100C9F83F
:105A00007000FEF741FA002D054641F288344FF050
:105A1000030711D0D9F8700080073FF5F0AEFEF70C
:105A200033FA401BA042F5D9B3E000BFFEF72CFAD1
:105A3000401BA04200F2AD80D9F870008007F5D479
:105A4000DDE608F12807D9F8280040F2F331884351
:105A50008ECF0843591E40EA02104FF47E426FF386
:105A60005F21C9F8280002EB47204FF4FE0280B204
:105A7000D8F83C300844D8F8381002EB01414FF018
:105A8000FE4201F4FE0102EB0362084402F0FE4113
:105A90000844C9F83000D9F82C004FF6F87120F00E
:105AA0000100C9F82C00D9F83400D8F84820884300
:105AB00040EAC200C9F83400D9F82C00D8F84010E8
:105AC00020F00C000843C9F82C00D9F82C00D8F8B5
:105AD000441020F002000843C9F82C00D9F82C002B
