:020000040800F2
:10000000B8050024E1020008A93800088338000878
:10001000A7380008210B0008A342000800000000D8
:10002000000000000000000000000000B13A0008DD
:10003000230B000800000000AF380008B33A0008A6
:10004000FB020008FB020008FB020008FB0200089C
:10005000FB020008FB020008FB020008FB0200088C
:10006000FB020008FB020008FB020008FB0200087C
:10007000FB020008FB020008FB020008FB0200086C
:10008000FB020008FB020008FB020008FB0200085C
:10009000FB020008FB020008FB020008FB0200084C
:1000A000FB020008FB020008FB020008FB0200083C
:1000B000FB020008FB020008FB020008FB0200082C
:1000C000FB020008FB020008FB020008FB0200081C
:1000D000FB020008FB020008FB020008FB0200080C
:1000E000FB020008FB02000800000000FB02000801
:1000F000FB020008FB020008FB020008FB020008EC
:10010000FB020008FB020008FB020008FB020008DB
:10011000FB020008FB020008FB020008FB020008CB
:10012000FB020008FB020008FB020008FB020008BB
:10013000FB020008FB020008FB020008FB020008AB
:1001400000000000000000000000000000000000AF
:10015000FB020008FB020008FB020008FB0200088B
:10016000FB020008FB020008FB020008FB0200087B
:10017000FB020008FB020008FB020008FB0200086B
:10018000FB020008FB020008FB020008FB0200085B
:10019000FB020008FB020008FB020008FB0200084B
:1001A000FB020008FB020008FB0200080000000040
:1001B000FB020008FB020008FB020008FB0200082B
:1001C000FB020008FB020008000000000000000025
:1001D0000000000000000000FB020008000000001A
:1001E000000000000000000000000000000000000F
:1001F0000000000000000000FB020008FB020008F5
:10020000FB020008FB02000800000000FB020008DF
:10021000FB020008FB020008FB020008FB020008CA
:10022000FB02000800000000FB02000800000000C4
:10023000FB020008FB02000800000000FB020008AF
:10024000FB020008FB020008FB020008FB0200089A
:10025000FB020008FB020008FB020008FB0200088A
:10026000FB020008FB020008FB020008FB0200087A
:10027000FB020008FB020008FB020008000000006F
:10028000FB020008FB020008FB020008FB0200085A
:1002900000000000FB020008FB020008FB0200084F
:1002A000FB020008FB020008FB020008FB0200083A
:1002B000FB020008FB020008FB020008FB0200082A
:1002C000FB020008FB020008FB020008DFF80CD06C
:1002D00000F048FA00480047C5420008B80500246D
:1002E0000648804706480047FEE7FEE7FEE7FEE7D0
:1002F000FEE7FEE7FEE7FEE7FEE7FEE7553B000808
:10030000CD0200082DE9F05F0546002092469B468D
:1003100088460646814640241BE02846414647461B
:10032000224600F057F853465A46C01A914110D35E
:1003300011461846224600F03EF82D1A67EB0108D8
:100340004F4622460120002100F035F817EB000946
:100350004E41201EA4F10104DFDC484631462A4606
:100360004346BDE8F09FD2B201E000F8012B491EE0
:10037000FBD270470022F6E710B513460A46044642
:100380001946FFF7F0FF204610BD30B50B46014679
:1003900000202022012409E021FA02F59D4205D324
:1003A00003FA02F5491B04FA02F52844151EA2F1CE
:1003B0000102F1DC30BD202A04DB203A00FA02F110
:1003C000002070479140C2F1200320FA03F3194343
:1003D00090407047202A04DB203A21FA02F00021E5
:1003E000704721FA02F3D040C2F120029140084345
:1003F000194670472DE9FE4F804681EA0300C00F81
:100400000C46009021F0004123F00045B8EB0200BB
:10041000A94105D24046214690461C460B4602465D
:1004200023F00040104347D0270DC7F30A00C3F361
:100430000A510290401A019040286BDAC3F313006E
:1004400040F4801B0098924620B10023D2EB030AAF
:1004500063EB0B0B01985946C0F140025046FFF781
:10046000AAFF06460D4650465946019A00F08CF9FF
:1004700010EB08006141002487EA115284EAE77317
:100480001A4340D0009A62B3019A012A4FEA0752F8
:1004900015DC001B61EB02014FF0004202EA07523B
:1004A000CDE90042001C41F5801132462B4600F098
:1004B0008CF903B0BDE8F08F40462146F9E7001BF8
:1004C00061EB0201001C41F5801300185B4120180C
:1004D000A2F5001747EB030140EAD570B6196D414C
:1004E00011E06D084FEA360645EAC0754FEA07523B
:1004F000001B61EB0201001C41F5801149084FEA25
:1005000030000019514132462B4603B0BDE8F04F90
:1005100000F04CB90098012240000023D0EB020209
:1005200063EBE073009821464FEAE074B8EB0000FB
:1005300061EB0401E9E783F000435BE781F00041F0
:1005400058E72DE9FE4F81EA030404F0004421F04E
:10055000004100944FF0000B23F0004350EA0104E7
:100560005ED052EA03045BD0C3F30A54C1F30A55C8
:100570002C44A4F2F3340194A0FB0254C1F3130100
:1005800041F48011C3F3130343F4801301FB0244CD
:1005900000FB034E840A970A44EA815447EA8357D2
:1005A000A4FB076802958D0A05FB07854FEA932C8B
:1005B00004FB0C542705029D4FEA065847EA1637FC
:1005C000B5EB08056EEB070C870E920E47EA811714
:1005D00042EA8312A7FB0201B6EB0B0164EB0004B5
:1005E0002B0D43EA0C335E1844EB1C50DA4651469F
:1005F000E7FB0201C5F313044FEA0B3343EA14533C
:100600004FEA0432019C43EA0603A4F10C0402946D
:10061000009CCDE900B400F0D8F803B0BDE8F08F3D
:1006200000200146F9E72DE9F04D81EA030404F0CA
:10063000004B21F0004514464FF0000A23F0004122
:1006400050EA050220D054EA01021DD0C5F30A5732
:100650000246C5F31303C1F31300C1F30A5640F475
:10066000801543F48013A7EB0608101BD64608F24A
:10067000FD3873EB050002D308F1010801E0921880
:100680005B41B8F1000F03DA00200146BDE8F08DB0
:1006900000204FF48011064684460EE0171B73EBD2
:1006A000050705D3121B63EB050306434CEA010C57
:1006B00049084FEA300092185B4150EA0107EDD13A
:1006C00052EA030012D082EA040083EA05010843DB
:1006D00005D0101BAB4106D20122002306E0002208
:1006E0004FF0004302E06FF0010253101AEB0600D6
:1006F0004CEB085110EB0A0041EB0B01BDE8F04D4B
:1007000000F054B8C1F30A52C1F3130140F2FF33B1
:1007100041F480119A4202DA00200146704740F20B
:1007200033439A42A2F2334202DC5242FFF752BEF6
:10073000FFF741BE30B5041E71F1000404DB4FF039
:100740000044404264EB0101141E73F1000405DB18
:100750001C464FF00043524263EB0403994208BF2A
:10076000904230BD064C074D06E0E06840F00103C2
:1007700094E8070098471034AC42F6D3FFF7AAFD7F
:10078000EC4E00080C4F0008202A06DBCB17203A5D
:1007900041FA02F043EAE07306E041FA02F3D04086
:1007A000C2F12002914008431946704710B5141E4B
:1007B00073F1000408DA401C41F1000192185B411A
:1007C0001A4301D120F0010010BD2DE9F04D9246F1
:1007D0009B4611B1B1FA81F202E0B0FA80F2203208
:1007E0009046FFF7E8FD04460F4640EA0A0041EA5A
:1007F0000B0153465A46084313D0114653EA0100F1
:1008000019D0C8F140025046FFF7E4FD05460E46F8
:10081000504659464246FFF7CEFD084305D0012019
:1008200004E020463946BDE8F08D0020054346EA45
:10083000E0762C4337430A986305E40AA0EB0800EE
:100840000022FD0A44EA47540A3002D5002001463E
:10085000E9E7010510196941DDE908450019694119
:10086000BDE8F04DA2E7000010B50446006840F472
:1008700080702E49884214BF2E482D48006810F41D
:10088000403F0DD002F05AFA6168B1F5803F05D0C3
:10089000B1F5403F1FD0B1F5003F1DD1090C17E065
:1008A0004FF40020002101F06BFB6168A1F580226C
:1008B0004FEAB2420A2A0FD8DFE802F0060606061F
:1008C00006062E30323436006FF0010202EA514142
:1008D000B0FBF1F000E080081749884205D8206895
:1008E000816821F44071816010BD1449884206D8A6
:1008F00020680122816862F30921816010BD2168AE
:100900000F4A9042886803D8022262F3092001E06E
:1009100040F44070886010BD0009DDE74009DBE766
:100920008009D9E7C009D7E7000AD5E700210240CE
:10093000082302400863025821BCBE0041787D01B3
:1009400081F0FA0270B50446006882688368DB08AB
:1009500043EA9202D20754D0C26892010FD5627E58
:10096000012A0CD1227E012A09D14FF0FF31264AFB
:1009700003685B0607D401319142F9D337E00229BD
:1009800004D1022111E04021016001218268520757
:1009900007D58268920704D482685E4B1A401032F1
:1009A0008260012901D1042611E08268120707D56F
:1009B0008268920704D48268564B1A4020328260C3
:1009C0000426022908BF0826032908BF0C2601F0C7
:1009D0000FF8054620688068304212D001F008F810
:1009E000401B0628F6D3206880683042F2D0206E83
:1009F00040F010002066606E40F00100606601204B
:100A000070BD002070BD00BF00DC0C00B0B50168F7
:100A10000446886880078A684FF0000027D412F0E7
:100A2000010224D0886800F00D00012816D18868E2
:100A3000384A1040023088600320086000F0D8FF78
:100A4000054620688068C00712D000F0D1FF401B27
:100A50000328F6D320688068C007F2D0206E40F0EB
:100A600010002066606E40F0010060660120B0BD9D
:100A70000020B0BDF8B5044600688168C90746D1BA
:100A8000244E816806F17F02114209D0206E40F0A9
:100A900010002066606E40F001006066012037E0C3
:100AA0008168314041F00101816000F0A1FF1A4AE4
:100AB00002F580732168194F994202F5407508BF0D
:100AC0002F46914208BF2F4699420A4604BF42F280
:100AD0000002C4F202028A420546B86818BF10F04C
:100AE0001F0014D10868C00711D18868C00704D15D
:100AF0008868304040F00100886000F079FF401BBA
:100B000021680328EED30868C007EBD1BEE70020B8
:100B100001B0F0BDC0FFFF7F00200240006302581B
:100B2000FEE77047EFF3108072B6FEE77CB5002356
:100B30000193044690F85C00012801D1022039E0BD
:100B4000012084F85C00204615460E46FFF75EFF44
:100B50000028216E02D041F0100127E041F202127C
:100B6000154B91430231216621688A681A4006F4C8
:100B7000803305F0804633441A4402F100428A6013
:100B80000E4A8B68B3F1FF3F0CDC019B01330193EC
:100B9000019B9342F5D3206E40F0100020F002013B
:100BA000012003E0216E012262F301012166002190
:100BB00084F85C1002B070BDC0FFFE3F00F8C32592
:100BC0002DE9F84300220092044690F85C000128C9
:100BD00001D1022011E2012084F85C000D4620685A
:100BE0008168490700F10182EA4A9042EA4B29688C
:100BF0009046994613D0B1F1FF3F10DD91FAA1F272
:100C0000B2FA82F2194208BF8A0E02F01F020123D3
:100C100003FA02F2C3691A43890EC26100E0890E29
:100C20006A681F27C2F3012302F01F0200EB83034F
:100C30001E6B974001F01F0126EA070791403943D8
:100C4000196381688268D20842EA9101C90714D108
:100C50002968AA6802F016FE2068464640450ED074
:100C6000CE49096801F07041B1F1805F0DD1696929
:100C70000E23C26803EA520213E04646F2E06969B5
:100C80000623F26803EA92020BE0C2686969D206A1
:100C9000C3684FEA530202D402F00E0201E002F0F0
:100CA00008022F69042F2BD1B0425AD0016E01F0F7
:100CB000F8412A68B1EB826F4FEA826103D1026E7C
:100CC00022F000420266426E02F0F8428A4203D1EC
:100CD000426E22F000424266826E02F0F8428A4280
:100CE00003D1826E22F000428266C26E02F0F842A8
:100CF0008A4240F0B780C16E21F00041C166B1E088
:100D000000F16003B4462E68604501FA02F153F821
:100D1000272000F0868006F0F84602F000423143BA
:100D2000114343F8271029692A7E95F8217053F85A
:100D30002160013A26F00046012F08BF06F1004667
:100D400043F82160B2FA82F12A694909C9020369AC
:100D500002F01F0223F4F0439140194301616646FB
:100D600080E0306E306EC0F38463286890FAA0F2A1
:100D7000B2FA82F7C0F3846110EA09003A4608BF6C
:100D80000A4693420DD1306ECC4620F000403066CA
:100D90002A6802EA0900C2F3846192FAA2F2B2FA66
:100DA00082F7726E0028726E3B46C2F3846208BFFF
:100DB0000B469A420DD1706E20F000407066484696
:100DC0002A6802EA0900C2F3846192FAA2F2B2FA36
:100DD00082F7B26E0028B26E3B46C2F3846208BF4F
:100DE0000B469A420DD1B06E20F00040B0664846E6
:100DF0002A6802EA0900C2F3846192FAA2F2B2FA06
:100E000082F7F26E0028F26E3046C2F3846208BFA9
:100E10000F46BA4226D1F06E20F00040F066304610
:100E200020E006F0F840084340F0004043F8270077
:100E30000CF1600228696646E96952F8203023F017
:100E40008073194342F82010286995F8201052F851
:100E5000203023F00073012908BF03F1007342F82A
:100E6000203060468168C90779D12968B042EA68B4
:100E70000ED002F01806D0F8C03001EA090729FAAE
:100E800006F6BB4337403B43CC46C0F8C0300DE0CC
:100E9000D6F8B03002F0180601EA090729FA06F67A
:100EA000BB4337403B43CC46C8F8B030694B9A420D
:100EB00052D191FAA1F2B2FA82F2134611EA09076D
:100EC00008BF8B0E013303F01E03092B4FEA916319
:100ED0000CD8C7B14FF0806101EB826101F0F8439B
:100EE000511C01F01F0101228A4017E0E7B14FF0C9
:100EF000806101EB826101F0F843511C01F01F0198
:100F000001228A401BE001F0F84101F1806101F00B
:100F1000F842591C01F01F0101238B401A4301EBD9
:100F2000410142EA015113E001F0F84101F1806111
:100F300001F0F842591C01F01F0101238B4001EB25
:100F400041011A43444B03EB0151114341F000713D
:100F5000AA6802F097FC2968B1F1FF3F01DD00208B
:100F600048E03E4B03F58072206803F54077D64D8C
:100F700090423A4618BF08F54072984208BF3A4678
:100F800040F48077AF4292680AD19F68D3F8083165
:100F90003B4307E000600258FFFF0F000010005CB9
:100FA000D8F80830DB0720D12D4B994202F0E073CE
:100FB0002DD02C4DA94239D140454FF0000008BF3B
:100FC00012F4000116D1D8F80803BC4920F0E070F3
:100FD000184340F40000C8F80803B7480068B0FBA5
:100FE000F1F0022101EB40000CE0206E40F0200007
:100FF00020660120002184F85C1001B0BDE8F08378
:1010000000980138009000980028F9D1A7E74045E2
:101010004FF0000008BF12F08071EBD1D8F8080340
:1010200020F0E070184340F0807010E040454FF031
:101030000000DFD10C4DA94208BF12F48001D9D1C4
:10104000D8F8080320F0E070184340F48000C8F896
:10105000080384E70000FF47000020FE0020024054
:10106000000021C3000052C7000084CB0068006C60
:1010700070470000F8B500210028009136D00446E2
:10108000006E30B9204600F02BF90020606684F82D
:101090005C0020688168890003D58168854A114019
:1010A00081608168C90014D4824A816802F180524B
:1010B0001140824A41F0805181607F490968B1FB4B
:1010C000F2F1013101E00099013900910099002904
:1010D000F9D18168C9000BD4216E012541F01001BE
:1010E0002166616E41F00101616602E00125DDE0EB
:1010F00000258168C1F38001226E02F01002891878
:10110000216E03D041F010000125CEE021F4817161
:101110006B4F023121668168C9071CD140F480738E
:10112000DB4E684AB34206D11168BC46D2F8007162
:101130003943674600E0B968C9070CD1B34202D110
:1011400002F53E7201E007F540726168936823F48E
:101150007C1319439160617EB842E26B42EA4133ED
:1011600003D0A16841EA030213E0D4E90221082A6E
:1011700043EA010305D00C2A05D01C2A05D1102210
:1011800006E0002204E0082202E0182A18BF00222C
:101190001A4394F82010012942EA014204D1616AFD
:1011A0004A4B03EB41410A43A16A29B101F478712A
:1011B000E36A114341EA0302B842C16804D0444BD8
:1011C00019401143C16009E0424B19401143C1600D
:1011D000396921F04061626B11433961816882682D
:1011E000D20842EA9101C90751D1217EB8424FEAA3
:1011F000813201D0216B02E094F83810490011438C
:10120000C26844F203039A431143C16094F8441046
:101210000269012919D13049B842A36C02EA0102DE
:1012200024D02E4901EB0341E36C1143226D194395
:10123000636D1143226C194341F0010101610169A1
:1012400021F07041114301610BE022F001010161C5
:10125000B842016921F07041226C41EA020101614A
:1012600014D02046FFF700FB206810E0E16C1A4321
:10127000236D1143626D19431143226C41F001014A
:101280000161016921F07041114301613846216912
:10129000026B012922F00F0102D1E269013A1143E8
:1012A00001630121206E61F301002066284601B030
:1012B000F0BD00BFC0FFFF5F08000024400D030029
:1012C0000060025808200240002102400000FEFF9A
:1012D00003C0F0FF0740F0FF1EF800FC0000FFFF16
:1012E000B0B5B0B004461E4D02A8B821FFF742F8D1
:1012F000206805F5D951884230D14FF400210020F3
:101300000291052103900491642105910421069125
:101310000221CDE907118021CDE909100B902A9017
:1013200002A800F063FF08B1FFF7FCFB28684FF04C
:10133000006140F080702860286800F080700190A3
:101340000198286840F004002860286800F0040034
:10135000019001984FF0006002F03EF930B0B0BD4E
:10136000E04402582DE9F0470446006840F48072DA
:10137000474B804E9A420D467F4902D106F5407296
:1013800000E00A469268636902F01F08082B02D148
:10139000B24608270EE0B8F1090F62D8012202FA1E
:1013A00008F240F221231A425BD0C068C00766D120
:1013B000B246042700F01CFB81466E1C20680168C1
:1013C000394216D1002EF9D000F012FB1DB1A0EB6E
:1013D0000900A842F2D9206800683842EED1206E98
:1013E00040F004002066002084F85C000320BDE883
:1013F000F087216E41F400712166C16811F4406FDD
:101400000FD1617E69B9016809070AD5216E21F4FF
:1014100080712166216EC90403D4216E41F001015F
:1014200021660AF58071884218BF824682450146CE
:101430000BD0B8F1090F29D8012101FA08F140F2C7
:1014400021221142014608BF5146082FC96801D127
:10145000082102E0490401D40C2101600020BDE80C
:10146000F08706F5807206F54073904208BF194672
:10147000B04208BF1946886810F4404F98D0206EDB
:1014800040F0200020660120BDE8F0875146DCE7EF
:1014900000210240F8B50446364D006805F5807617
:1014A000354A05F54071B04208BF0A46A84208BF58
:1014B0000A4697688068400703D494F85C000128C6
:1014C00002D1022001B0F0BD012084F85C0020466A
:1014D000FFF7D0FA18B1002184F85C10F2E7206819
:1014E00040F60173226E07F01F019A43B04218BF05
:1014F000054602F580720029226618BF854203D195
:10150000226E22F480122266236E0022DB044FF04A
:10151000000344BF636E23F0060363661C23854209
:10152000036084F85C2008D0092915D8012202FA4A
:1015300001F140F2212211420ED0C168890104D587
:10154000216E012262F30D31216681680B4A114040
:10155000043181600020B5E7206E40F480102066E1
:10156000E8688001F6D5206E012161F30D30206618
:10157000F0E700BF0020024000630258C0FFFF7F79
:1015800010B5044690F85C00012801D1022010BD7E
:10159000012084F85C0003212046FFF7D3F950B9FD
:1015A0002046FFF733FA30B9206E41F2011188432B
:1015B000013020660020002184F85C1010BD00007E
:1015C0002DE9F041044600284FF0010000F09E8014
:1015D0000D46002900F09A80607901284FF0020042
:1015E00000F09480012161719046207128680428E0
:1015F00046D100F0FDF9B8F1000F074612D020687F
:10160000416BB1F1FF3F0ADC00F0F2F9C01B022888
:10161000F5D32068406BB0F1FF3FF0DC10E0A96922
:10162000416417E03A4E2068416B314210D000F01F
:10163000DFF9C01B0228F6D32068406B3042F2D09D
:10164000206940F00800206103202071BDE8F0818E
:10165000A969016408F01001836C40F2FF322F6A1F
:101660008A4023EA0202EB698B401A438264FF221C
:10167000C36C8A4023EA020207FA01F11143C164F4
:10168000286908F010020128216808D11F208B6BFF
:10169000904023EA00006B69934018438863072059
:1016A000CB6B9040EF6823EA000C012F4FF0000055
:1016B00003D0022F03D1012705E0002703E0AF6824
:1016C000B7FA87F77F092E68AB6837433B436F68EB
:1016D000934043EA0C03CB634FF4804393400E687E
:1016E00026EA03030B6040F6FE730E68934026EA79
:1016F000030397403B430B60C02303FA02F20B68DD
:1017000023EA02020A60012121716071BDE8F081C3
:101710000080002078B110B50446007920B900207F
:101720006071204600F00AF802202071002001219B
:101730002061217110BD01207047000010B586B0F6
:10174000044601A81421FEF715FE206810498842BE
:101750001CD11048816841F000518160816801F01E
:10176000005100910099016841F00101016001A957
:10177000006800F0010000900098302001900320E4
:10178000029000200390044800F068F806B010BDF5
:1017900000740040E04402580000025881B04FF04D
:1017A000000C0028CDF800C007D000680029009088
:1017B00005D000981044143004E0012006E00098A1
:1017C00010440830009000980360002001B070477A
:1017D000002821D04279012A4FF002022CD080B596
:1017E0004FF0010C80F805C001F0100E02710CFAE8
:1017F0000EFC02680029136843EA0C0313601168A9
:101800000CD0022301F4781103FA0EF399420DD1A2
:10181000516841F0020108E001220DE001F03E01B3
:10182000022903D1516841F00101516001210022D8
:1018300001714271BDE8804010467047B0B5044662
:1018400000F0D6F8964905460978621C18BF0C448A
:1018500000F0CEF8401BA042FAD3B0BD2DE9FE4FF8
:10186000604A0A27604C019002444FEAB223A0422A
:1018700008BF0927002600204FF0000B082B38BFB7
:101880004FEAB2270097A4E0012303FA0BF412EA0F
:10189000040C00F09A80D1F80480324608F0030E60
:1018A000AEF10107012F16D8019E0323B76803FA92
:1018B00000F5CB68AF4383403B43B3604FEA4B092D
:1018C0007368C8F30017A34307FA0BF423436FEAC6
:1018D000050A73600CE00323019E8340BEF1030FF1
:1018E0006FEA030A814603D181464FF0030E1FE0E1
:1018F000F368BEF1020F8C6803EA0A0304FA09F4E4
:1019000043EA0403F36013D16FF0030303EA5B03BC
:10191000334402F01C071D6A0F24BC40A5430C6928
:1019200004FA07F72F431F62D1F8048008F0030E72
:1019300033680EFA09F703EA0A033B4318F4403F01
:101940003360164641D0814B1F46284A1B680F243E
:1019500043F002033B604FF0B04E3B6803F00203DC
:1019600002932BF00303029F06F00C079D58BC4026
:10197000A543009C04FA07F72F439F50DEF8003080
:101980004F6843EA0C05FC0258BF23EA0C05CEF869
:101990000050134B1A461B68BC0243EA0C0558BFA3
:1019A00023EA0C051560D2F88030BC0343EA0C052D
:1019B00058BF23EA0C05C2F88050D36FFF0343EAF7
:1019C0000C0558BF23EA0C05D5670BF1010B02305B
:1019D00004360A6832FA0BF77FF456AFBDE8FE8F83
:1019E000040000580000FEA7002402580804005814
:1019F00005480068704700BF2948007802490A6816
:101A000010440860704700BFB001002480B5032077
:101A100000F0BEF801F0D2F90F490A68C2F30322C0
:101A200009688C4B01F00F019A5C595C02F01F02AF
:101A3000D0400A4A01F01F0120FA01F11160194952
:101A400008600F2000F00CF808B1012080BD00F004
:101A50006FF8002080BD00BF184402580C0000241D
:101A600070B50F4E3178C1B104464FF47A70B0FBB7
:101A7000F1F00C490968B1FBF0F001F0B7FD0F2C53
:101A80004FF001050AD848B94FF0FF300022214637
:101A9000002500F05DF8746000E00125284670BD67
:101AA000000000240800002410B54278124C90F881
:101AB00000C02260A26822F00102A2604268626057
:101AC000C27A037B1206817A42EA0372437B42EABE
:101AD000C141827B41EA8341C37B41EA4241427A70
:101AE00041EA0341007A41EA022141EA400040EA2A
:101AF0000C00A06010BD00BF98ED00E0BFF35F8F49
:101B00000A48016821F480310160002101677047B3
:101B100040F0010005490867086840F4803008601B
:101B2000BFF34F8FBFF36F8F704700BF24ED00E00E
:101B300081B00648016841F002010160006800F0D0
:101B400002000090009801B0704700BFF4440258B2
:101B500080B5154B1B68C3F3022C8CF0070EBEF149
:101B6000040F28BF4FF0040EBCF103034FF0FF3CFD
:101B700038BF00230CFA0EFE21EA0E0199400CFA40
:101B800003F39A431143BDE8804002F08BBB00BFD2
:101B900005490A684FF6FF031A4060F30A2203481A
:101BA00010430860704700BF0CED00E00000FA052C
:101BB00070B51F4E3168044601F0070130680629F0
:101BC00011D120F03F0020433060FFF711FF0546A0
:101BD00056F8080C80040CD4FFF70AFF401BB0F540
:101BE0007A7FF5D91FE000F03F00001B18BF0120ED
:101BF00070BDA4F11D0111294FF0000014D801227D
:101C000002FA01F111F0031F0ED0FFF7F1FE0446B6
:101C1000306800F01100112807D0FFF7E9FE001B23
:101C2000B0F57A7FF4D9012070BD002070BD00BFEF
:101C30000C48025880B501F081F80549054A096849
:101C4000C1F30211515C01F01F01C84080BD00BF0B
:101C500020440258B44E000810B53D4CA36AA26A55
:101C6000C2F3051CE26A616B02F00102C1F3CC0110
:101C7000BCF1000F02FB01F100EE101AB8EE400AB1
:101C80000CD003F00303022B0CD0012B0DD013B9A1
:101C9000216889060CD49FED311A13E00021C0E9B8
:101CA000001153E09FED2C1A0CE09FED2A1A09E079
:101CB00021682B4AC1F3C10122FA01F101EE101A89
:101CC000B8EE411A02EE10CA9FED263AB8EE422A4B
:101CD000216B6FF35F2181EE021A02EE101AB8EE4B
:101CE000422A216BC1F3462100EE032AB7EE000A17
:101CF00003EE101A32EE002AB8EE433A21EE021A31
:101D000033EE002A81EE022ABCEEC22A80ED002AC0
:101D1000216BC1F3064102EE101AB8EE422A32EEF0
:101D2000002A81EE022ABCEEC22A80ED012A216B34
:101D3000C1F3066102EE101AB8EE422A32EE000A32
:101D400081EE000ABCEEC00A10EE101A816010BDD0
:101D5000004402580024744A20BCBE4B0024744C3A
:101D60000090D0030000003910B53C4CA36AA26A71
:101D7000C2F3053CE26AC2F30012E16BC1F3CC018D
:101D8000BCF1000F02FB01F100EE101AB8EE400AA0
:101D90000AD003F00303022B0AD063B92168890635
:101DA0000CD49FED311A13E00021C0E9001153E07B
:101DB0009FED2C1A0CE09FED2A1A09E021682B4AAE
:101DC000C1F3C10122FA01F101EE101AB8EE411A75
:101DD00002EE10CA9FED263AB8EE422AA16B6FF3CD
:101DE0005F2181EE021A02EE101AB8EE422AA16BB0
:101DF000C1F3462100EE032AB7EE000A03EE101AE3
:101E000032EE002AB8EE433A21EE021A33EE002AEF
:101E100081EE022ABCEEC22A80ED002AA16BC1F33A
:101E2000064102EE101AB8EE422A32EE002A81EE86
:101E3000022ABCEEC22A80ED012AA16BC1F3066121
:101E400002EE101AB8EE422A32EE000A81EE000AC3
:101E5000BCEEC00A10EE101A816010BD004402589A
:101E60000024744A20BCBE4B0024744C0090D00364
:101E70000000003910B53C4CA36AA26AC2F3055CAD
:101E8000E26AC2F30022616CC1F3CC01BCF1000F25
:101E900002FB01F100EE101AB8EE400A0AD003F07E
:101EA0000303022B0AD063B9216889060CD49FED85
:101EB000311A13E00021C0E9001153E09FED2C1A04
:101EC0000CE09FED2A1A09E021682B4AC1F3C101F9
:101ED00022FA01F101EE101AB8EE411A02EE10CA10
:101EE0009FED263AB8EE422A216C6FF35F2181EE16
:101EF000021A02EE101AB8EE422A216CC1F34621F2
:101F000000EE032AB7EE000A03EE101A32EE002AA2
:101F1000B8EE433A21EE021A33EE002A81EE022A8D
:101F2000BCEEC22A80ED002A216CC1F3064102EE0C
:101F3000101AB8EE422A32EE002A81EE022ABCEED6
:101F4000C22A80ED012A216CC1F3066102EE101A4B
:101F5000B8EE422A32EE000A81EE000ABCEEC00A58
:101F600010EE101A816010BD004402580024744A1B
:101F700020BCBE4B0024744C0090D00300000039FC
:101F8000F8B580F400220A435ED080F480620A43F0
:101F900000F06B8080F400620A4300F0738080F4EC
:101FA00080520A4325D080F400520A4330D080F496
:101FB00080420A4300F0758080F400420A4300F03A
:101FC0007F8080F480320A4331D080F480700843EF
:101FD00040F0E4808049086D00F00702042A00F216
:101FE000DD808148DFE812F05B007C008300DB00CD
:101FF0008B007949086DC0F30232042A00F2CE80CA
:102000007948DFE812F04C006D007400CC007C00D1
:102010007148016DC1F30241052900F2BF80DFE87C
:1020200001F003888F96A05B00F0A8FEB7E06A4835
:10203000C16CC903006840F1AF80000140F1AE807F
:1020400001A8FFF791FEA4E06348816D01F44031DF
:10205000B1F5003F00F08B80B1F5803F00F0938038
:10206000002940F09B8000683BE05B49886DC0F32D
:102070004252042A00F292805B48DFE802F01031FD
:10208000389040005449886DC0F30262042A00F27F
:1020900085805548DFE802F003242B83330008686D
:1020A0007AE04D48816DC1F30271052900F2768016
:1020B000DFE801F0033F464D5712FFF7BBFD6EE02E
:1020C0004548016D01F04051B1F1005F31D0B1F1EF
:1020D000805F60D0002961D100684049800343E0FF
:1020E000086800015AD501A8FFF73EFE05E0086820
:1020F000800053D501A8FFF7BDFE01984FE0C86CE2
:1021000010F040520B68086802D113F0040322D18A
:10211000B2F1805F02D110F480704DD1086810F4E4
:1021200000301CBF47F64000C0F27D10B2F1005FE6
:102130004EE00068000131D501A8FFF715FE33E03D
:10214000006880002AD501A8FFF794FE2CE0016802
:10215000490723D50068C0F3C100224921FA00F0E5
:102160001DE000681E49C00501EAE07017E0C16C7F
:1021700011F040510368026818D113F0040315D020
:10218000C2F3C100E9E70068800007D501A8FFF7A6
:1021900071FE039803E00068800102D4002004B0BF
:1021A00080BD01A8FFF758FD0298F8E7B1F1805F04
:1021B00004D112F4807201D00948F0E7006810F4ED
:1021C00000301CBF47F64000C0F27D10B1F1005F47
:1021D00018BF0020E3E700BF0044025840787D01AB
:1021E00000093D000090D0030080BB002DE9F047BE
:1021F0000446C078AF4F000722D5606E4FEA3051D9
:10220000032908D8DFE801F002090F17F96941F442
:102210000031F9610FE0012613E004F1080002210A
:1022200001F046FB04E004F12800022101F0C0FBAC
:10223000064630B9606E396C21F4401108433864A9
:1022400000266078BA46C00701D135462AE0A06D65
:1022500004280BD83546DFE800F0030C12181800EC
:10226000F869354640F40030F8610EE00125012799
:1022700019E004F10800002101F01AFB04E004F168
:102280002800002101F094FB0546002D2F460AD1BD
:10229000DAF84000002520F00700A16D08435246FF
:1022A000CAF840003746607840072FD5D4F8A4001C
:1022B0004FEA705005280CD8DFE800F0030E141A1E
:1022C0001A1ADAF81C00514640F40030CAF81C0013
:1022D0000EE0012501261AE004F10800002101F0BA
:1022E000E7FA04E004F12800002101F061FB054653
:1022F000002D2E460BD1DAF84800002520F46000AE
:10230000D4F8A41008435246CAF848003E46607804
:1023100000072FD5D4F8A8004FEA306005280CD864
:10232000DFE800F0030E141A1A1ADAF81C005146FE
:1023300040F40030CAF81C000EE0012501271AE025
:1023400004F10800002101F0B3FA04E004F12800D0
:10235000002101F02DFB0546002D2F460BD1DAF8A8
:102360004800002520F0E060D4F8A8100843524649
:10237000CAF848003746E078800726D5E06C4FEA77
:10238000301003280BD8DFE800F013020D13DAF841
:102390001C00514640F40030CAF81C0008E001253A
:1023A000012613E004F10800022101F081FA05463C
:1023B000002D2E460AD1DAF83C00002520F030002E
:1023C000E16C08435246CAF83C003E466078C006BD
:1023D0002DD5E06D4FEA303004280CD8DFE800F04E
:1023E000030E141A1A00DAF81C00514640F40030AB
:1023F000CAF81C000EE00125012719E004F10800CD
:10240000002101F055FA04E004F12800002101F058
:10241000CFFA0546002D2F460AD1DAF840000025F4
:1024200020F4E040E16D08435246CAF840003746C8
:102430006078800625D5206E4FEA304005280AD8FE
:10244000DFE800F012030C12121204F1080001215F
:1024500001F02EFA07E00125012613E004F128001F
:10246000012101F0A5FA0546002D2E460AD1DAF821
:102470004000002520F4E020216E08435246CAF8AF
:1024800040003E46607840062AD5D4F8AC004FEABA
:10249000307005280AD8DFE800F015030F15151570
:1024A00004F10800012101F003FA0AE001250127E7
:1024B00017E000BF1044025804F12800012101F088
:1024C00077FA0546002D2F460BD1DAF84800002593
:1024D00020F0E040D4F8AC1008435246CAF8480057
:1024E00037466078000622D5E06E98B1B0F1005F03
:1024F0000AD0B0F1805F2ED1DAF81C00514640F4CA
:102500000030CAF81C0005E004F10800012101F0C8
:10251000CFF90546002D2E460AD1DAF840000025F5
:1025200020F04050E16E08435246CAF840003E4653
:10253000E078C00702D1B046574624E0A06C574669
:1025400003280BD8DFE800F014020E14F86940F4F9
:102550000030F8610CE001250126E9E701254FF084
:10256000010810E004F10800022101F0A1F905467C
:10257000002DA84607D1F86B002520F00300A16CC0
:102580000843B046F863A078400601D4474617E0F8
:10259000D7F8F00340F48070C7F8F003FFF728FA8B
:1025A0000646D7F8F003C00507D4FFF721FA801BD1
:1025B0006428F6D90325032702E0002D2F4612D008
:1025C0002078C00750D0A06F4FEAF000052835D81A
:1025D000DFE800F03D03373D3D3D04F108000121F7
:1025E00001F066F932E0DAF860105346D4F8B00032
:1025F000414011F4407F0BD0196E1A6E21F44071E6
:1026000042F480321A661A6E22F480321A66196613
:10261000B0F5807F40F06682FFF7EAF9064641F2A6
:10262000883903250327DAF86000800700F1578214
:10263000FFF7DEF9801B4845F5D9C1E701250126E2
:1026400013E004F12800012101F0B2F90546002D44
:102650002E460AD1DAF84400002520F03800A16F98
:1026600008435246CAF844003E462078800723D5E6
:10267000606F05280AD8DFE800F012030C1212126E
:1026800004F10800012101F013F907E001250127F9
:1026900013E004F12800012101F08AF90546002D1C
:1026A0002F460AD1DAF84400002520F00700616FB8
:1026B00008435246CAF8440037462078400725D5DB
:1026C000D4F8900005280AD8DFE800F012030C12B5
:1026D000121204F10800012101F0EAF807E00125D7
:1026E000012614E004F12800012101F061F90546FA
:1026F000002D2E460BD1DAF84800002520F0070007
:10270000D4F8901008435246CAF848003E46207854
:10271000800627D5D4F88C004FEA307005280AD8F7
:10272000DFE800F012030C12121204F1080000217D
:1027300001F0BEF807E00125012714E004F12800AC
:10274000022101F035F90546002D2F460BD1DAF8AC
:102750004400002520F0E040D4F88C100843524695
:10276000CAF8440037462078400627D5D4F89800A8
:102770004FEAB02005280AD8DFE800F012030C1257
:10278000121204F10800002101F092F807E001257F
:10279000012614E004F12800022101F009F90546A0
:1027A000002D2E460BD1DAF84800002520F4E05029
:1027B000D4F8981008435246CAF848003E4620789C
:1027C000000627D5D4F89C004FEA703005280AD8B7
:1027D000DFE800F012030C12121204F108000021CD
:1027E00001F066F807E00125012714E004F1280054
:1027F000022101F0DDF80546002D2F460BD1DAF855
:102800004800002520F46040D4F89C10084352464C
:10281000CAF8480037462068010717D5D4F8801059
:10282000B1F5805F0AD104F12800022101F0C0F85F
:10283000002818BF01272068D4F88010DAF8442057
:10284000534622F440521143CAF84410C10617D52A
:10285000D4F89410B1F5807F0AD104F12800022148
:1028600001F0A6F8002818BF01272068D4F89410BA
:10287000DAF84820534622F440721143CAF848104F
:10288000000322D5D4F8A000B0F5003F0FD0B0F57A
:10289000803F06D088BB04F10800002101F008F851
:1028A00004E004F12800022101F082F80546002D21
:1028B0002E460BD1DAF84800002520F44030D4F839
:1028C000A01008435246CAF848003E46A078400788
:1028D0002AD5D4F88400B0F5401F17D0B0F5001FFA
:1028E0000ED0B0F5801F40F0F580DAF81C0051469C
:1028F00040F40030CAF81C0008E001250126E5E795
:1029000004F12800012101F053F80546002D2F465F
:102910000BD1DAF84400002520F44010D4F88410DC
:1029200008435246CAF844003746A078C00701D190
:102930003E4622E0206DB0F5803F08D0D8B9DAF8E5
:102940001C00514640F40030CAF81C0005E004F1B8
:102950000800022100F0ACFF0546002D2E460CD1E8
:10296000DAF83C00002520F48030216D08435246FF
:10297000CAF83C00DCE7012501262168880001D463
:10298000606809E004F12800022101F011F8002834
:1029900018BF0126D4E900108A031AD5E26F6FF040
:1029A000010303EB3223022B0BD34FEA322343B153
:1029B000012B40F09280DAF81C3043F40033CAF85F
:1029C0001C303DB9DAF8443023F440731A43CAF896
:1029D00044203546CA0207D5DAF8402022F00042EA
:1029E000236F1A43CAF840208A0207D5DAF840203C
:1029F00022F08072A36E1A43CAF840204A000CD518
:102A0000DAF8002022F40042CAF80020D4F8B420FA
:102A1000DAF800301A43CAF80020B1F1FF3F07DCB2
:102A2000DAF83C2022F04052636D1A43CAF83C2089
:102A3000090208D5DAF8441021F44001D4F88820BE
:102A40001143CAF84410C10708D004F1080000215E
:102A500000F02EFF002818BF05466068810708D5E2
:102A600004F10800012100F023FF002818BF0546EB
:102A70006068410708D504F10800022100F018FF42
:102A8000002818BF05466068010708D504F1280032
:102A9000002100F08DFF002818BF05466068C106C0
:102AA00008D504F12800012100F082FF002818BF9A
:102AB00005466068800603D44DB10120BDE8F0876B
:102AC00004F12800022100F073FF2843F5D1002013
:102AD000BDE8F0870125012727E701257AE753465E
:102AE000D4F8B00000F440711A68B1F5407F22F4C8
:102AF0007C5103D1054A02EA1012114319606FF3A9
:102B00001F30196E0025084318663FE5CFFFFF0010
:102B1000704700002DE9F843002800F000810446CA
:102B2000814D286800F00F00884688420BD2286843
:102B300020F00F0040EA08002860286800F00F002D
:102B4000404540F0EC802068D34F41070AD5216909
:102B5000BA6902F07002914204D9BA6922F0700297
:102B60001143B96101070AD56169FA6902F070027F
:102B7000914204D9FA6922F070021143F961C10649
:102B80000AD5A169FA6902F4E062914204D9FA69AE
:102B900022F4E0621143F96181060AD5E1693A6ADB
:102BA00002F07002914204D93A6A22F07002114395
:102BB000396210F002010AD0E268BB6903F00F032A
:102BC0009A4204D9BB6923F00F031A43BA61C207C2
:102BD00038D0B86920F47061D4E9010211430328A8
:102BE000B96105D0022807D1396889030DD496E070
:102BF0003968890109D492E00128396802D1C905F0
:102C000003D48CE0490740F18A803969A94621F054
:102C1000070108433861FEF7EBFE064641F28835AE
:102C2000386900F038006168B0EBC10F06D0FEF7DC
:102C3000DFFE801BA842F3D9032071E020684D46D7
:102C400000F0020151B1E168BA6902F00F0291424D
:102C500004D2BA6922F00F021143B961296801F068
:102C60000F0141450AD9296821F00F0141EA080105
:102C70002960296801F00F01414550D141070AD56B
:102C80002169BA6902F07002914204D2BA6922F055
:102C900070021143B96101070AD56169FA6902F04E
:102CA0007002914204D2FA6922F070021143F96174
:102CB000C1060AD5A169FA6902F4E062914204D220
:102CC000FA6922F4E0621143F96180060AD5E069ED
:102CD000396A01F07001884204D2396A21F070012A
:102CE0000843386200F06AF8B969C1F30321324A37
:102CF000515CBB6903F00F03D25C01F01F0120FAA5
:102D000001F102F01F001B4A21FA00F010601A4A7C
:102D1000064800681160BDE8F843FEF7A1BE012037
:102D200001B0BDE8F08300BF002000520400002481
:102D30005948016841F400210160704780B500F0F6
:102D40003DF80B490A68C2F3032209681A4B01F0E7
:102D50000F019A5C595C02F01F0220FA02F201F0A6
:102D60001F00044922FA00F0086003490A6080BD90
:102D7000184402580C0000240800002480B5FFF716
:102D8000DDFF0C490C4A0968C1F30211515C01F0E6
:102D90001F01C84080BD00BF80B5FFF7CFFF0549C8
:102DA000054A0968C1F30221515C01F01F01C840C6
:102DB00080BD00BF1C440258B44E00083649086963
:102DC000C0F3C20003280CD0022828D048BB0868F2
:102DD0008006374858BF70470968C1F3C101C84031
:102DE00070478A6A886AC0F3051CCB6A486B03F097
:102DF0000103C0F3CC00BCF1000F03FB00F000EEB8
:102E0000100AB8EE400A0ED002F00302022A0CD0DB
:102E100072B9086880060ED49FED241A15E0204888
:102E200070471E487047002070479FED1F1A0CE046
:102E30009FED1C1A09E008681D4AC0F3C10022FA80
:102E400000F001EE100AB8EE411A02EE10CA9FED32
:102E5000193AB8EE422A086B6FF35F2081EE021A2E
:102E600002EE100AB8EE422A086BC0F3462000EECC
:102E7000032AB7EE000A013032EE000A21EE000A02
:102E800001EE100AB8EE411A80EE010ABCEEC00A4B
:102E900010EE100A704700BF0044025800093D00C0
:102EA00040787D010024744A20BCBE4B0024744C41
:102EB0000090D0030000003910B5054C2068400593
:102EC00004D5FFF725FE4FF48060606010BD00BFA1
:102ED00064440258F8B5002800F06A81044600787E
:102EE000CF4EC00720D12078800776D5306910F00A
:102EF0003801B06A3ED0182908BF5FEA807039D027
:102F0000E0680028316857D021F01901084330608B
:102F1000FEF76EFD05463068400745D4FEF768FDB4
:102F2000401B0228F7D9B0E1306900F03801B06ADF
:102F3000102905D018290AD100F00300022806D173
:102F400030688003CFD560680028CCD130E160685C
:102F5000002800F0B280B0F5803F07D0B0F5A02F78
:102F6000306840F07F8140F480203060306840F469
:102F700080307DE130684007E06802D5002800F02D
:102F80001781316821F0190108433060FEF730FDE8
:102F900005463068400707D4FEF72AFD401B02288B
:102FA0004FF00300F5D971E1706820F0FE4021690F
:102FB00040EA0160706010E021F001003060FEF72F
:102FC00017FD05463068400707D5FEF711FD401B89
:102FD00002284FF00300F5D958E12078C0062FD51C
:102FE000306900F03801B06A082905D018290AD1E3
:102FF00000F00300012806D13068C00519D5E0694A
:10300000802816D0D4E0E0690028306800F0F58010
:1030100040F080003060FEF7EBFC05463068C005EC
:1030200007D4FEF7E5FC401B02284FF00300F5D95A
:103030002CE1F06820F07C50216A40EA0160F060E9
:103040002078000723D560690028706F0ED040F00B
:1030500001007067FEF7CCFC0546706F800716D440
:10306000FEF7C6FC401B0228F7D90EE120F0010054
:103070007067FEF7BDFC0546706F800707D5FEF749
:10308000B7FC401B02284FF00300F5D9FEE0207882
:1030900080063AD5A0690028306825D040F48050D9
:1030A0003060FEF7A5FC0546306880042DD4FEF79D
:1030B0009FFC401B0228F7D9E7E0306820F48030FD
:1030C0003060306820F480203060FEF791FC0546C7
:1030D000306880037FF507AFFEF78AFC401B642849
:1030E0004FF00300F4D9D1E020F480503060FEF7B7
:1030F0007FFC05463068800407D5FEF779FC401B4D
:1031000002284FF00300F5D9C0E02078400751D4E1
:10311000656A002D00F03581306900F0380018280C
:1031200040F08080B16A012D306B41D001F0030284
:10313000A36A9A423CD1C1F30511E26A914237D1A8
:103140000146226B6FF35F21013A914230D1C0F307
:103150004621626B013A91422AD1C0F30641A26B2B
:10316000013A914224D1C0F30660E16B01398842F3
:103170001ED1706BC0F3CC00A16C814200F00181C4
:10318000F06A20F00100F062FEF732FC0546FEF71F
:103190002FFCA842FBD0706B4FF6F8718843A16CEE
:1031A00040EAC1007063F06A40F00100F062E8E0BC
:1031B00001206BE0D6F8000440F48070C6F80004EB
:1031C000FEF716FC0546D6F80004C00505D4FEF748
:1031D0000FFC401B6428F6D957E0A068002857D0A0
:1031E000012806D00528306F40F0CD8040F0040063
:1031F0003067306F40F00100CBE020F0800030609D
:10320000FEF7F6FB05463068C0057FF519AFFEF7FF
:10321000EFFB401B02284FF00300F4D936E000BF5B
:1032200000440258306820F080703060FEF7E0FB08
:10323000022D05460AD13068800142D5FEF7D8FB41
:10324000401B02284FF00300F5D91FE030688001D1
:1032500040F19780FEF7CCFB401B02284FF00300A3
:10326000F4D913E020F480303060306820F48020FE
:103270003060FEF7BDFB0546306880033FF533AE96
:10328000FEF7B6FB401B6428F6D9032001B0F0BD61
:10329000306F20F001003067306F20F0040030679D
:1032A000FEF7A6FB054641F28837306F80077FF5B1
:1032B0002FAFFEF79DFB401BB8424FF00300F4D93F
:1032C000E4E7B06A40F2F3318843A16A226B084315
:1032D000511E626B4FF47E4303EB4222E36A6FF3AD
:1032E0005F2192B240EA0310B0625018A16B4FF414
:1032F000FE0202EB014101F4FE010844E16B4FF0D4
:10330000FE4202EB016101F0FE41084430634FF6DA
:10331000F871F06A20F00100F062706B8843A16CD4
:1033200040EAC1007063F06A20F00C00216C084391
:10333000F062F06A20F00200616C0843F062F06A0B
:1033400040F48030F062F06A40F40030F062F06ADD
:1033500040F48020F062F06A40F00100F0623068D2
:1033600040F080703060FEF743FB04463068800117
:1033700007D4FEF73DFB001B02284FF00300F5D9F0
:1033800084E7002082E720F001003067306F20F0F2
:1033900004003067FEF72CFB054641F28837306F9A
:1033A00080073FF5B5AEFEF723FB401BB8424FF058
:1033B0000300F4D96AE700002DE9F84340B304465E
:1033C0000068002260498842A26208D05F4A9042A9
:1033D00005D05F4A904202D0E2680F2A18D8E26B0B
:1033E0000123E56803EB521205F10803DB085A4399
:1033F00088420BD05649884208D0544B984218BF97
:10340000082A05D8884218BF984203D1102A01D94A
:10341000012093E094F8811031B9002084F88000F5
:10342000204600F097F82068022184F88110016896
:1034300021F0010101608168D4F8188001F4F81CC2
:10344000B8F1806FD4F8049012D1B9F1000F07D011
:10345000B9F5800F0CD1A36B33B14FF480090EE0A6
:10346000A36BB3F1805F6CD1036843F480530360B6
:103470005FEA492303D4E3684FF0010E0DE0E368EF
:10348000072B08D3056825F4807E256D45EA0E05D7
:103490004FF0000E04E04FF0000E056825F4807533
:1034A0000560B9F1000FE669A76A46EA0C06E26B0F
:1034B00047EA060742EA0702A56842EA03022669CC
:1034C000676949EA08038260626B616A42EA030243
:1034D000A36B41EA020141EA0301226A41EA0601C3
:1034E000E36C41EA070141EA0201A26C41EA0301EF
:1034F000A36D41EA050141EA020141EA0301C1600D
:1035000009D18168012262F3CC21022281608168A5
:1035100062F34A218160016DBEF1000F21F00101CB
:10352000016505D1C16821F00041626D1143C160A0
:1035300000200121C4F8840084F8811001B0BDE8A6
:10354000F0834FF0000996E700380040003C00404F
:103550000030014010B5B6B0044631A81421FCF784
:1035600009FF02A8B821FCF705FF20681849884226
:103570002BD14FF400500024029002A803941A9417
:10358000FEF734FE08B1FDF7CDFA8D48016941F42C
:1035900080110161016901F48011019101990168B3
:1035A00041F02001016031A9006800F02000019085
:1035B00001984FF4607031900220CDE9320405206B
:1035C000349435900348FEF749F936B010BD00BF7A
:1035D0000050014000140258034A136823EA000017
:1035E00008431060704700BF04040058411E0020CB
:1035F000B0EB116F01D001207047044A5160F021F7
:10360000034B1970072190601160704710E000E0D3
:1036100023ED00E090F88410012901D1022112E08D
:103620002421C0F8881002681368116823F0005341
:1036300021F0010111600021416613602022C0F8D1
:10364000882080F8841008467047B0B5044690F88A
:103650008400012801D10220B0BD012084F884003B
:103660002420C4F8880020680568026822F001025E
:103670000260826822F0606211438160204600F09F
:10368000B5FA206805602020C4F88800002084F87E
:103690008400B0BDB0B5044690F88400012801D183
:1036A0000220B0BD012084F884002420C4F88800E2
:1036B00020680568026822F001020260826822F038
:1036C000604211438160204600F090FA2068056056
:1036D0002020C4F88800002084F88400B0BD10B514
:1036E000E0B10446D0F8880028B9002084F88400AE
:1036F000204600F027F82420C4F888002068A16A3A
:103700000268002922F00102026002D0204600F087
:1037100097FA204600F080FB012801D1012010BD5E
:103720002068416821F490414160816821F02A01BC
:103730008160016841F0010101602046BDE8104050
:1037400000F0E1BA10B5B6B0044631A81421FCF778
:1037500011FE02A8B821FCF70DFE20681749884227
:1037600029D101200024029002A803942094FEF79E
:103770003DFD08B1FDF7D6F91148016941F010018E
:103780000161016901F0100101910199016841F0A5
:103790000201016031A9006800F002000190019867
:1037A000C02031900220CDE93204072034943590B6
:1037B0000448FEF753F836B010BD00BF00100140BA
:1037C000E0440258000402582DE9FC410446D0F8B8
:1037D000880020284CD10E4600294FF001004DD022
:1037E0001746002A4AD04FF000082120C4F89080E4
:1037F0001D46C4F88800FEF7FBF8A4F85470A4F83E
:1038000056700746A168B1F5805F1FD12069002876
:1038100014BF3046B046064618E0802100950022CD
:1038200020463B4600F0F0FC20BB1EB116F8010B11
:10383000216805E038F8020B002621686FF35F204D
:103840008862B4F856000138A4F85600B4F856005F
:103850000028E2D140210095002220463B4600F09E
:10386000D3FC2021002818BF0320C4F8881005E0ED
:10387000022003E02020C4F88800032002B0BDE845
:10388000F081FEE7C1F3406300EB8300D0F814C081
:10389000C1F3045107238B402CEA030302FA01F120
:1038A000194341617047FEE7FFF706FBFEE77047EB
:1038B000F8B5C84FBA6A02F00302032A01D1012009
:1038C00074E00546386820F080600C463860FEF7EA
:1038D0008FF806463868000105D5FEF789F8801B89
:1038E0000228F7D95FE0B86A4FF47E43696820F494
:1038F0007C30AA68013903EB42222B686FF35F2109
:1039000092B240EA03301144EA684FF4FE03B86211
:1039100003EB024202F4FE02881829694FF0FE42CE
:1039200002EB016101F0FE410844B863002CF86A23
:1039300020F0C000696940EA0100F862F86A20F0EE
:103940002000A96940EA0100F8624FF6F871F86AB0
:1039500020F01000F862F86B20EA0100E96940EA03
:10396000C100F863F86A40F01000F86205D0012C3D
:10397000F86A06D140F4801005E0F86A40F40020AF
:1039800001E040F40010F862386840F08060386070
:10399000FEF72EF804463868000106D4FEF728F832
:1039A000001B0328F7D3032000E0002001B0F0BD86
:1039B000F8B5884FBA6A02F00302032A01D1012048
:1039C00074E00546386820F080500C463860FEF7F9
:1039D0000FF806463868800005D5FEF709F8801B09
:1039E0000228F7D95FE0B86A4FF47E43696820F097
:1039F0007C70AA68013903EB42222B686FF35F21C8
:103A000092B240EA03501144EA684FF4FE03B862F0
:103A100003EB024202F4FE02881829694FF0FE42CD
:103A200002EB016101F0FE4108443864002CF86AA1
:103A300020F44060696940EA0100F862F86A20F405
:103A40000070A96940EA0100F8624FF6F871F86A5F
:103A500020F48070F862786C20EA0100E96940EA9D
:103A6000C1007864F86A40F48070F86205D0012CD7
:103A7000F86A06D140F4000005E0F86A40F48000DE
:103A800001E040F08070F862386840F080503860A3
:103A9000FDF7AEFF04463868800006D4FDF7A8FFA6
:103AA000001B0328F7D3032000E0002001B0F0BD85
:103AB0007047FDF7A1BF0000B0B59CB009A8244C29
:103AC0004C21FCF757FC01A82021FCF753FC0420F3
:103AD000FEF76EF800200090206820F4404020603F
:103AE000206800F440400090009820688004FCD5D5
:103AF00001204FF4803109900A9102210522CDE97D
:103B0000121114926E22CDE915200824002509A86F
:103B1000CDE917111994CDE91A55FFF7DBF9A8B9CA
:103B20003F2001900320CDE90205402004944FF48A
:103B30008061CDE90500CDE9071001A80321FEF75A
:103B4000E9FF18B9FFF7F4F81CB0B0BDFCF7EAFFC5
:103B5000184802581E4801681C4A41F4700101606F
:103B6000106800F00F00062804D81068072161F3E0
:103B70000300106010B517480168174C41F00101AF
:103B800001600021016103682340036013681B0783
:103B900004D51368072464F3030313600F4A81619B
:103BA000C161016282620E4AC2620E4A02634163CF
:103BB0008263C16302644164026822F4802202606D
:103BC000016643F2D2000849086010BD002000528F
:103BD00088ED00E0004402587FEDF6EA00020202A0
:103BE0000000FF018002010100400052416ED9B186
:103BF00080B501688A68C2F342628968490FDFF8BC
:103C000038C01CF80130DFF834E01EF801101B0149
:103C1000B3FBF1F11CF802301EF802201B01B3FBCC
:103C2000F2F2BDE8804001E001210122A0F86A1013
:103C3000A0F86820704700BFDC4E0008E44E000882
:103C4000816A0A0708D50268D0F838C0536823F49F
:103C5000004343EA0C035360CA0708D00268D0F857
:103C60002CC0536823F4003343EA0C0353608A07E3
:103C700008D50268D0F830C0536823F4803343EA93
:103C80000C0353604A0708D50268D0F834C0536863
:103C900023F4802343EA0C035360CA0608D5026864
:103CA000D0F83CC0936823F4805343EA0C0393603C
:103CB0008A0608D50268D0F840C0936823F4005300
:103CC00043EA0C0393604A0612D50268D0F844C058
:103CD0005368BCF5801F23F4801343EA0C03536040
:103CE00006D1536823F4C00C836C43EA0C03536081
:103CF000090658BF70470168C06C4A6822F4002268
:103D0000104348607047BCB500210446C0F89010CD
:103D1000FDF76EFE216805460A68120719D56FF097
:103D20007E404FF400110090002220462B4600F008
:103D30006BFA68B1206850E8000F216820F080001D
:103D400041E80002002AF5D12020C4F8880025E0CF
:103D500021680868400723D56FF07E404FF480014A
:103D60000090002220462B4600F04EFAC0B1206899
:103D700050E8000F216820F4907041E80002002A0A
:103D8000F5D1206850E8020F216820F0010041E8D9
:103D90000202002AF5D12020C4F88C00032007E09D
:103DA0002020C4F88800C4F88C000020E06620675A
:103DB000002184F8841002B0B0BD0000016851E811
:103DC000001F026821F4907142E80013002BF5D126
:103DD00010B5104C026852E8022F0368224043E8F5
:103DE00002210029F6D1C16E0129BDE8104009D198
:103DF000016851E8001F026821F0100142E8001339
:103E0000002BF5D12021C0F88C100021C16641673C
:103E1000704700BFFEFFFFEFFEB50446006804F1E7
:103E20000803994D994E0ECB194363690B43E16921
:103E300007680B432F40964D3B430360A8424368FD
:103E400023F4405342EA03024260A2691CBF236A82
:103E50001A43836833408F4E1A438260B042C26A6D
:103E60008D4E22F00F03626A43EA0203C36234D02C
:103E70008A4B98423ED08A4B984248D0894B984210
:103E800000F05280884B984200F05B80874B98424C
:103E900000F06480A84200F06E80854B984200F0EC
:103EA0007680844B984200F07E80834B984200F0ED
:103EB0008680824B984240F09880736DB446C3F37D
:103EC000C206052E00F292800123DFE816F0900072
:103ED0008400860088008A008C00736DB44603F06D
:103EE0000706052E00F282800023DFE806F08074CA
:103EF00076787A7C736DB44603F00706052E00F2DF
:103F000075800023DFE806F07367696B6D6F736D72
:103F1000B44603F00706052E00F268800023DFE8B0
:103F200006F0665A5C5E6062736DB44603F0070685
:103F3000052E00F25B800023DFE806F0594D4F515B
:103F40005355736DB44603F00706052E00F24E80FC
:103F50000023DFE806F04C4042444648736DB44607
:103F600003F00706052E00F241800023DFE806F08B
:103F70003F333537393BB36DB44603F00706052EA2
:103F800034D80223DFE806F03327292B2D2F736D59
:103F9000B446C3F3C206052E28D80123DFE806F095
:103FA000271B1D1F2123736DB446C3F3C206052EC4
:103FB0001CD80123DFE806F01B0F11131517736DD2
:103FC000B446C3F3C206052E10D80123DFE806F07D
:103FD0000F030507090B042309E0082307E010235A
:103FE00005E0202303E0402301E0B4468023A842FB
:103FF000814810D0B1F5004F1DD1082B4FF00101C1
:1040000027D8DFE803F00591D9D994D9D9D99800F8
:10401000FEF7B4FE93E0402B32D0042B50D0082B97
:1040200052D0102B58D0202B60D0022B40F0C380F0
:10403000FDF700FE4CE0082B4FF0010114D8DFE83B
:1040400003F00598BBBB9BBBBBBB9F00FEF796FE76
:104050009AE0102B00F0B980202B72D0402B40F05A
:10406000AB804FF400406CE0102B00F0B980202BA7
:1040700000F08C80402B40F09F804FF4004085E0A2
:104080004FF4004032E000BFF369FFCFFFF4FF11AF
:10409000000C005800440040004402580048004012
:1040A000004C00400050004000780040007C004080
:1040B0000014014000180140001C014000100140A4
:1040C0006846FDF751FE02E06846FDF7D3FE019811
:1040D00000286ED0626A09E0DCF8000065468006C0
:1040E000464803D52968C1F3C101C840444931F8A5
:1040F00012106268B0FBF1F002EB420188424FF00F
:10410000010159D31303984256D8010E000210EB57
:10411000520041F100010023FCF7F4F8A0F54071D2
:10412000384A914243D946E0FEF736FE07E068463A
:10413000FDF71AFE02E06846FDF79CFE0198C0B349
:10414000626A2F4931F81210B0FBF1F061684A0839
:1041500002EB4000B0FBF1F04FF6EF72A0F110015E
:10416000914228D84FF6F071C0F342020840104443
:104170001DE0FEF711FE07E06846FDF7F5FD02E0E1
:104180006846FDF777FE019898B1626A1C4931F8DC
:1041900012104FF6EF72B0FBF1F0616800EB5100C6
:1041A000B0FBF1F0A0F11001914204D880B2216877
:1041B000C860002100E001214FF00110A06600203E
:1041C000C4E91D00084603B0F0BDDCF800006546F8
:1041D00080060A48B5D52968C1F3C101C840B0E7D7
:1041E000DCF80000654680060448CFD52968C1F395
:1041F000C101C840CAE700BF00093D000090D003DC
:10420000C44E0008FFFC0F002DE9F843DDF82090B4
:10421000984616460F460446006809F10105C16933
:104220003940C91BB1FA81F14909B14229D1002DA8
:10423000F5D0FDF7DDFBB9F1000F01464FF00300AB
:1042400020D0A1EB080149451CD820680168490726
:10425000E5D5402F18BF802FE1D0C169090714D4DC
:10426000C1690905DBD54FF4006101622046FFF703
:10427000A5FD2020C4F89000002084F884000320CD
:1042800000E0002001B0BDE8F0830825056220466B
:10429000FFF794FD0020C4F8905084F884000120BA
:1042A000F0E7FEE700F00F02044B09011A44044B4B
:1042B000B0F1FF3FC8BFC2181170704714ED00E0A5
:1042C00000E400E09AB0A64EA64DFDF79FFB012446
:1042D0000294FDF713FC002748F21F700397049027
:1042E00040F20110059002A8FDF7DEFB0420FDF767
:1042F0000FFCFFF7E1FB3068242140F00200306042
:10430000306800F0020002900298306840F08000AF
:104310003060306800F0800002900298306840F011
:1043200020003060306800F0200002900298306871
:1043300040F004003060306800F004000290029801
:10434000306840F001003060306800F001000290F9
:10435000029802A8FCF70EF883480560FDF7DAF929
:10436000002840F0FA8002A97F480022CDE90277B8
:10437000CDE904740697FDF723F9002840F0ED809D
:1043800002A979481022FDF71BF9002840F0E580CA
:1043900005F51C40754C4FF4E13120600020C4E964
:1043A00001100C21E060C4E9040104F1180014219B
:1043B000FBF7E0FF2046FFF792F9002840F0CD80A0
:1043C0006A480021FFF766F9002840F0C680674878
:1043D0000021FFF73AF9002840F0BF806348A84663
:1043E000FFF718F9002840F0B88002A82421FBF755
:1043F000C1FF06F5D9505E4C002620600820C4E9B4
:1044000001600427E660012504F128001121C4E9B8
:1044100004672683E56184F82060C4E90F66FBF732
:10442000A9FF102084F8445004F14802A02143C29F
:1044300020466565FCF71EFE002840F08E804D4842
:10444000029002A90620CDE9030640F2FF70CDE9F3
:104450000507474807960996FCF7B2FB00287CD170
:104460000021434840F2FF720026FCF75FFB002862
:1044700073D108F55C40404C4FF48001C4E9000161
:104480000F20C4E902604FF08060266104F1180239
:1044900066614FF0C04143C24FF08040C4E90966F5
:1044A000E6622421606304F13800FBF763FF2046D5
:1044B000FEF782FF002850D12B4C00212046FDF74B
:1044C00087F910212046FDF783F90021002240F2F0
:1044D00055532046FDF762F91021002240F6AA2329
:1044E0002046FDF75BF9224C2046FCF7D3FF9FEDF9
:1044F000238A9FED239A23A51C4F02AE4FF4FA7036
:10450000FDF79CF92046FCF7C5FF0028F6D14FF4D3
:104510007A712046FCF726FFD8B92046FCF7A6FDA5
:10452000024600EE102A30462946B8EE400A1346ED
:1045300020EE080A80EE090AB7EEC00A8DED000BE6
:1045400000F036F882B24FF47A7338463146FFF7FE
:104550003BF92046FDF714F8D0E7FCF7E3FA00BF7B
:10456000E044025800740040800000241C01002434
:104570001000002402003004940000243333534020
:1045800000F07F4541444320436F64653A20256C29
:104590007520283078256C58292C20566F6C746152
:1045A00067653A20252E336620560D0A000000006C
:1045B0000FB4084B10B504A902AA039800F0DEF866
:1045C000044602A9002000F070FC204610BC5DF8F3
:1045D00014FB0000AB4E000802E008C8121F08C11F
:1045E000002AFAD170477047002001E001C1121F74
:1045F000002AFBD1704700002DE9FF5F82B0002147
:10460000DDE90430020DDDF840B0034318D044F674
:104610001050A2F2FF3242431514119801281FD006
:10462000A5EB0B00401C5FEA000A4FF000064E4F5E
:10463000DFF83891B046504615D5CAF1000413E0B2
:10464000119801244AA3012801D16FEA0B010298B5
:10465000119AC0E90031C0E9024206B0BDE8F09FFE
:10466000CBF10000DFE704460021404A491842EB45
:104670000450CDE9001012E0E00707D032463B4677
:1046800040464946FBF75DFF8046894632463B4639
:1046900010461946FBF755FF06460F466410002CDE
:1046A000EAD1DDE90401DDE90023BAF1000F06DA01
:1046B000FBF747FF42464B46FBF743FF05E0FBF79E
:1046C000B2FF42464B46FBF7AEFF04460E460022C1
:1046D000284BFCF72FF803D84FF0FF30014607E0D6
:1046E0000022254B20463146FBF784FEFCF70AF8F2
:1046F000102409E0002C0ADB0A220023FBF702FE4B
:10470000039B30321A55641E50EA0102F2D1641C38
:10471000039AC4F111031444119A012A03D001220F
:1047200008430DD10AE0084304D000204FF0110BDC
:10473000119072E7A3EB0B056D1E0DE05B4504DDE8
:104740004FF0000205F1010504E003DA4FF000022A
:10475000A5F10105002AECD002981199C0E90231B7
:10476000C0E9004579E70000000014400000F03F78
:10477000300000000000F0430000E03F2DE9FF4F53
:1047800095B09B468946064600250FE2252877D13D
:1047900000242746F84A0121059400E0044316F856
:1047A000013F203B01FA03F01042F7D130782A286C
:1047B00011D06FF02F033078A0F13002092A16D8FB
:1047C000059A44F0020402EB820203EB4202104419
:1047D000761C0590EFE759F8042B0592002A03DABE
:1047E000504244F40054059044F00204761C3078A2
:1047F0002E2816D116F8010F44F004042A280DD0F3
:104800006FF02F023078A0F13003092B09D807EBA5
:10481000870302EB4303C718761CF3E759F8047BC0
:10482000761C30786C280FD006DC4C2817D068280E
:104830000DD06A2814D104E0742810D07A280FD142
:104840000DE044F400140AE044F4801401E044F460
:1048500040147278824202D104F58014761C761CD2
:10486000307866280BD013DC582877D009DC002874
:1048700075D04528F6D04628F4D047281AD19DE1B6
:1048800018E0632835D0642879D0652812D195E1E5
:10489000702873D008DC6728F1D069286FD06E28A3
:1048A0000DD06F2806D1B5E073282CD0752875D0AF
:1048B000782874D05A46179990476D1C75E1C4F357
:1048C0000250022809D003280DD0D9F8001004287E
:1048D0000DD00D6009F1040967E1D9F80010EA175D
:1048E000C1E90052F6E7D9F800100D80F2E70D702B
:1048F000F0E719F8041B8DF8001000208DF8010076
:10490000EA46012003E059F804AB4FF0FF3061079D
:104910004FF0000102D40DE008F101018846B942D0
:104920000FDA8045F8DB1AF808100029F4D108E006
:1049300008F1010188468142FADB1AF808100029C3
:10494000F6D105985B46A0EB080721463846179A32
:1049500000F094FA284400EB080507E04DE029E157
:104960000DE01AF8010B5A4617999047B8F1010863
:10497000F7D25B4621463846179A13E142E00A22F5
:104980000092C4F302524FF0000A022A08D059F8EC
:1049900004CB032A4FEAEC710AD00DE029E02AE0AB
:1049A00009F1070121F00702F2E802C1914609E08E
:1049B0000FFA8CFC4FEAEC71042A03D14FFA8CFCFD
:1049C0004FEAEC71002907DA0A460021DCF1000CFD
:1049D00061EB02012D2202E0220504D52B228DF885
:1049E0000420012203E0E20701D02022F7E79046ED
:1049F00059E00A2102E010220DE010214FF0000AD8
:104A000000910BE010224FF0000A44F00404082744
:104A1000009203E008224FF0000A0092C4F3025211
:104A2000022A05D059F804CB0021032A08D009E056
:104A300009F1070121F00702F2E802C1914605E001
:104A40001FFA8CFC042A01D10CF0FF0C4FF0000877
:104A5000220728D5702806D0009B83F0100353EA64
:104A60000A0305D00EE040228DF80420012208E060
:104A70005CEA010206D030228DF804208DF8050092
:104A800002229046009B83F0080353EA0A030AD1EE
:104A90005CEA010201D1620705D530228DF80420BD
:104AA0004FF001087F1E582804D034A003900EA8B0
:104AB00002900DE036A0F9E753466046009AFBF7F6
:104AC00021FC84460398825C0298401E029002708A
:104AD0005CEA0100F0D1029806A9081A00F1200A48
:104AE000600702D524F4803400E00127574502DD39
:104AF000A7EB0A0000E0002000EB0A0100900598F7
:104B00004144401A0590E00306D45B462146179ABB
:104B1000059800F0B3F90544002706E001A85A46BD
:104B2000C05D179990476D1C7F1C4745F6DBE0037D
:104B30000CD55B462146179A059800F09FF905446D
:104B400004E030205A46179990476D1C0099481E82
:104B500000900029F5DC08E0029802995A46007896
:104B6000491C0291179990476D1CBAF10001AAF1F6
:104B7000010AF1DC65E1000009280100303132331F
:104B80003435363738396162636465660000000089
:104B90003031323334353637383941424344454673
:104BA0000000000000F058F90544761C3078002819
:104BB0007FF4ECAD19B02846BDE8F08F620700D451
:104BC000062709F1070222F0070CFCE80223E14660
:104BD00003F000485FEA080C02D00FF2702C0DE0E1
:104BE0005FEA045C02D50FF2682C07E05FEAC47C40
:104BF00002D00FF2602C01E0AFF2700C4FF0FF38E2
:104C000023F00043CDF850C065280CD006DC4528C1
:104C100009D046281DD047283DD13DE0662818D050
:104C200067287ED138E00021112F01DB112000E040
:104C3000781CCDE9000106A90EA8FFF7DDFCDDE92F
:104C40000F010E9A03910021009207F1010A0491CD
:104C50004DE04FF000400097CDE9011006A90EA8E5
:104C6000FFF7CAFCDDE90F0203920E9B11990022A7
:104C7000DDF80CA00093049211B9791C00EB010A35
:104C8000B7EB0A0004D4C0F1FF3007F1010A049029
:104C9000AAEB0700019044E0012F00DA0127002170
:104CA000112F01DD112000E03846CDE9000106A9F1
:104CB0000EA8FFF7A1FCDDE90F010E9A0391002178
:104CC00004910092BA4621070CD40399514500DAA9
:104CD0008A46BAF1010F05DD009AAAF10101515C83
:104CE000302908D0B84202DA10F1040F06DA0121A7
:104CF000CDE9011015E0AAF10101E9E7002805DC82
:104D0000049901440491AAEB000102E0411C5145C1
:104D100000DD8A460499401A401C01904FF0004083
:104D20000290200704D40198504501DBCDF804809F
:104D300000208DF84F0002980DF14F07B0F1004FA1
:104D400025D02B200E9002984FF0020800280CDA94
:104D5000404202902D200E9007E00A210298FBF7B6
:104D600014FB3031029007F8011DB8F10001A8F1E1
:104D70000108F2DC02980028EFD1791E0E98087025
:104D8000307800F0200040F0450007F8020D12A82E
:104D9000C01B00F107081498007800B1012000EB57
:104DA0000A01019801EBE07105984144401A401E48
:104DB0000590E00306D45B462146179A059800F05B
:104DC0005DF805441498007818B15A461799904731
:104DD0006D1CE00324D55B462146179A059800F028
:104DE0004DF805441CE00498002807DBDDE90301C9
:104DF000884203DD0098405C179901E01799302044
:104E00005A469047049805F10105401C049001980A
:104E1000401E019004D12E205A46179990476D1CD0
:104E2000BAF10001AAF1010ADDDC05E017F8010B77
:104E30005A46179990476D1CB8F10001A8F1010876
:104E4000F4DC5B462146179A0598ABE62D0000007E
:104E50002B000000200000002DE9F0410446002551
:104E60001E461746880404D405E039462020B04782
:104E70006D1C641EF9D52846BDE8F0812DE9F0418E
:104E8000044600251E469046C80301D5302700E0A1
:104E90002027880404D505E041463846B0476D1CFC
:104EA000641EF9D52846BDE8F0810A68531C0B60E2
:104EB00010707047000000000102030401020304A7
:104EC00006070809010002000400060008000A00A5
:104ED0000C001000200040008000000101010103CF
:104EE000070100000804020408010101104F000836
:104EF0000000002410000000D8450008204F0008E2
:104F000010000024A8050000E8450008000000008B
:104F100001000000100000000090D0030090D003BA
:04000005080002CD20
:00000001FF
